{
  "_format": "hh-sol-artifact-1",
  "contractName": "CSVMint",
  "sourceName": "contracts/CSVMint.sol",
  "abi": [
    {
      "inputs": [],
      "stateMutability": "nonpayable",
      "type": "constructor"
    },
    {
      "anonymous": false,
      "inputs": [
        {
          "indexed": true,
          "internalType": "address",
          "name": "owner",
          "type": "address"
        },
        {
          "indexed": true,
          "internalType": "address",
          "name": "approved",
          "type": "address"
        },
        {
          "indexed": true,
          "internalType": "uint256",
          "name": "tokenId",
          "type": "uint256"
        }
      ],
      "name": "Approval",
      "type": "event"
    },
    {
      "anonymous": false,
      "inputs": [
        {
          "indexed": true,
          "internalType": "address",
          "name": "owner",
          "type": "address"
        },
        {
          "indexed": true,
          "internalType": "address",
          "name": "operator",
          "type": "address"
        },
        {
          "indexed": false,
          "internalType": "bool",
          "name": "approved",
          "type": "bool"
        }
      ],
      "name": "ApprovalForAll",
      "type": "event"
    },
    {
      "anonymous": false,
      "inputs": [
        {
          "indexed": true,
          "internalType": "address",
          "name": "previousOwner",
          "type": "address"
        },
        {
          "indexed": true,
          "internalType": "address",
          "name": "newOwner",
          "type": "address"
        }
      ],
      "name": "OwnershipTransferred",
      "type": "event"
    },
    {
      "anonymous": false,
      "inputs": [
        {
          "indexed": false,
          "internalType": "address",
          "name": "account",
          "type": "address"
        }
      ],
      "name": "Paused",
      "type": "event"
    },
    {
      "anonymous": false,
      "inputs": [
        {
          "indexed": true,
          "internalType": "address",
          "name": "to",
          "type": "address"
        },
        {
          "indexed": true,
          "internalType": "uint256",
          "name": "tokenId",
          "type": "uint256"
        },
        {
          "indexed": false,
          "internalType": "string",
          "name": "csvHash",
          "type": "string"
        }
      ],
      "name": "TokenMinted",
      "type": "event"
    },
    {
      "anonymous": false,
      "inputs": [
        {
          "indexed": true,
          "internalType": "address",
          "name": "from",
          "type": "address"
        },
        {
          "indexed": true,
          "internalType": "address",
          "name": "to",
          "type": "address"
        },
        {
          "indexed": true,
          "internalType": "uint256",
          "name": "tokenId",
          "type": "uint256"
        }
      ],
      "name": "Transfer",
      "type": "event"
    },
    {
      "anonymous": false,
      "inputs": [
        {
          "indexed": false,
          "internalType": "address",
          "name": "account",
          "type": "address"
        }
      ],
      "name": "Unpaused",
      "type": "event"
    },
    {
      "inputs": [
        {
          "internalType": "address",
          "name": "to",
          "type": "address"
        },
        {
          "internalType": "uint256",
          "name": "tokenId",
          "type": "uint256"
        }
      ],
      "name": "approve",
      "outputs": [],
      "stateMutability": "nonpayable",
      "type": "function"
    },
    {
      "inputs": [
        {
          "internalType": "address",
          "name": "owner",
          "type": "address"
        }
      ],
      "name": "balanceOf",
      "outputs": [
        {
          "internalType": "uint256",
          "name": "",
          "type": "uint256"
        }
      ],
      "stateMutability": "view",
      "type": "function"
    },
    {
      "inputs": [
        {
          "internalType": "string",
          "name": "csvHash",
          "type": "string"
        }
      ],
      "name": "checkCSVToken",
      "outputs": [
        {
          "internalType": "bool",
          "name": "",
          "type": "bool"
        }
      ],
      "stateMutability": "view",
      "type": "function"
    },
    {
      "inputs": [],
      "name": "getAllCSVToken",
      "outputs": [
        {
          "components": [
            {
              "internalType": "uint256",
              "name": "tokenId",
              "type": "uint256"
            },
            {
              "internalType": "string",
              "name": "csvHash",
              "type": "string"
            },
            {
              "internalType": "string",
              "name": "date",
              "type": "string"
            },
            {
              "internalType": "string",
              "name": "issuer",
              "type": "string"
            }
          ],
          "internalType": "struct CSVMint.CSVToken[]",
          "name": "",
          "type": "tuple[]"
        }
      ],
      "stateMutability": "view",
      "type": "function"
    },
    {
      "inputs": [
        {
          "internalType": "uint256",
          "name": "tokenId",
          "type": "uint256"
        }
      ],
      "name": "getApproved",
      "outputs": [
        {
          "internalType": "address",
          "name": "",
          "type": "address"
        }
      ],
      "stateMutability": "view",
      "type": "function"
    },
    {
      "inputs": [
        {
          "internalType": "uint256",
          "name": "tokenId",
          "type": "uint256"
        }
      ],
      "name": "getCSVToken",
      "outputs": [
        {
          "internalType": "string",
          "name": "",
          "type": "string"
        }
      ],
      "stateMutability": "view",
      "type": "function"
    },
    {
      "inputs": [],
      "name": "getCSVTokenCount",
      "outputs": [
        {
          "internalType": "uint256",
          "name": "",
          "type": "uint256"
        }
      ],
      "stateMutability": "view",
      "type": "function"
    },
    {
      "inputs": [
        {
          "internalType": "string",
          "name": "csvHash",
          "type": "string"
        }
      ],
      "name": "getTokenDateFromHash",
      "outputs": [
        {
          "internalType": "string",
          "name": "",
          "type": "string"
        }
      ],
      "stateMutability": "view",
      "type": "function"
    },
    {
      "inputs": [
        {
          "internalType": "string",
          "name": "csvHash",
          "type": "string"
        }
      ],
      "name": "getTokenHashFromHash",
      "outputs": [
        {
          "internalType": "string",
          "name": "",
          "type": "string"
        }
      ],
      "stateMutability": "view",
      "type": "function"
    },
    {
      "inputs": [
        {
          "internalType": "string",
          "name": "csvHash",
          "type": "string"
        }
      ],
      "name": "getTokenIDFromHash",
      "outputs": [
        {
          "internalType": "uint256",
          "name": "",
          "type": "uint256"
        }
      ],
      "stateMutability": "view",
      "type": "function"
    },
    {
      "inputs": [
        {
          "internalType": "string",
          "name": "csvHash",
          "type": "string"
        }
      ],
      "name": "getTokenIssuerFromHash",
      "outputs": [
        {
          "internalType": "string",
          "name": "",
          "type": "string"
        }
      ],
      "stateMutability": "view",
      "type": "function"
    },
    {
      "inputs": [
        {
          "internalType": "address",
          "name": "owner",
          "type": "address"
        },
        {
          "internalType": "address",
          "name": "operator",
          "type": "address"
        }
      ],
      "name": "isApprovedForAll",
      "outputs": [
        {
          "internalType": "bool",
          "name": "",
          "type": "bool"
        }
      ],
      "stateMutability": "view",
      "type": "function"
    },
    {
      "inputs": [
        {
          "internalType": "string",
          "name": "csvHash",
          "type": "string"
        },
        {
          "internalType": "string",
          "name": "date",
          "type": "string"
        }
      ],
      "name": "mintCSV",
      "outputs": [],
      "stateMutability": "nonpayable",
      "type": "function"
    },
    {
      "inputs": [],
      "name": "name",
      "outputs": [
        {
          "internalType": "string",
          "name": "",
          "type": "string"
        }
      ],
      "stateMutability": "view",
      "type": "function"
    },
    {
      "inputs": [],
      "name": "owner",
      "outputs": [
        {
          "internalType": "address",
          "name": "",
          "type": "address"
        }
      ],
      "stateMutability": "view",
      "type": "function"
    },
    {
      "inputs": [
        {
          "internalType": "uint256",
          "name": "tokenId",
          "type": "uint256"
        }
      ],
      "name": "ownerOf",
      "outputs": [
        {
          "internalType": "address",
          "name": "",
          "type": "address"
        }
      ],
      "stateMutability": "view",
      "type": "function"
    },
    {
      "inputs": [],
      "name": "pause",
      "outputs": [],
      "stateMutability": "nonpayable",
      "type": "function"
    },
    {
      "inputs": [],
      "name": "paused",
      "outputs": [
        {
          "internalType": "bool",
          "name": "",
          "type": "bool"
        }
      ],
      "stateMutability": "view",
      "type": "function"
    },
    {
      "inputs": [],
      "name": "renounceOwnership",
      "outputs": [],
      "stateMutability": "nonpayable",
      "type": "function"
    },
    {
      "inputs": [
        {
          "internalType": "address",
          "name": "to",
          "type": "address"
        },
        {
          "internalType": "string",
          "name": "uri",
          "type": "string"
        }
      ],
      "name": "safeMint",
      "outputs": [],
      "stateMutability": "nonpayable",
      "type": "function"
    },
    {
      "inputs": [
        {
          "internalType": "address",
          "name": "from",
          "type": "address"
        },
        {
          "internalType": "address",
          "name": "to",
          "type": "address"
        },
        {
          "internalType": "uint256",
          "name": "tokenId",
          "type": "uint256"
        }
      ],
      "name": "safeTransferFrom",
      "outputs": [],
      "stateMutability": "nonpayable",
      "type": "function"
    },
    {
      "inputs": [
        {
          "internalType": "address",
          "name": "from",
          "type": "address"
        },
        {
          "internalType": "address",
          "name": "to",
          "type": "address"
        },
        {
          "internalType": "uint256",
          "name": "tokenId",
          "type": "uint256"
        },
        {
          "internalType": "bytes",
          "name": "data",
          "type": "bytes"
        }
      ],
      "name": "safeTransferFrom",
      "outputs": [],
      "stateMutability": "nonpayable",
      "type": "function"
    },
    {
      "inputs": [
        {
          "internalType": "address",
          "name": "operator",
          "type": "address"
        },
        {
          "internalType": "bool",
          "name": "approved",
          "type": "bool"
        }
      ],
      "name": "setApprovalForAll",
      "outputs": [],
      "stateMutability": "nonpayable",
      "type": "function"
    },
    {
      "inputs": [
        {
          "internalType": "bytes4",
          "name": "interfaceId",
          "type": "bytes4"
        }
      ],
      "name": "supportsInterface",
      "outputs": [
        {
          "internalType": "bool",
          "name": "",
          "type": "bool"
        }
      ],
      "stateMutability": "view",
      "type": "function"
    },
    {
      "inputs": [],
      "name": "symbol",
      "outputs": [
        {
          "internalType": "string",
          "name": "",
          "type": "string"
        }
      ],
      "stateMutability": "view",
      "type": "function"
    },
    {
      "inputs": [
        {
          "internalType": "uint256",
          "name": "index",
          "type": "uint256"
        }
      ],
      "name": "tokenByIndex",
      "outputs": [
        {
          "internalType": "uint256",
          "name": "",
          "type": "uint256"
        }
      ],
      "stateMutability": "view",
      "type": "function"
    },
    {
      "inputs": [
        {
          "internalType": "address",
          "name": "owner",
          "type": "address"
        },
        {
          "internalType": "uint256",
          "name": "index",
          "type": "uint256"
        }
      ],
      "name": "tokenOfOwnerByIndex",
      "outputs": [
        {
          "internalType": "uint256",
          "name": "",
          "type": "uint256"
        }
      ],
      "stateMutability": "view",
      "type": "function"
    },
    {
      "inputs": [
        {
          "internalType": "uint256",
          "name": "tokenId",
          "type": "uint256"
        }
      ],
      "name": "tokenURI",
      "outputs": [
        {
          "internalType": "string",
          "name": "",
          "type": "string"
        }
      ],
      "stateMutability": "view",
      "type": "function"
    },
    {
      "inputs": [],
      "name": "totalSupply",
      "outputs": [
        {
          "internalType": "uint256",
          "name": "",
          "type": "uint256"
        }
      ],
      "stateMutability": "view",
      "type": "function"
    },
    {
      "inputs": [
        {
          "internalType": "address",
          "name": "from",
          "type": "address"
        },
        {
          "internalType": "address",
          "name": "to",
          "type": "address"
        },
        {
          "internalType": "uint256",
          "name": "tokenId",
          "type": "uint256"
        }
      ],
      "name": "transferFrom",
      "outputs": [],
      "stateMutability": "nonpayable",
      "type": "function"
    },
    {
      "inputs": [
        {
          "internalType": "address",
          "name": "newOwner",
          "type": "address"
        }
      ],
      "name": "transferOwnership",
      "outputs": [],
      "stateMutability": "nonpayable",
      "type": "function"
    },
    {
      "inputs": [
        {
          "internalType": "uint256",
          "name": "tokenId",
          "type": "uint256"
        },
        {
          "internalType": "address",
          "name": "newOwner",
          "type": "address"
        }
      ],
      "name": "transferTokenOwnership",
      "outputs": [],
      "stateMutability": "nonpayable",
      "type": "function"
    },
    {
      "inputs": [],
      "name": "unpause",
      "outputs": [],
      "stateMutability": "nonpayable",
      "type": "function"
    }
  ],
  "bytecode": "0x60806040523480156200001157600080fd5b506040518060400160405280600781526020017f4353564d696e74000000000000000000000000000000000000000000000000008152506040518060400160405280600381526020017f435356000000000000000000000000000000000000000000000000000000000081525081600090816200008f91906200042d565b508060019081620000a191906200042d565b5050506000600b60006101000a81548160ff021916908315150217905550620000df620000d3620000e560201b60201c565b620000ed60201b60201c565b62000514565b600033905090565b6000600b60019054906101000a900473ffffffffffffffffffffffffffffffffffffffff16905081600b60016101000a81548173ffffffffffffffffffffffffffffffffffffffff021916908373ffffffffffffffffffffffffffffffffffffffff1602179055508173ffffffffffffffffffffffffffffffffffffffff168173ffffffffffffffffffffffffffffffffffffffff167f8be0079c531659141344cd1fd0a4f28419497f9722a3daafe3b4186f6b6457e060405160405180910390a35050565b600081519050919050565b7f4e487b7100000000000000000000000000000000000000000000000000000000600052604160045260246000fd5b7f4e487b7100000000000000000000000000000000000000000000000000000000600052602260045260246000fd5b600060028204905060018216806200023557607f821691505b6020821081036200024b576200024a620001ed565b5b50919050565b60008190508160005260206000209050919050565b60006020601f8301049050919050565b600082821b905092915050565b600060088302620002b57fffffffffffffffffffffffffffffffffffffffffffffffffffffffffffffffff8262000276565b620002c1868362000276565b95508019841693508086168417925050509392505050565b6000819050919050565b6000819050919050565b60006200030e620003086200030284620002d9565b620002e3565b620002d9565b9050919050565b6000819050919050565b6200032a83620002ed565b62000342620003398262000315565b84845462000283565b825550505050565b600090565b620003596200034a565b620003668184846200031f565b505050565b5b818110156200038e57620003826000826200034f565b6001810190506200036c565b5050565b601f821115620003dd57620003a78162000251565b620003b28462000266565b81016020851015620003c2578190505b620003da620003d18562000266565b8301826200036b565b50505b505050565b600082821c905092915050565b60006200040260001984600802620003e2565b1980831691505092915050565b60006200041d8383620003ef565b9150826002028217905092915050565b6200043882620001b3565b67ffffffffffffffff811115620004545762000453620001be565b5b6200046082546200021c565b6200046d82828562000392565b600060209050601f831160018114620004a5576000841562000490578287015190505b6200049c85826200040f565b8655506200050c565b601f198416620004b58662000251565b60005b82811015620004df57848901518255600182019150602085019450602081019050620004b8565b86831015620004ff5784890151620004fb601f891682620003ef565b8355505b6001600288020188555050505b505050505050565b614e7d80620005246000396000f3fe608060405234801561001057600080fd5b50600436106101fb5760003560e01c806370a082311161011a578063a5f0f9a3116100ad578063c87b56dd1161007c578063c87b56dd146105d8578063d204c45e14610608578063e985e9c514610624578063e9cf64e614610654578063f2fde38b14610670576101fb565b8063a5f0f9a31461053e578063b88d4fde1461055c578063bc12fc6b14610578578063c69961d6146105a8576101fb565b80638527e87e116100e95780638527e87e146104b65780638da5cb5b146104e657806395d89b4114610504578063a22cb46514610522576101fb565b806370a0823114610456578063715018a614610486578063766f5ecb146104905780638456cb59146104ac576101fb565b80633f4ba83a116101925780635705eb06116101615780635705eb06146103ba5780635c975abb146103d857806361293460146103f65780636352211e14610426576101fb565b80633f4ba83a1461033457806342842e0e1461033e578063498755601461035a5780634f6ccce71461038a576101fb565b806312ff753d116101ce57806312ff753d1461029a57806318160ddd146102ca57806323b872dd146102e85780632f745c5914610304576101fb565b806301ffc9a71461020057806306fdde0314610230578063081812fc1461024e578063095ea7b31461027e575b600080fd5b61021a60048036038101906102159190613403565b61068c565b604051610227919061344b565b60405180910390f35b61023861069e565b60405161024591906134f6565b60405180910390f35b6102686004803603810190610263919061354e565b610730565b60405161027591906135bc565b60405180910390f35b61029860048036038101906102939190613603565b610776565b005b6102b460048036038101906102af9190613778565b61088d565b6040516102c191906134f6565b60405180910390f35b6102d26109e6565b6040516102df91906137d0565b60405180910390f35b61030260048036038101906102fd91906137eb565b6109f3565b005b61031e60048036038101906103199190613603565b610a53565b60405161032b91906137d0565b60405180910390f35b61033c610af8565b005b610358600480360381019061035391906137eb565b610b0a565b005b610374600480360381019061036f9190613778565b610b2a565b60405161038191906134f6565b60405180910390f35b6103a4600480360381019061039f919061354e565b610c83565b6040516103b191906137d0565b60405180910390f35b6103c2610cf4565b6040516103cf91906139ca565b60405180910390f35b6103e0610f13565b6040516103ed919061344b565b60405180910390f35b610410600480360381019061040b9190613778565b610f2a565b60405161041d919061344b565b60405180910390f35b610440600480360381019061043b919061354e565b610fde565b60405161044d91906135bc565b60405180910390f35b610470600480360381019061046b91906139ec565b611064565b60405161047d91906137d0565b60405180910390f35b61048e61111b565b005b6104aa60048036038101906104a59190613a19565b61112f565b005b6104b4611204565b005b6104d060048036038101906104cb9190613778565b611216565b6040516104dd91906134f6565b60405180910390f35b6104ee61136f565b6040516104fb91906135bc565b60405180910390f35b61050c611399565b60405161051991906134f6565b60405180910390f35b61053c60048036038101906105379190613abd565b61142b565b005b610546611441565b60405161055391906137d0565b60405180910390f35b61057660048036038101906105719190613b9e565b61144e565b005b610592600480360381019061058d919061354e565b6114b0565b60405161059f91906134f6565b60405180910390f35b6105c260048036038101906105bd9190613778565b6115ae565b6040516105cf91906137d0565b60405180910390f35b6105f260048036038101906105ed919061354e565b611682565b6040516105ff91906134f6565b60405180910390f35b610622600480360381019061061d9190613c21565b611694565b005b61063e60048036038101906106399190613c7d565b6116cd565b60405161064b919061344b565b60405180910390f35b61066e60048036038101906106699190613cbd565b611761565b005b61068a600480360381019061068591906139ec565b6117b9565b005b60006106978261183c565b9050919050565b6060600080546106ad90613d2c565b80601f01602080910402602001604051908101604052809291908181526020018280546106d990613d2c565b80156107265780601f106106fb57610100808354040283529160200191610726565b820191906000526020600020905b81548152906001019060200180831161070957829003601f168201915b5050505050905090565b600061073b826118b6565b6004600083815260200190815260200160002060009054906101000a900473ffffffffffffffffffffffffffffffffffffffff169050919050565b600061078182610fde565b90508073ffffffffffffffffffffffffffffffffffffffff168373ffffffffffffffffffffffffffffffffffffffff16036107f1576040517f08c379a00000000000000000000000000000000000000000000000000000000081526004016107e890613dcf565b60405180910390fd5b8073ffffffffffffffffffffffffffffffffffffffff16610810611901565b73ffffffffffffffffffffffffffffffffffffffff16148061083f575061083e81610839611901565b6116cd565b5b61087e576040517f08c379a000000000000000000000000000000000000000000000000000000000815260040161087590613e61565b60405180910390fd5b6108888383611909565b505050565b606060005b600d805490508110156109df57600d81815481106108b3576108b2613e81565b5b90600052602060002090600402016001016040516020016108d49190613f53565b60405160208183030381529060405280519060200120836040516020016108fb9190613f9b565b60405160208183030381529060405280519060200120036109cc57600d818154811061092a57610929613e81565b5b9060005260206000209060040201600201805461094690613d2c565b80601f016020809104026020016040519081016040528092919081815260200182805461097290613d2c565b80156109bf5780601f10610994576101008083540402835291602001916109bf565b820191906000526020600020905b8154815290600101906020018083116109a257829003601f168201915b50505050509150506109e1565b80806109d790613fe1565b915050610892565b505b919050565b6000600880549050905090565b610a046109fe611901565b826119c2565b610a43576040517f08c379a0000000000000000000000000000000000000000000000000000000008152600401610a3a9061409b565b60405180910390fd5b610a4e838383611a57565b505050565b6000610a5e83611064565b8210610a9f576040517f08c379a0000000000000000000000000000000000000000000000000000000008152600401610a969061412d565b60405180910390fd5b600660008473ffffffffffffffffffffffffffffffffffffffff1673ffffffffffffffffffffffffffffffffffffffff168152602001908152602001600020600083815260200190815260200160002054905092915050565b610b00611d50565b610b08611dce565b565b610b258383836040518060200160405280600081525061144e565b505050565b606060005b600d80549050811015610c7c57600d8181548110610b5057610b4f613e81565b5b9060005260206000209060040201600101604051602001610b719190613f53565b6040516020818303038152906040528051906020012083604051602001610b989190613f9b565b6040516020818303038152906040528051906020012003610c6957600d8181548110610bc757610bc6613e81565b5b90600052602060002090600402016001018054610be390613d2c565b80601f0160208091040260200160405190810160405280929190818152602001828054610c0f90613d2c565b8015610c5c5780601f10610c3157610100808354040283529160200191610c5c565b820191906000526020600020905b815481529060010190602001808311610c3f57829003601f168201915b5050505050915050610c7e565b8080610c7490613fe1565b915050610b2f565b505b919050565b6000610c8d6109e6565b8210610cce576040517f08c379a0000000000000000000000000000000000000000000000000000000008152600401610cc5906141bf565b60405180910390fd5b60088281548110610ce257610ce1613e81565b5b90600052602060002001549050919050565b6060600d805480602002602001604051908101604052809291908181526020016000905b82821015610f0a578382906000526020600020906004020160405180608001604052908160008201548152602001600182018054610d5590613d2c565b80601f0160208091040260200160405190810160405280929190818152602001828054610d8190613d2c565b8015610dce5780601f10610da357610100808354040283529160200191610dce565b820191906000526020600020905b815481529060010190602001808311610db157829003601f168201915b50505050508152602001600282018054610de790613d2c565b80601f0160208091040260200160405190810160405280929190818152602001828054610e1390613d2c565b8015610e605780601f10610e3557610100808354040283529160200191610e60565b820191906000526020600020905b815481529060010190602001808311610e4357829003601f168201915b50505050508152602001600382018054610e7990613d2c565b80601f0160208091040260200160405190810160405280929190818152602001828054610ea590613d2c565b8015610ef25780601f10610ec757610100808354040283529160200191610ef2565b820191906000526020600020905b815481529060010190602001808311610ed557829003601f168201915b50505050508152505081526020019060010190610d18565b50505050905090565b6000600b60009054906101000a900460ff16905090565b600080600090505b600d80549050811015610fd357600d8181548110610f5357610f52613e81565b5b9060005260206000209060040201600101604051602001610f749190613f53565b6040516020818303038152906040528051906020012083604051602001610f9b9190613f9b565b6040516020818303038152906040528051906020012003610fc0576001915050610fd9565b8080610fcb90613fe1565b915050610f32565b50600090505b919050565b600080610fea83611e31565b9050600073ffffffffffffffffffffffffffffffffffffffff168173ffffffffffffffffffffffffffffffffffffffff160361105b576040517f08c379a00000000000000000000000000000000000000000000000000000000081526004016110529061422b565b60405180910390fd5b80915050919050565b60008073ffffffffffffffffffffffffffffffffffffffff168273ffffffffffffffffffffffffffffffffffffffff16036110d4576040517f08c379a00000000000000000000000000000000000000000000000000000000081526004016110cb906142bd565b60405180910390fd5b600360008373ffffffffffffffffffffffffffffffffffffffff1673ffffffffffffffffffffffffffffffffffffffff168152602001908152602001600020549050919050565b611123611d50565b61112d6000611e6e565b565b600061113b600c611f34565b9050611147600c611f42565b6111513382611f58565b600061115c33611f76565b905060006040518060800160405280848152602001868152602001858152602001838152509050600d8190806001815401808255809150506001900390600052602060002090600402016000909190919091506000820151816000015560208201518160010190816111ce9190614474565b5060408201518160020190816111e49190614474565b5060608201518160030190816111fa9190614474565b5050505050505050565b61120c611d50565b611214612281565b565b606060005b600d8054905081101561136857600d818154811061123c5761123b613e81565b5b906000526020600020906004020160010160405160200161125d9190613f53565b60405160208183030381529060405280519060200120836040516020016112849190613f9b565b604051602081830303815290604052805190602001200361135557600d81815481106112b3576112b2613e81565b5b906000526020600020906004020160030180546112cf90613d2c565b80601f01602080910402602001604051908101604052809291908181526020018280546112fb90613d2c565b80156113485780601f1061131d57610100808354040283529160200191611348565b820191906000526020600020905b81548152906001019060200180831161132b57829003601f168201915b505050505091505061136a565b808061136090613fe1565b91505061121b565b505b919050565b6000600b60019054906101000a900473ffffffffffffffffffffffffffffffffffffffff16905090565b6060600180546113a890613d2c565b80601f01602080910402602001604051908101604052809291908181526020018280546113d490613d2c565b80156114215780601f106113f657610100808354040283529160200191611421565b820191906000526020600020905b81548152906001019060200180831161140457829003601f168201915b5050505050905090565b61143d611436611901565b83836122e4565b5050565b6000600d80549050905090565b61145f611459611901565b836119c2565b61149e576040517f08c379a00000000000000000000000000000000000000000000000000000000081526004016114959061409b565b60405180910390fd5b6114aa84848484612450565b50505050565b6060600d8054905082106114f9576040517f08c379a00000000000000000000000000000000000000000000000000000000081526004016114f090614592565b60405180910390fd5b600d828154811061150d5761150c613e81565b5b9060005260206000209060040201600101805461152990613d2c565b80601f016020809104026020016040519081016040528092919081815260200182805461155590613d2c565b80156115a25780601f10611577576101008083540402835291602001916115a2565b820191906000526020600020905b81548152906001019060200180831161158557829003601f168201915b50505050509050919050565b600080600090505b600d8054905081101561167b57600d81815481106115d7576115d6613e81565b5b90600052602060002090600402016001016040516020016115f89190613f53565b604051602081830303815290604052805190602001208360405160200161161f9190613f9b565b604051602081830303815290604052805190602001200361166857600d818154811061164e5761164d613e81565b5b90600052602060002090600402016000015491505061167d565b808061167390613fe1565b9150506115b6565b505b919050565b606061168d826124ac565b9050919050565b61169c611d50565b60006116a8600c611f34565b90506116b4600c611f42565b6116be8382611f58565b6116c881836125be565b505050565b6000600560008473ffffffffffffffffffffffffffffffffffffffff1673ffffffffffffffffffffffffffffffffffffffff16815260200190815260200160002060008373ffffffffffffffffffffffffffffffffffffffff1673ffffffffffffffffffffffffffffffffffffffff16815260200190815260200160002060009054906101000a900460ff16905092915050565b61176b33836119c2565b6117aa576040517f08c379a00000000000000000000000000000000000000000000000000000000081526004016117a190614624565b60405180910390fd5b6117b5338284611a57565b5050565b6117c1611d50565b600073ffffffffffffffffffffffffffffffffffffffff168173ffffffffffffffffffffffffffffffffffffffff1603611830576040517f08c379a0000000000000000000000000000000000000000000000000000000008152600401611827906146b6565b60405180910390fd5b61183981611e6e565b50565b60007f780e9d63000000000000000000000000000000000000000000000000000000007bffffffffffffffffffffffffffffffffffffffffffffffffffffffff1916827bffffffffffffffffffffffffffffffffffffffffffffffffffffffff191614806118af57506118ae8261262b565b5b9050919050565b6118bf8161270d565b6118fe576040517f08c379a00000000000000000000000000000000000000000000000000000000081526004016118f59061422b565b60405180910390fd5b50565b600033905090565b816004600083815260200190815260200160002060006101000a81548173ffffffffffffffffffffffffffffffffffffffff021916908373ffffffffffffffffffffffffffffffffffffffff160217905550808273ffffffffffffffffffffffffffffffffffffffff1661197c83610fde565b73ffffffffffffffffffffffffffffffffffffffff167f8c5be1e5ebec7d5bd14f71427d1e84f3dd0314c0f7b2291e5b200ac8c7c3b92560405160405180910390a45050565b6000806119ce83610fde565b90508073ffffffffffffffffffffffffffffffffffffffff168473ffffffffffffffffffffffffffffffffffffffff161480611a105750611a0f81856116cd565b5b80611a4e57508373ffffffffffffffffffffffffffffffffffffffff16611a3684610730565b73ffffffffffffffffffffffffffffffffffffffff16145b91505092915050565b8273ffffffffffffffffffffffffffffffffffffffff16611a7782610fde565b73ffffffffffffffffffffffffffffffffffffffff1614611acd576040517f08c379a0000000000000000000000000000000000000000000000000000000008152600401611ac490614748565b60405180910390fd5b600073ffffffffffffffffffffffffffffffffffffffff168273ffffffffffffffffffffffffffffffffffffffff1603611b3c576040517f08c379a0000000000000000000000000000000000000000000000000000000008152600401611b33906147da565b60405180910390fd5b611b49838383600161274e565b8273ffffffffffffffffffffffffffffffffffffffff16611b6982610fde565b73ffffffffffffffffffffffffffffffffffffffff1614611bbf576040517f08c379a0000000000000000000000000000000000000000000000000000000008152600401611bb690614748565b60405180910390fd5b6004600082815260200190815260200160002060006101000a81549073ffffffffffffffffffffffffffffffffffffffff02191690556001600360008573ffffffffffffffffffffffffffffffffffffffff1673ffffffffffffffffffffffffffffffffffffffff168152602001908152602001600020600082825403925050819055506001600360008473ffffffffffffffffffffffffffffffffffffffff1673ffffffffffffffffffffffffffffffffffffffff16815260200190815260200160002060008282540192505081905550816002600083815260200190815260200160002060006101000a81548173ffffffffffffffffffffffffffffffffffffffff021916908373ffffffffffffffffffffffffffffffffffffffff160217905550808273ffffffffffffffffffffffffffffffffffffffff168473ffffffffffffffffffffffffffffffffffffffff167fddf252ad1be2c89b69c2b068fc378daa952ba7f163c4a11628f55a4df523b3ef60405160405180910390a4611d4b8383836001612768565b505050565b611d58611901565b73ffffffffffffffffffffffffffffffffffffffff16611d7661136f565b73ffffffffffffffffffffffffffffffffffffffff1614611dcc576040517f08c379a0000000000000000000000000000000000000000000000000000000008152600401611dc390614846565b60405180910390fd5b565b611dd661276e565b6000600b60006101000a81548160ff0219169083151502179055507f5db9ee0a495bf2e6ff9c91a7834c1ba4fdd244a5e8aa4e537bd38aeae4b073aa611e1a611901565b604051611e2791906135bc565b60405180910390a1565b60006002600083815260200190815260200160002060009054906101000a900473ffffffffffffffffffffffffffffffffffffffff169050919050565b6000600b60019054906101000a900473ffffffffffffffffffffffffffffffffffffffff16905081600b60016101000a81548173ffffffffffffffffffffffffffffffffffffffff021916908373ffffffffffffffffffffffffffffffffffffffff1602179055508173ffffffffffffffffffffffffffffffffffffffff168173ffffffffffffffffffffffffffffffffffffffff167f8be0079c531659141344cd1fd0a4f28419497f9722a3daafe3b4186f6b6457e060405160405180910390a35050565b600081600001549050919050565b6001816000016000828254019250508190555050565b611f728282604051806020016040528060008152506127b7565b5050565b606060008273ffffffffffffffffffffffffffffffffffffffff1660001b905060006040518060400160405280601081526020017f303132333435363738396162636465660000000000000000000000000000000081525090506000602a67ffffffffffffffff811115611fed57611fec61364d565b5b6040519080825280601f01601f19166020018201604052801561201f5781602001600182028036833780820191505090505b5090507f30000000000000000000000000000000000000000000000000000000000000008160008151811061205757612056613e81565b5b60200101907effffffffffffffffffffffffffffffffffffffffffffffffffffffffffffff1916908160001a9053507f7800000000000000000000000000000000000000000000000000000000000000816001815181106120bb576120ba613e81565b5b60200101907effffffffffffffffffffffffffffffffffffffffffffffffffffffffffffff1916908160001a90535060005b60148110156122755782600485600c846121079190614866565b6020811061211857612117613e81565b5b1a60f81b7effffffffffffffffffffffffffffffffffffffffffffffffffffffffffffff1916901c60f81c60ff168151811061215757612156613e81565b5b602001015160f81c60f81b82600283612170919061489a565b600261217c9190614866565b8151811061218d5761218c613e81565b5b60200101907effffffffffffffffffffffffffffffffffffffffffffffffffffffffffffff1916908160001a90535082600f60f81b85600c846121d09190614866565b602081106121e1576121e0613e81565b5b1a60f81b1660f81c60ff16815181106121fd576121fc613e81565b5b602001015160f81c60f81b82600283612216919061489a565b60036122229190614866565b8151811061223357612232613e81565b5b60200101907effffffffffffffffffffffffffffffffffffffffffffffffffffffffffffff1916908160001a905350808061226d90613fe1565b9150506120ed565b50809350505050919050565b612289612812565b6001600b60006101000a81548160ff0219169083151502179055507f62e78cea01bee320cd4e420270b5ea74000d11b0c9f74754ebdbfc544b05a2586122cd611901565b6040516122da91906135bc565b60405180910390a1565b8173ffffffffffffffffffffffffffffffffffffffff168373ffffffffffffffffffffffffffffffffffffffff1603612352576040517f08c379a000000000000000000000000000000000000000000000000000000000815260040161234990614928565b60405180910390fd5b80600560008573ffffffffffffffffffffffffffffffffffffffff1673ffffffffffffffffffffffffffffffffffffffff16815260200190815260200160002060008473ffffffffffffffffffffffffffffffffffffffff1673ffffffffffffffffffffffffffffffffffffffff16815260200190815260200160002060006101000a81548160ff0219169083151502179055508173ffffffffffffffffffffffffffffffffffffffff168373ffffffffffffffffffffffffffffffffffffffff167f17307eab39ab6107e8899845ad3d59bd9653f200f220920489ca2b5937696c3183604051612443919061344b565b60405180910390a3505050565b61245b848484611a57565b6124678484848461285c565b6124a6576040517f08c379a000000000000000000000000000000000000000000000000000000000815260040161249d906149ba565b60405180910390fd5b50505050565b60606124b7826118b6565b6000600a600084815260200190815260200160002080546124d790613d2c565b80601f016020809104026020016040519081016040528092919081815260200182805461250390613d2c565b80156125505780601f1061252557610100808354040283529160200191612550565b820191906000526020600020905b81548152906001019060200180831161253357829003601f168201915b5050505050905060006125616129e3565b905060008151036125765781925050506125b9565b6000825111156125ab5780826040516020016125939291906149da565b604051602081830303815290604052925050506125b9565b6125b4846129fa565b925050505b919050565b6125c78261270d565b612606576040517f08c379a00000000000000000000000000000000000000000000000000000000081526004016125fd90614a70565b60405180910390fd5b80600a600084815260200190815260200160002090816126269190614474565b505050565b60007f80ac58cd000000000000000000000000000000000000000000000000000000007bffffffffffffffffffffffffffffffffffffffffffffffffffffffff1916827bffffffffffffffffffffffffffffffffffffffffffffffffffffffff191614806126f657507f5b5e139f000000000000000000000000000000000000000000000000000000007bffffffffffffffffffffffffffffffffffffffffffffffffffffffff1916827bffffffffffffffffffffffffffffffffffffffffffffffffffffffff1916145b80612706575061270582612a62565b5b9050919050565b60008073ffffffffffffffffffffffffffffffffffffffff1661272f83611e31565b73ffffffffffffffffffffffffffffffffffffffff1614159050919050565b612756612812565b61276284848484612acc565b50505050565b50505050565b612776610f13565b6127b5576040517f08c379a00000000000000000000000000000000000000000000000000000000081526004016127ac90614adc565b60405180910390fd5b565b6127c18383612c2a565b6127ce600084848461285c565b61280d576040517f08c379a0000000000000000000000000000000000000000000000000000000008152600401612804906149ba565b60405180910390fd5b505050565b61281a610f13565b1561285a576040517f08c379a000000000000000000000000000000000000000000000000000000000815260040161285190614b48565b60405180910390fd5b565b600061287d8473ffffffffffffffffffffffffffffffffffffffff16612e47565b156129d6578373ffffffffffffffffffffffffffffffffffffffff1663150b7a026128a6611901565b8786866040518563ffffffff1660e01b81526004016128c89493929190614bbd565b6020604051808303816000875af192505050801561290457506040513d601f19601f820116820180604052508101906129019190614c1e565b60015b612986573d8060008114612934576040519150601f19603f3d011682016040523d82523d6000602084013e612939565b606091505b50600081510361297e576040517f08c379a0000000000000000000000000000000000000000000000000000000008152600401612975906149ba565b60405180910390fd5b805181602001fd5b63150b7a0260e01b7bffffffffffffffffffffffffffffffffffffffffffffffffffffffff1916817bffffffffffffffffffffffffffffffffffffffffffffffffffffffff1916149150506129db565b600190505b949350505050565b606060405180602001604052806000815250905090565b6060612a05826118b6565b6000612a0f6129e3565b90506000815111612a2f5760405180602001604052806000815250612a5a565b80612a3984612e6a565b604051602001612a4a9291906149da565b6040516020818303038152906040525b915050919050565b60007f01ffc9a7000000000000000000000000000000000000000000000000000000007bffffffffffffffffffffffffffffffffffffffffffffffffffffffff1916827bffffffffffffffffffffffffffffffffffffffffffffffffffffffff1916149050919050565b612ad884848484612f38565b6001811115612b1c576040517f08c379a0000000000000000000000000000000000000000000000000000000008152600401612b1390614cbd565b60405180910390fd5b6000829050600073ffffffffffffffffffffffffffffffffffffffff168573ffffffffffffffffffffffffffffffffffffffff1603612b6357612b5e81612f3e565b612ba2565b8373ffffffffffffffffffffffffffffffffffffffff168573ffffffffffffffffffffffffffffffffffffffff1614612ba157612ba08582612f87565b5b5b600073ffffffffffffffffffffffffffffffffffffffff168473ffffffffffffffffffffffffffffffffffffffff1603612be457612bdf816130f4565b612c23565b8473ffffffffffffffffffffffffffffffffffffffff168473ffffffffffffffffffffffffffffffffffffffff1614612c2257612c2184826131c5565b5b5b5050505050565b600073ffffffffffffffffffffffffffffffffffffffff168273ffffffffffffffffffffffffffffffffffffffff1603612c99576040517f08c379a0000000000000000000000000000000000000000000000000000000008152600401612c9090614d29565b60405180910390fd5b612ca28161270d565b15612ce2576040517f08c379a0000000000000000000000000000000000000000000000000000000008152600401612cd990614d95565b60405180910390fd5b612cf060008383600161274e565b612cf98161270d565b15612d39576040517f08c379a0000000000000000000000000000000000000000000000000000000008152600401612d3090614d95565b60405180910390fd5b6001600360008473ffffffffffffffffffffffffffffffffffffffff1673ffffffffffffffffffffffffffffffffffffffff16815260200190815260200160002060008282540192505081905550816002600083815260200190815260200160002060006101000a81548173ffffffffffffffffffffffffffffffffffffffff021916908373ffffffffffffffffffffffffffffffffffffffff160217905550808273ffffffffffffffffffffffffffffffffffffffff16600073ffffffffffffffffffffffffffffffffffffffff167fddf252ad1be2c89b69c2b068fc378daa952ba7f163c4a11628f55a4df523b3ef60405160405180910390a4612e43600083836001612768565b5050565b6000808273ffffffffffffffffffffffffffffffffffffffff163b119050919050565b606060006001612e7984613244565b01905060008167ffffffffffffffff811115612e9857612e9761364d565b5b6040519080825280601f01601f191660200182016040528015612eca5781602001600182028036833780820191505090505b509050600082602001820190505b600115612f2d578080600190039150507f3031323334353637383961626364656600000000000000000000000000000000600a86061a8153600a8581612f2157612f20614db5565b5b04945060008503612ed8575b819350505050919050565b50505050565b6008805490506009600083815260200190815260200160002081905550600881908060018154018082558091505060019003906000526020600020016000909190919091505550565b60006001612f9484611064565b612f9e9190614de4565b9050600060076000848152602001908152602001600020549050818114613083576000600660008673ffffffffffffffffffffffffffffffffffffffff1673ffffffffffffffffffffffffffffffffffffffff168152602001908152602001600020600084815260200190815260200160002054905080600660008773ffffffffffffffffffffffffffffffffffffffff1673ffffffffffffffffffffffffffffffffffffffff168152602001908152602001600020600084815260200190815260200160002081905550816007600083815260200190815260200160002081905550505b6007600084815260200190815260200160002060009055600660008573ffffffffffffffffffffffffffffffffffffffff1673ffffffffffffffffffffffffffffffffffffffff16815260200190815260200160002060008381526020019081526020016000206000905550505050565b600060016008805490506131089190614de4565b905060006009600084815260200190815260200160002054905060006008838154811061313857613137613e81565b5b90600052602060002001549050806008838154811061315a57613159613e81565b5b9060005260206000200181905550816009600083815260200190815260200160002081905550600960008581526020019081526020016000206000905560088054806131a9576131a8614e18565b5b6001900381819060005260206000200160009055905550505050565b60006131d083611064565b905081600660008573ffffffffffffffffffffffffffffffffffffffff1673ffffffffffffffffffffffffffffffffffffffff168152602001908152602001600020600083815260200190815260200160002081905550806007600084815260200190815260200160002081905550505050565b600080600090507a184f03e93ff9f4daa797ed6e38ed64bf6a1f01000000000000000083106132a2577a184f03e93ff9f4daa797ed6e38ed64bf6a1f010000000000000000838161329857613297614db5565b5b0492506040810190505b6d04ee2d6d415b85acef810000000083106132df576d04ee2d6d415b85acef810000000083816132d5576132d4614db5565b5b0492506020810190505b662386f26fc10000831061330e57662386f26fc10000838161330457613303614db5565b5b0492506010810190505b6305f5e1008310613337576305f5e100838161332d5761332c614db5565b5b0492506008810190505b612710831061335c57612710838161335257613351614db5565b5b0492506004810190505b6064831061337f576064838161337557613374614db5565b5b0492506002810190505b600a831061338e576001810190505b80915050919050565b6000604051905090565b600080fd5b600080fd5b60007fffffffff0000000000000000000000000000000000000000000000000000000082169050919050565b6133e0816133ab565b81146133eb57600080fd5b50565b6000813590506133fd816133d7565b92915050565b600060208284031215613419576134186133a1565b5b6000613427848285016133ee565b91505092915050565b60008115159050919050565b61344581613430565b82525050565b6000602082019050613460600083018461343c565b92915050565b600081519050919050565b600082825260208201905092915050565b60005b838110156134a0578082015181840152602081019050613485565b60008484015250505050565b6000601f19601f8301169050919050565b60006134c882613466565b6134d28185613471565b93506134e2818560208601613482565b6134eb816134ac565b840191505092915050565b6000602082019050818103600083015261351081846134bd565b905092915050565b6000819050919050565b61352b81613518565b811461353657600080fd5b50565b60008135905061354881613522565b92915050565b600060208284031215613564576135636133a1565b5b600061357284828501613539565b91505092915050565b600073ffffffffffffffffffffffffffffffffffffffff82169050919050565b60006135a68261357b565b9050919050565b6135b68161359b565b82525050565b60006020820190506135d160008301846135ad565b92915050565b6135e08161359b565b81146135eb57600080fd5b50565b6000813590506135fd816135d7565b92915050565b6000806040838503121561361a576136196133a1565b5b6000613628858286016135ee565b925050602061363985828601613539565b9150509250929050565b600080fd5b600080fd5b7f4e487b7100000000000000000000000000000000000000000000000000000000600052604160045260246000fd5b613685826134ac565b810181811067ffffffffffffffff821117156136a4576136a361364d565b5b80604052505050565b60006136b7613397565b90506136c3828261367c565b919050565b600067ffffffffffffffff8211156136e3576136e261364d565b5b6136ec826134ac565b9050602081019050919050565b82818337600083830152505050565b600061371b613716846136c8565b6136ad565b90508281526020810184848401111561373757613736613648565b5b6137428482856136f9565b509392505050565b600082601f83011261375f5761375e613643565b5b813561376f848260208601613708565b91505092915050565b60006020828403121561378e5761378d6133a1565b5b600082013567ffffffffffffffff8111156137ac576137ab6133a6565b5b6137b88482850161374a565b91505092915050565b6137ca81613518565b82525050565b60006020820190506137e560008301846137c1565b92915050565b600080600060608486031215613804576138036133a1565b5b6000613812868287016135ee565b9350506020613823868287016135ee565b925050604061383486828701613539565b9150509250925092565b600081519050919050565b600082825260208201905092915050565b6000819050602082019050919050565b61387381613518565b82525050565b600082825260208201905092915050565b600061389582613466565b61389f8185613879565b93506138af818560208601613482565b6138b8816134ac565b840191505092915050565b60006080830160008301516138db600086018261386a565b50602083015184820360208601526138f3828261388a565b9150506040830151848203604086015261390d828261388a565b91505060608301518482036060860152613927828261388a565b9150508091505092915050565b600061394083836138c3565b905092915050565b6000602082019050919050565b60006139608261383e565b61396a8185613849565b93508360208202850161397c8561385a565b8060005b858110156139b857848403895281516139998582613934565b94506139a483613948565b925060208a01995050600181019050613980565b50829750879550505050505092915050565b600060208201905081810360008301526139e48184613955565b905092915050565b600060208284031215613a0257613a016133a1565b5b6000613a10848285016135ee565b91505092915050565b60008060408385031215613a3057613a2f6133a1565b5b600083013567ffffffffffffffff811115613a4e57613a4d6133a6565b5b613a5a8582860161374a565b925050602083013567ffffffffffffffff811115613a7b57613a7a6133a6565b5b613a878582860161374a565b9150509250929050565b613a9a81613430565b8114613aa557600080fd5b50565b600081359050613ab781613a91565b92915050565b60008060408385031215613ad457613ad36133a1565b5b6000613ae2858286016135ee565b9250506020613af385828601613aa8565b9150509250929050565b600067ffffffffffffffff821115613b1857613b1761364d565b5b613b21826134ac565b9050602081019050919050565b6000613b41613b3c84613afd565b6136ad565b905082815260208101848484011115613b5d57613b5c613648565b5b613b688482856136f9565b509392505050565b600082601f830112613b8557613b84613643565b5b8135613b95848260208601613b2e565b91505092915050565b60008060008060808587031215613bb857613bb76133a1565b5b6000613bc6878288016135ee565b9450506020613bd7878288016135ee565b9350506040613be887828801613539565b925050606085013567ffffffffffffffff811115613c0957613c086133a6565b5b613c1587828801613b70565b91505092959194509250565b60008060408385031215613c3857613c376133a1565b5b6000613c46858286016135ee565b925050602083013567ffffffffffffffff811115613c6757613c666133a6565b5b613c738582860161374a565b9150509250929050565b60008060408385031215613c9457613c936133a1565b5b6000613ca2858286016135ee565b9250506020613cb3858286016135ee565b9150509250929050565b60008060408385031215613cd457613cd36133a1565b5b6000613ce285828601613539565b9250506020613cf3858286016135ee565b9150509250929050565b7f4e487b7100000000000000000000000000000000000000000000000000000000600052602260045260246000fd5b60006002820490506001821680613d4457607f821691505b602082108103613d5757613d56613cfd565b5b50919050565b7f4552433732313a20617070726f76616c20746f2063757272656e74206f776e6560008201527f7200000000000000000000000000000000000000000000000000000000000000602082015250565b6000613db9602183613471565b9150613dc482613d5d565b604082019050919050565b60006020820190508181036000830152613de881613dac565b9050919050565b7f4552433732313a20617070726f76652063616c6c6572206973206e6f7420746f60008201527f6b656e206f776e6572206f7220617070726f76656420666f7220616c6c000000602082015250565b6000613e4b603d83613471565b9150613e5682613def565b604082019050919050565b60006020820190508181036000830152613e7a81613e3e565b9050919050565b7f4e487b7100000000000000000000000000000000000000000000000000000000600052603260045260246000fd5b600081905092915050565b60008190508160005260206000209050919050565b60008154613edd81613d2c565b613ee78186613eb0565b94506001821660008114613f025760018114613f1757613f4a565b60ff1983168652811515820286019350613f4a565b613f2085613ebb565b60005b83811015613f4257815481890152600182019150602081019050613f23565b838801955050505b50505092915050565b6000613f5f8284613ed0565b915081905092915050565b6000613f7582613466565b613f7f8185613eb0565b9350613f8f818560208601613482565b80840191505092915050565b6000613fa78284613f6a565b915081905092915050565b7f4e487b7100000000000000000000000000000000000000000000000000000000600052601160045260246000fd5b6000613fec82613518565b91507fffffffffffffffffffffffffffffffffffffffffffffffffffffffffffffffff820361401e5761401d613fb2565b5b600182019050919050565b7f4552433732313a2063616c6c6572206973206e6f7420746f6b656e206f776e6560008201527f72206f7220617070726f76656400000000000000000000000000000000000000602082015250565b6000614085602d83613471565b915061409082614029565b604082019050919050565b600060208201905081810360008301526140b481614078565b9050919050565b7f455243373231456e756d657261626c653a206f776e657220696e646578206f7560008201527f74206f6620626f756e6473000000000000000000000000000000000000000000602082015250565b6000614117602b83613471565b9150614122826140bb565b604082019050919050565b600060208201905081810360008301526141468161410a565b9050919050565b7f455243373231456e756d657261626c653a20676c6f62616c20696e646578206f60008201527f7574206f6620626f756e64730000000000000000000000000000000000000000602082015250565b60006141a9602c83613471565b91506141b48261414d565b604082019050919050565b600060208201905081810360008301526141d88161419c565b9050919050565b7f4552433732313a20696e76616c696420746f6b656e2049440000000000000000600082015250565b6000614215601883613471565b9150614220826141df565b602082019050919050565b6000602082019050818103600083015261424481614208565b9050919050565b7f4552433732313a2061646472657373207a65726f206973206e6f74206120766160008201527f6c6964206f776e65720000000000000000000000000000000000000000000000602082015250565b60006142a7602983613471565b91506142b28261424b565b604082019050919050565b600060208201905081810360008301526142d68161429a565b9050919050565b60006020601f8301049050919050565b600082821b905092915050565b60006008830261432a7fffffffffffffffffffffffffffffffffffffffffffffffffffffffffffffffff826142ed565b61433486836142ed565b95508019841693508086168417925050509392505050565b6000819050919050565b600061437161436c61436784613518565b61434c565b613518565b9050919050565b6000819050919050565b61438b83614356565b61439f61439782614378565b8484546142fa565b825550505050565b600090565b6143b46143a7565b6143bf818484614382565b505050565b5b818110156143e3576143d86000826143ac565b6001810190506143c5565b5050565b601f821115614428576143f981613ebb565b614402846142dd565b81016020851015614411578190505b61442561441d856142dd565b8301826143c4565b50505b505050565b600082821c905092915050565b600061444b6000198460080261442d565b1980831691505092915050565b6000614464838361443a565b9150826002028217905092915050565b61447d82613466565b67ffffffffffffffff8111156144965761449561364d565b5b6144a08254613d2c565b6144ab8282856143e7565b600060209050601f8311600181146144de57600084156144cc578287015190505b6144d68582614458565b86555061453e565b601f1984166144ec86613ebb565b60005b82811015614514578489015182556001820191506020850194506020810190506144ef565b86831015614531578489015161452d601f89168261443a565b8355505b6001600288020188555050505b505050505050565b7f496e76616c696420746f6b656e49640000000000000000000000000000000000600082015250565b600061457c600f83613471565b915061458782614546565b602082019050919050565b600060208201905081810360008301526145ab8161456f565b9050919050565b7f43616c6c6572206973206e6f7420746865206f776e6572206f7220617070726f60008201527f7665640000000000000000000000000000000000000000000000000000000000602082015250565b600061460e602383613471565b9150614619826145b2565b604082019050919050565b6000602082019050818103600083015261463d81614601565b9050919050565b7f4f776e61626c653a206e6577206f776e657220697320746865207a65726f206160008201527f6464726573730000000000000000000000000000000000000000000000000000602082015250565b60006146a0602683613471565b91506146ab82614644565b604082019050919050565b600060208201905081810360008301526146cf81614693565b9050919050565b7f4552433732313a207472616e736665722066726f6d20696e636f72726563742060008201527f6f776e6572000000000000000000000000000000000000000000000000000000602082015250565b6000614732602583613471565b915061473d826146d6565b604082019050919050565b6000602082019050818103600083015261476181614725565b9050919050565b7f4552433732313a207472616e7366657220746f20746865207a65726f2061646460008201527f7265737300000000000000000000000000000000000000000000000000000000602082015250565b60006147c4602483613471565b91506147cf82614768565b604082019050919050565b600060208201905081810360008301526147f3816147b7565b9050919050565b7f4f776e61626c653a2063616c6c6572206973206e6f7420746865206f776e6572600082015250565b6000614830602083613471565b915061483b826147fa565b602082019050919050565b6000602082019050818103600083015261485f81614823565b9050919050565b600061487182613518565b915061487c83613518565b925082820190508082111561489457614893613fb2565b5b92915050565b60006148a582613518565b91506148b083613518565b92508282026148be81613518565b915082820484148315176148d5576148d4613fb2565b5b5092915050565b7f4552433732313a20617070726f766520746f2063616c6c657200000000000000600082015250565b6000614912601983613471565b915061491d826148dc565b602082019050919050565b6000602082019050818103600083015261494181614905565b9050919050565b7f4552433732313a207472616e7366657220746f206e6f6e20455243373231526560008201527f63656976657220696d706c656d656e7465720000000000000000000000000000602082015250565b60006149a4603283613471565b91506149af82614948565b604082019050919050565b600060208201905081810360008301526149d381614997565b9050919050565b60006149e68285613f6a565b91506149f28284613f6a565b91508190509392505050565b7f45524337323155524953746f726167653a2055524920736574206f66206e6f6e60008201527f6578697374656e7420746f6b656e000000000000000000000000000000000000602082015250565b6000614a5a602e83613471565b9150614a65826149fe565b604082019050919050565b60006020820190508181036000830152614a8981614a4d565b9050919050565b7f5061757361626c653a206e6f7420706175736564000000000000000000000000600082015250565b6000614ac6601483613471565b9150614ad182614a90565b602082019050919050565b60006020820190508181036000830152614af581614ab9565b9050919050565b7f5061757361626c653a2070617573656400000000000000000000000000000000600082015250565b6000614b32601083613471565b9150614b3d82614afc565b602082019050919050565b60006020820190508181036000830152614b6181614b25565b9050919050565b600081519050919050565b600082825260208201905092915050565b6000614b8f82614b68565b614b998185614b73565b9350614ba9818560208601613482565b614bb2816134ac565b840191505092915050565b6000608082019050614bd260008301876135ad565b614bdf60208301866135ad565b614bec60408301856137c1565b8181036060830152614bfe8184614b84565b905095945050505050565b600081519050614c18816133d7565b92915050565b600060208284031215614c3457614c336133a1565b5b6000614c4284828501614c09565b91505092915050565b7f455243373231456e756d657261626c653a20636f6e736563757469766520747260008201527f616e7366657273206e6f7420737570706f727465640000000000000000000000602082015250565b6000614ca7603583613471565b9150614cb282614c4b565b604082019050919050565b60006020820190508181036000830152614cd681614c9a565b9050919050565b7f4552433732313a206d696e7420746f20746865207a65726f2061646472657373600082015250565b6000614d13602083613471565b9150614d1e82614cdd565b602082019050919050565b60006020820190508181036000830152614d4281614d06565b9050919050565b7f4552433732313a20746f6b656e20616c7265616479206d696e74656400000000600082015250565b6000614d7f601c83613471565b9150614d8a82614d49565b602082019050919050565b60006020820190508181036000830152614dae81614d72565b9050919050565b7f4e487b7100000000000000000000000000000000000000000000000000000000600052601260045260246000fd5b6000614def82613518565b9150614dfa83613518565b9250828203905081811115614e1257614e11613fb2565b5b92915050565b7f4e487b7100000000000000000000000000000000000000000000000000000000600052603160045260246000fdfea26469706673582212204874c25ae726a8573b328e3c85f2f66483c670739adeeec191779d9ce1b945ad64736f6c63430008120033",
  "linkReferences": {},
  "deployedLinkReferences": {}
}