{
  "_format": "hh-sol-artifact-1",
  "contractName": "CSVMint",
  "sourceName": "contracts/CSVMint.sol",
  "abi": [
    {
      "inputs": [],
      "stateMutability": "nonpayable",
      "type": "constructor"
    },
    {
      "anonymous": false,
      "inputs": [
        {
          "indexed": true,
          "internalType": "address",
          "name": "owner",
          "type": "address"
        },
        {
          "indexed": true,
          "internalType": "address",
          "name": "approved",
          "type": "address"
        },
        {
          "indexed": true,
          "internalType": "uint256",
          "name": "tokenId",
          "type": "uint256"
        }
      ],
      "name": "Approval",
      "type": "event"
    },
    {
      "anonymous": false,
      "inputs": [
        {
          "indexed": true,
          "internalType": "address",
          "name": "owner",
          "type": "address"
        },
        {
          "indexed": true,
          "internalType": "address",
          "name": "operator",
          "type": "address"
        },
        {
          "indexed": false,
          "internalType": "bool",
          "name": "approved",
          "type": "bool"
        }
      ],
      "name": "ApprovalForAll",
      "type": "event"
    },
    {
      "anonymous": false,
      "inputs": [
        {
          "indexed": true,
          "internalType": "address",
          "name": "previousOwner",
          "type": "address"
        },
        {
          "indexed": true,
          "internalType": "address",
          "name": "newOwner",
          "type": "address"
        }
      ],
      "name": "OwnershipTransferred",
      "type": "event"
    },
    {
      "anonymous": false,
      "inputs": [
        {
          "indexed": false,
          "internalType": "address",
          "name": "account",
          "type": "address"
        }
      ],
      "name": "Paused",
      "type": "event"
    },
    {
      "anonymous": false,
      "inputs": [
        {
          "indexed": true,
          "internalType": "address",
          "name": "from",
          "type": "address"
        },
        {
          "indexed": true,
          "internalType": "address",
          "name": "to",
          "type": "address"
        },
        {
          "indexed": true,
          "internalType": "uint256",
          "name": "tokenId",
          "type": "uint256"
        }
      ],
      "name": "Transfer",
      "type": "event"
    },
    {
      "anonymous": false,
      "inputs": [
        {
          "indexed": false,
          "internalType": "address",
          "name": "account",
          "type": "address"
        }
      ],
      "name": "Unpaused",
      "type": "event"
    },
    {
      "inputs": [
        {
          "internalType": "address",
          "name": "to",
          "type": "address"
        },
        {
          "internalType": "uint256",
          "name": "tokenId",
          "type": "uint256"
        }
      ],
      "name": "approve",
      "outputs": [],
      "stateMutability": "nonpayable",
      "type": "function"
    },
    {
      "inputs": [
        {
          "internalType": "address",
          "name": "owner",
          "type": "address"
        }
      ],
      "name": "balanceOf",
      "outputs": [
        {
          "internalType": "uint256",
          "name": "",
          "type": "uint256"
        }
      ],
      "stateMutability": "view",
      "type": "function"
    },
    {
      "inputs": [
        {
          "internalType": "uint256",
          "name": "tokenId",
          "type": "uint256"
        }
      ],
      "name": "getApproved",
      "outputs": [
        {
          "internalType": "address",
          "name": "",
          "type": "address"
        }
      ],
      "stateMutability": "view",
      "type": "function"
    },
    {
      "inputs": [
        {
          "internalType": "address",
          "name": "owner",
          "type": "address"
        },
        {
          "internalType": "address",
          "name": "operator",
          "type": "address"
        }
      ],
      "name": "isApprovedForAll",
      "outputs": [
        {
          "internalType": "bool",
          "name": "",
          "type": "bool"
        }
      ],
      "stateMutability": "view",
      "type": "function"
    },
    {
      "inputs": [
        {
          "internalType": "string",
          "name": "csvHash",
          "type": "string"
        }
      ],
      "name": "mintCSV",
      "outputs": [],
      "stateMutability": "nonpayable",
      "type": "function"
    },
    {
      "inputs": [],
      "name": "name",
      "outputs": [
        {
          "internalType": "string",
          "name": "",
          "type": "string"
        }
      ],
      "stateMutability": "view",
      "type": "function"
    },
    {
      "inputs": [],
      "name": "owner",
      "outputs": [
        {
          "internalType": "address",
          "name": "",
          "type": "address"
        }
      ],
      "stateMutability": "view",
      "type": "function"
    },
    {
      "inputs": [
        {
          "internalType": "uint256",
          "name": "tokenId",
          "type": "uint256"
        }
      ],
      "name": "ownerOf",
      "outputs": [
        {
          "internalType": "address",
          "name": "",
          "type": "address"
        }
      ],
      "stateMutability": "view",
      "type": "function"
    },
    {
      "inputs": [],
      "name": "pause",
      "outputs": [],
      "stateMutability": "nonpayable",
      "type": "function"
    },
    {
      "inputs": [],
      "name": "paused",
      "outputs": [
        {
          "internalType": "bool",
          "name": "",
          "type": "bool"
        }
      ],
      "stateMutability": "view",
      "type": "function"
    },
    {
      "inputs": [],
      "name": "renounceOwnership",
      "outputs": [],
      "stateMutability": "nonpayable",
      "type": "function"
    },
    {
      "inputs": [
        {
          "internalType": "address",
          "name": "to",
          "type": "address"
        },
        {
          "internalType": "string",
          "name": "uri",
          "type": "string"
        }
      ],
      "name": "safeMint",
      "outputs": [],
      "stateMutability": "nonpayable",
      "type": "function"
    },
    {
      "inputs": [
        {
          "internalType": "address",
          "name": "from",
          "type": "address"
        },
        {
          "internalType": "address",
          "name": "to",
          "type": "address"
        },
        {
          "internalType": "uint256",
          "name": "tokenId",
          "type": "uint256"
        }
      ],
      "name": "safeTransferFrom",
      "outputs": [],
      "stateMutability": "nonpayable",
      "type": "function"
    },
    {
      "inputs": [
        {
          "internalType": "address",
          "name": "from",
          "type": "address"
        },
        {
          "internalType": "address",
          "name": "to",
          "type": "address"
        },
        {
          "internalType": "uint256",
          "name": "tokenId",
          "type": "uint256"
        },
        {
          "internalType": "bytes",
          "name": "data",
          "type": "bytes"
        }
      ],
      "name": "safeTransferFrom",
      "outputs": [],
      "stateMutability": "nonpayable",
      "type": "function"
    },
    {
      "inputs": [
        {
          "internalType": "address",
          "name": "operator",
          "type": "address"
        },
        {
          "internalType": "bool",
          "name": "approved",
          "type": "bool"
        }
      ],
      "name": "setApprovalForAll",
      "outputs": [],
      "stateMutability": "nonpayable",
      "type": "function"
    },
    {
      "inputs": [
        {
          "internalType": "bytes4",
          "name": "interfaceId",
          "type": "bytes4"
        }
      ],
      "name": "supportsInterface",
      "outputs": [
        {
          "internalType": "bool",
          "name": "",
          "type": "bool"
        }
      ],
      "stateMutability": "view",
      "type": "function"
    },
    {
      "inputs": [],
      "name": "symbol",
      "outputs": [
        {
          "internalType": "string",
          "name": "",
          "type": "string"
        }
      ],
      "stateMutability": "view",
      "type": "function"
    },
    {
      "inputs": [
        {
          "internalType": "uint256",
          "name": "index",
          "type": "uint256"
        }
      ],
      "name": "tokenByIndex",
      "outputs": [
        {
          "internalType": "uint256",
          "name": "",
          "type": "uint256"
        }
      ],
      "stateMutability": "view",
      "type": "function"
    },
    {
      "inputs": [
        {
          "internalType": "address",
          "name": "owner",
          "type": "address"
        },
        {
          "internalType": "uint256",
          "name": "index",
          "type": "uint256"
        }
      ],
      "name": "tokenOfOwnerByIndex",
      "outputs": [
        {
          "internalType": "uint256",
          "name": "",
          "type": "uint256"
        }
      ],
      "stateMutability": "view",
      "type": "function"
    },
    {
      "inputs": [
        {
          "internalType": "uint256",
          "name": "tokenId",
          "type": "uint256"
        }
      ],
      "name": "tokenURI",
      "outputs": [
        {
          "internalType": "string",
          "name": "",
          "type": "string"
        }
      ],
      "stateMutability": "view",
      "type": "function"
    },
    {
      "inputs": [],
      "name": "totalSupply",
      "outputs": [
        {
          "internalType": "uint256",
          "name": "",
          "type": "uint256"
        }
      ],
      "stateMutability": "view",
      "type": "function"
    },
    {
      "inputs": [
        {
          "internalType": "address",
          "name": "from",
          "type": "address"
        },
        {
          "internalType": "address",
          "name": "to",
          "type": "address"
        },
        {
          "internalType": "uint256",
          "name": "tokenId",
          "type": "uint256"
        }
      ],
      "name": "transferFrom",
      "outputs": [],
      "stateMutability": "nonpayable",
      "type": "function"
    },
    {
      "inputs": [
        {
          "internalType": "address",
          "name": "newOwner",
          "type": "address"
        }
      ],
      "name": "transferOwnership",
      "outputs": [],
      "stateMutability": "nonpayable",
      "type": "function"
    },
    {
      "inputs": [],
      "name": "unpause",
      "outputs": [],
      "stateMutability": "nonpayable",
      "type": "function"
    }
  ],
  "bytecode": "0x60806040523480156200001157600080fd5b506040518060400160405280600781526020017f4353564d696e74000000000000000000000000000000000000000000000000008152506040518060400160405280600381526020017f435356000000000000000000000000000000000000000000000000000000000081525081600090816200008f91906200042d565b508060019081620000a191906200042d565b5050506000600b60006101000a81548160ff021916908315150217905550620000df620000d3620000e560201b60201c565b620000ed60201b60201c565b62000514565b600033905090565b6000600b60019054906101000a900473ffffffffffffffffffffffffffffffffffffffff16905081600b60016101000a81548173ffffffffffffffffffffffffffffffffffffffff021916908373ffffffffffffffffffffffffffffffffffffffff1602179055508173ffffffffffffffffffffffffffffffffffffffff168173ffffffffffffffffffffffffffffffffffffffff167f8be0079c531659141344cd1fd0a4f28419497f9722a3daafe3b4186f6b6457e060405160405180910390a35050565b600081519050919050565b7f4e487b7100000000000000000000000000000000000000000000000000000000600052604160045260246000fd5b7f4e487b7100000000000000000000000000000000000000000000000000000000600052602260045260246000fd5b600060028204905060018216806200023557607f821691505b6020821081036200024b576200024a620001ed565b5b50919050565b60008190508160005260206000209050919050565b60006020601f8301049050919050565b600082821b905092915050565b600060088302620002b57fffffffffffffffffffffffffffffffffffffffffffffffffffffffffffffffff8262000276565b620002c1868362000276565b95508019841693508086168417925050509392505050565b6000819050919050565b6000819050919050565b60006200030e620003086200030284620002d9565b620002e3565b620002d9565b9050919050565b6000819050919050565b6200032a83620002ed565b62000342620003398262000315565b84845462000283565b825550505050565b600090565b620003596200034a565b620003668184846200031f565b505050565b5b818110156200038e57620003826000826200034f565b6001810190506200036c565b5050565b601f821115620003dd57620003a78162000251565b620003b28462000266565b81016020851015620003c2578190505b620003da620003d18562000266565b8301826200036b565b50505b505050565b600082821c905092915050565b60006200040260001984600802620003e2565b1980831691505092915050565b60006200041d8383620003ef565b9150826002028217905092915050565b6200043882620001b3565b67ffffffffffffffff811115620004545762000453620001be565b5b6200046082546200021c565b6200046d82828562000392565b600060209050601f831160018114620004a5576000841562000490578287015190505b6200049c85826200040f565b8655506200050c565b601f198416620004b58662000251565b60005b82811015620004df57848901518255600182019150602085019450602081019050620004b8565b86831015620004ff5784890151620004fb601f891682620003ef565b8355505b6001600288020188555050505b505050505050565b613ac080620005246000396000f3fe608060405234801561001057600080fd5b50600436106101585760003560e01c806370a08231116100c3578063b88d4fde1161007c578063b88d4fde146103a1578063c87b56dd146103bd578063d204c45e146103ed578063d464b3aa14610409578063e985e9c514610425578063f2fde38b1461045557610158565b806370a0823114610305578063715018a6146103355780638456cb591461033f5780638da5cb5b1461034957806395d89b4114610367578063a22cb4651461038557610158565b80632f745c59116101155780632f745c59146102315780633f4ba83a1461026157806342842e0e1461026b5780634f6ccce7146102875780635c975abb146102b75780636352211e146102d557610158565b806301ffc9a71461015d57806306fdde031461018d578063081812fc146101ab578063095ea7b3146101db57806318160ddd146101f757806323b872dd14610215575b600080fd5b61017760048036038101906101729190612519565b610471565b6040516101849190612561565b60405180910390f35b610195610483565b6040516101a2919061260c565b60405180910390f35b6101c560048036038101906101c09190612664565b610515565b6040516101d291906126d2565b60405180910390f35b6101f560048036038101906101f09190612719565b61055b565b005b6101ff610672565b60405161020c9190612768565b60405180910390f35b61022f600480360381019061022a9190612783565b61067f565b005b61024b60048036038101906102469190612719565b6106df565b6040516102589190612768565b60405180910390f35b610269610784565b005b61028560048036038101906102809190612783565b610796565b005b6102a1600480360381019061029c9190612664565b6107b6565b6040516102ae9190612768565b60405180910390f35b6102bf610827565b6040516102cc9190612561565b60405180910390f35b6102ef60048036038101906102ea9190612664565b61083e565b6040516102fc91906126d2565b60405180910390f35b61031f600480360381019061031a91906127d6565b6108c4565b60405161032c9190612768565b60405180910390f35b61033d61097b565b005b61034761098f565b005b6103516109a1565b60405161035e91906126d2565b60405180910390f35b61036f6109cb565b60405161037c919061260c565b60405180910390f35b61039f600480360381019061039a919061282f565b610a5d565b005b6103bb60048036038101906103b691906129a4565b610a73565b005b6103d760048036038101906103d29190612664565b610ad5565b6040516103e4919061260c565b60405180910390f35b61040760048036038101906104029190612ac8565b610ae7565b005b610423600480360381019061041e9190612b24565b610b20565b005b61043f600480360381019061043a9190612b6d565b610b46565b60405161044c9190612561565b60405180910390f35b61046f600480360381019061046a91906127d6565b610bda565b005b600061047c82610c5d565b9050919050565b60606000805461049290612bdc565b80601f01602080910402602001604051908101604052809291908181526020018280546104be90612bdc565b801561050b5780601f106104e05761010080835404028352916020019161050b565b820191906000526020600020905b8154815290600101906020018083116104ee57829003601f168201915b5050505050905090565b600061052082610cd7565b6004600083815260200190815260200160002060009054906101000a900473ffffffffffffffffffffffffffffffffffffffff169050919050565b60006105668261083e565b90508073ffffffffffffffffffffffffffffffffffffffff168373ffffffffffffffffffffffffffffffffffffffff16036105d6576040517f08c379a00000000000000000000000000000000000000000000000000000000081526004016105cd90612c7f565b60405180910390fd5b8073ffffffffffffffffffffffffffffffffffffffff166105f5610d22565b73ffffffffffffffffffffffffffffffffffffffff16148061062457506106238161061e610d22565b610b46565b5b610663576040517f08c379a000000000000000000000000000000000000000000000000000000000815260040161065a90612d11565b60405180910390fd5b61066d8383610d2a565b505050565b6000600880549050905090565b61069061068a610d22565b82610de3565b6106cf576040517f08c379a00000000000000000000000000000000000000000000000000000000081526004016106c690612da3565b60405180910390fd5b6106da838383610e78565b505050565b60006106ea836108c4565b821061072b576040517f08c379a000000000000000000000000000000000000000000000000000000000815260040161072290612e35565b60405180910390fd5b600660008473ffffffffffffffffffffffffffffffffffffffff1673ffffffffffffffffffffffffffffffffffffffff168152602001908152602001600020600083815260200190815260200160002054905092915050565b61078c611171565b6107946111ef565b565b6107b183838360405180602001604052806000815250610a73565b505050565b60006107c0610672565b8210610801576040517f08c379a00000000000000000000000000000000000000000000000000000000081526004016107f890612ec7565b60405180910390fd5b6008828154811061081557610814612ee7565b5b90600052602060002001549050919050565b6000600b60009054906101000a900460ff16905090565b60008061084a83611252565b9050600073ffffffffffffffffffffffffffffffffffffffff168173ffffffffffffffffffffffffffffffffffffffff16036108bb576040517f08c379a00000000000000000000000000000000000000000000000000000000081526004016108b290612f62565b60405180910390fd5b80915050919050565b60008073ffffffffffffffffffffffffffffffffffffffff168273ffffffffffffffffffffffffffffffffffffffff1603610934576040517f08c379a000000000000000000000000000000000000000000000000000000000815260040161092b90612ff4565b60405180910390fd5b600360008373ffffffffffffffffffffffffffffffffffffffff1673ffffffffffffffffffffffffffffffffffffffff168152602001908152602001600020549050919050565b610983611171565b61098d600061128f565b565b610997611171565b61099f611355565b565b6000600b60019054906101000a900473ffffffffffffffffffffffffffffffffffffffff16905090565b6060600180546109da90612bdc565b80601f0160208091040260200160405190810160405280929190818152602001828054610a0690612bdc565b8015610a535780601f10610a2857610100808354040283529160200191610a53565b820191906000526020600020905b815481529060010190602001808311610a3657829003601f168201915b5050505050905090565b610a6f610a68610d22565b83836113b8565b5050565b610a84610a7e610d22565b83610de3565b610ac3576040517f08c379a0000000000000000000000000000000000000000000000000000000008152600401610aba90612da3565b60405180910390fd5b610acf84848484611524565b50505050565b6060610ae082611580565b9050919050565b610aef611171565b6000610afb600c611692565b9050610b07600c6116a0565b610b1183826116b6565b610b1b81836116d4565b505050565b6000610b2c600c611692565b9050610b38600c6116a0565b610b4233826116b6565b5050565b6000600560008473ffffffffffffffffffffffffffffffffffffffff1673ffffffffffffffffffffffffffffffffffffffff16815260200190815260200160002060008373ffffffffffffffffffffffffffffffffffffffff1673ffffffffffffffffffffffffffffffffffffffff16815260200190815260200160002060009054906101000a900460ff16905092915050565b610be2611171565b600073ffffffffffffffffffffffffffffffffffffffff168173ffffffffffffffffffffffffffffffffffffffff1603610c51576040517f08c379a0000000000000000000000000000000000000000000000000000000008152600401610c4890613086565b60405180910390fd5b610c5a8161128f565b50565b60007f780e9d63000000000000000000000000000000000000000000000000000000007bffffffffffffffffffffffffffffffffffffffffffffffffffffffff1916827bffffffffffffffffffffffffffffffffffffffffffffffffffffffff19161480610cd05750610ccf82611741565b5b9050919050565b610ce081611823565b610d1f576040517f08c379a0000000000000000000000000000000000000000000000000000000008152600401610d1690612f62565b60405180910390fd5b50565b600033905090565b816004600083815260200190815260200160002060006101000a81548173ffffffffffffffffffffffffffffffffffffffff021916908373ffffffffffffffffffffffffffffffffffffffff160217905550808273ffffffffffffffffffffffffffffffffffffffff16610d9d8361083e565b73ffffffffffffffffffffffffffffffffffffffff167f8c5be1e5ebec7d5bd14f71427d1e84f3dd0314c0f7b2291e5b200ac8c7c3b92560405160405180910390a45050565b600080610def8361083e565b90508073ffffffffffffffffffffffffffffffffffffffff168473ffffffffffffffffffffffffffffffffffffffff161480610e315750610e308185610b46565b5b80610e6f57508373ffffffffffffffffffffffffffffffffffffffff16610e5784610515565b73ffffffffffffffffffffffffffffffffffffffff16145b91505092915050565b8273ffffffffffffffffffffffffffffffffffffffff16610e988261083e565b73ffffffffffffffffffffffffffffffffffffffff1614610eee576040517f08c379a0000000000000000000000000000000000000000000000000000000008152600401610ee590613118565b60405180910390fd5b600073ffffffffffffffffffffffffffffffffffffffff168273ffffffffffffffffffffffffffffffffffffffff1603610f5d576040517f08c379a0000000000000000000000000000000000000000000000000000000008152600401610f54906131aa565b60405180910390fd5b610f6a8383836001611864565b8273ffffffffffffffffffffffffffffffffffffffff16610f8a8261083e565b73ffffffffffffffffffffffffffffffffffffffff1614610fe0576040517f08c379a0000000000000000000000000000000000000000000000000000000008152600401610fd790613118565b60405180910390fd5b6004600082815260200190815260200160002060006101000a81549073ffffffffffffffffffffffffffffffffffffffff02191690556001600360008573ffffffffffffffffffffffffffffffffffffffff1673ffffffffffffffffffffffffffffffffffffffff168152602001908152602001600020600082825403925050819055506001600360008473ffffffffffffffffffffffffffffffffffffffff1673ffffffffffffffffffffffffffffffffffffffff16815260200190815260200160002060008282540192505081905550816002600083815260200190815260200160002060006101000a81548173ffffffffffffffffffffffffffffffffffffffff021916908373ffffffffffffffffffffffffffffffffffffffff160217905550808273ffffffffffffffffffffffffffffffffffffffff168473ffffffffffffffffffffffffffffffffffffffff167fddf252ad1be2c89b69c2b068fc378daa952ba7f163c4a11628f55a4df523b3ef60405160405180910390a461116c838383600161187e565b505050565b611179610d22565b73ffffffffffffffffffffffffffffffffffffffff166111976109a1565b73ffffffffffffffffffffffffffffffffffffffff16146111ed576040517f08c379a00000000000000000000000000000000000000000000000000000000081526004016111e490613216565b60405180910390fd5b565b6111f7611884565b6000600b60006101000a81548160ff0219169083151502179055507f5db9ee0a495bf2e6ff9c91a7834c1ba4fdd244a5e8aa4e537bd38aeae4b073aa61123b610d22565b60405161124891906126d2565b60405180910390a1565b60006002600083815260200190815260200160002060009054906101000a900473ffffffffffffffffffffffffffffffffffffffff169050919050565b6000600b60019054906101000a900473ffffffffffffffffffffffffffffffffffffffff16905081600b60016101000a81548173ffffffffffffffffffffffffffffffffffffffff021916908373ffffffffffffffffffffffffffffffffffffffff1602179055508173ffffffffffffffffffffffffffffffffffffffff168173ffffffffffffffffffffffffffffffffffffffff167f8be0079c531659141344cd1fd0a4f28419497f9722a3daafe3b4186f6b6457e060405160405180910390a35050565b61135d6118cd565b6001600b60006101000a81548160ff0219169083151502179055507f62e78cea01bee320cd4e420270b5ea74000d11b0c9f74754ebdbfc544b05a2586113a1610d22565b6040516113ae91906126d2565b60405180910390a1565b8173ffffffffffffffffffffffffffffffffffffffff168373ffffffffffffffffffffffffffffffffffffffff1603611426576040517f08c379a000000000000000000000000000000000000000000000000000000000815260040161141d90613282565b60405180910390fd5b80600560008573ffffffffffffffffffffffffffffffffffffffff1673ffffffffffffffffffffffffffffffffffffffff16815260200190815260200160002060008473ffffffffffffffffffffffffffffffffffffffff1673ffffffffffffffffffffffffffffffffffffffff16815260200190815260200160002060006101000a81548160ff0219169083151502179055508173ffffffffffffffffffffffffffffffffffffffff168373ffffffffffffffffffffffffffffffffffffffff167f17307eab39ab6107e8899845ad3d59bd9653f200f220920489ca2b5937696c31836040516115179190612561565b60405180910390a3505050565b61152f848484610e78565b61153b84848484611917565b61157a576040517f08c379a000000000000000000000000000000000000000000000000000000000815260040161157190613314565b60405180910390fd5b50505050565b606061158b82610cd7565b6000600a600084815260200190815260200160002080546115ab90612bdc565b80601f01602080910402602001604051908101604052809291908181526020018280546115d790612bdc565b80156116245780601f106115f957610100808354040283529160200191611624565b820191906000526020600020905b81548152906001019060200180831161160757829003601f168201915b505050505090506000611635611a9e565b9050600081510361164a57819250505061168d565b60008251111561167f578082604051602001611667929190613370565b6040516020818303038152906040529250505061168d565b61168884611ab5565b925050505b919050565b600081600001549050919050565b6001816000016000828254019250508190555050565b6116d0828260405180602001604052806000815250611b1d565b5050565b6116dd82611823565b61171c576040517f08c379a000000000000000000000000000000000000000000000000000000000815260040161171390613406565b60405180910390fd5b80600a6000848152602001908152602001600020908161173c91906135d2565b505050565b60007f80ac58cd000000000000000000000000000000000000000000000000000000007bffffffffffffffffffffffffffffffffffffffffffffffffffffffff1916827bffffffffffffffffffffffffffffffffffffffffffffffffffffffff1916148061180c57507f5b5e139f000000000000000000000000000000000000000000000000000000007bffffffffffffffffffffffffffffffffffffffffffffffffffffffff1916827bffffffffffffffffffffffffffffffffffffffffffffffffffffffff1916145b8061181c575061181b82611b78565b5b9050919050565b60008073ffffffffffffffffffffffffffffffffffffffff1661184583611252565b73ffffffffffffffffffffffffffffffffffffffff1614159050919050565b61186c6118cd565b61187884848484611be2565b50505050565b50505050565b61188c610827565b6118cb576040517f08c379a00000000000000000000000000000000000000000000000000000000081526004016118c2906136f0565b60405180910390fd5b565b6118d5610827565b15611915576040517f08c379a000000000000000000000000000000000000000000000000000000000815260040161190c9061375c565b60405180910390fd5b565b60006119388473ffffffffffffffffffffffffffffffffffffffff16611d40565b15611a91578373ffffffffffffffffffffffffffffffffffffffff1663150b7a02611961610d22565b8786866040518563ffffffff1660e01b815260040161198394939291906137d1565b6020604051808303816000875af19250505080156119bf57506040513d601f19601f820116820180604052508101906119bc9190613832565b60015b611a41573d80600081146119ef576040519150601f19603f3d011682016040523d82523d6000602084013e6119f4565b606091505b506000815103611a39576040517f08c379a0000000000000000000000000000000000000000000000000000000008152600401611a3090613314565b60405180910390fd5b805181602001fd5b63150b7a0260e01b7bffffffffffffffffffffffffffffffffffffffffffffffffffffffff1916817bffffffffffffffffffffffffffffffffffffffffffffffffffffffff191614915050611a96565b600190505b949350505050565b606060405180602001604052806000815250905090565b6060611ac082610cd7565b6000611aca611a9e565b90506000815111611aea5760405180602001604052806000815250611b15565b80611af484611d63565b604051602001611b05929190613370565b6040516020818303038152906040525b915050919050565b611b278383611e31565b611b346000848484611917565b611b73576040517f08c379a0000000000000000000000000000000000000000000000000000000008152600401611b6a90613314565b60405180910390fd5b505050565b60007f01ffc9a7000000000000000000000000000000000000000000000000000000007bffffffffffffffffffffffffffffffffffffffffffffffffffffffff1916827bffffffffffffffffffffffffffffffffffffffffffffffffffffffff1916149050919050565b611bee8484848461204e565b6001811115611c32576040517f08c379a0000000000000000000000000000000000000000000000000000000008152600401611c29906138d1565b60405180910390fd5b6000829050600073ffffffffffffffffffffffffffffffffffffffff168573ffffffffffffffffffffffffffffffffffffffff1603611c7957611c7481612054565b611cb8565b8373ffffffffffffffffffffffffffffffffffffffff168573ffffffffffffffffffffffffffffffffffffffff1614611cb757611cb6858261209d565b5b5b600073ffffffffffffffffffffffffffffffffffffffff168473ffffffffffffffffffffffffffffffffffffffff1603611cfa57611cf58161220a565b611d39565b8473ffffffffffffffffffffffffffffffffffffffff168473ffffffffffffffffffffffffffffffffffffffff1614611d3857611d3784826122db565b5b5b5050505050565b6000808273ffffffffffffffffffffffffffffffffffffffff163b119050919050565b606060006001611d728461235a565b01905060008167ffffffffffffffff811115611d9157611d90612879565b5b6040519080825280601f01601f191660200182016040528015611dc35781602001600182028036833780820191505090505b509050600082602001820190505b600115611e26578080600190039150507f3031323334353637383961626364656600000000000000000000000000000000600a86061a8153600a8581611e1a57611e196138f1565b5b04945060008503611dd1575b819350505050919050565b600073ffffffffffffffffffffffffffffffffffffffff168273ffffffffffffffffffffffffffffffffffffffff1603611ea0576040517f08c379a0000000000000000000000000000000000000000000000000000000008152600401611e979061396c565b60405180910390fd5b611ea981611823565b15611ee9576040517f08c379a0000000000000000000000000000000000000000000000000000000008152600401611ee0906139d8565b60405180910390fd5b611ef7600083836001611864565b611f0081611823565b15611f40576040517f08c379a0000000000000000000000000000000000000000000000000000000008152600401611f37906139d8565b60405180910390fd5b6001600360008473ffffffffffffffffffffffffffffffffffffffff1673ffffffffffffffffffffffffffffffffffffffff16815260200190815260200160002060008282540192505081905550816002600083815260200190815260200160002060006101000a81548173ffffffffffffffffffffffffffffffffffffffff021916908373ffffffffffffffffffffffffffffffffffffffff160217905550808273ffffffffffffffffffffffffffffffffffffffff16600073ffffffffffffffffffffffffffffffffffffffff167fddf252ad1be2c89b69c2b068fc378daa952ba7f163c4a11628f55a4df523b3ef60405160405180910390a461204a60008383600161187e565b5050565b50505050565b6008805490506009600083815260200190815260200160002081905550600881908060018154018082558091505060019003906000526020600020016000909190919091505550565b600060016120aa846108c4565b6120b49190613a27565b9050600060076000848152602001908152602001600020549050818114612199576000600660008673ffffffffffffffffffffffffffffffffffffffff1673ffffffffffffffffffffffffffffffffffffffff168152602001908152602001600020600084815260200190815260200160002054905080600660008773ffffffffffffffffffffffffffffffffffffffff1673ffffffffffffffffffffffffffffffffffffffff168152602001908152602001600020600084815260200190815260200160002081905550816007600083815260200190815260200160002081905550505b6007600084815260200190815260200160002060009055600660008573ffffffffffffffffffffffffffffffffffffffff1673ffffffffffffffffffffffffffffffffffffffff16815260200190815260200160002060008381526020019081526020016000206000905550505050565b6000600160088054905061221e9190613a27565b905060006009600084815260200190815260200160002054905060006008838154811061224e5761224d612ee7565b5b9060005260206000200154905080600883815481106122705761226f612ee7565b5b9060005260206000200181905550816009600083815260200190815260200160002081905550600960008581526020019081526020016000206000905560088054806122bf576122be613a5b565b5b6001900381819060005260206000200160009055905550505050565b60006122e6836108c4565b905081600660008573ffffffffffffffffffffffffffffffffffffffff1673ffffffffffffffffffffffffffffffffffffffff168152602001908152602001600020600083815260200190815260200160002081905550806007600084815260200190815260200160002081905550505050565b600080600090507a184f03e93ff9f4daa797ed6e38ed64bf6a1f01000000000000000083106123b8577a184f03e93ff9f4daa797ed6e38ed64bf6a1f01000000000000000083816123ae576123ad6138f1565b5b0492506040810190505b6d04ee2d6d415b85acef810000000083106123f5576d04ee2d6d415b85acef810000000083816123eb576123ea6138f1565b5b0492506020810190505b662386f26fc10000831061242457662386f26fc10000838161241a576124196138f1565b5b0492506010810190505b6305f5e100831061244d576305f5e1008381612443576124426138f1565b5b0492506008810190505b6127108310612472576127108381612468576124676138f1565b5b0492506004810190505b60648310612495576064838161248b5761248a6138f1565b5b0492506002810190505b600a83106124a4576001810190505b80915050919050565b6000604051905090565b600080fd5b600080fd5b60007fffffffff0000000000000000000000000000000000000000000000000000000082169050919050565b6124f6816124c1565b811461250157600080fd5b50565b600081359050612513816124ed565b92915050565b60006020828403121561252f5761252e6124b7565b5b600061253d84828501612504565b91505092915050565b60008115159050919050565b61255b81612546565b82525050565b60006020820190506125766000830184612552565b92915050565b600081519050919050565b600082825260208201905092915050565b60005b838110156125b657808201518184015260208101905061259b565b60008484015250505050565b6000601f19601f8301169050919050565b60006125de8261257c565b6125e88185612587565b93506125f8818560208601612598565b612601816125c2565b840191505092915050565b6000602082019050818103600083015261262681846125d3565b905092915050565b6000819050919050565b6126418161262e565b811461264c57600080fd5b50565b60008135905061265e81612638565b92915050565b60006020828403121561267a576126796124b7565b5b60006126888482850161264f565b91505092915050565b600073ffffffffffffffffffffffffffffffffffffffff82169050919050565b60006126bc82612691565b9050919050565b6126cc816126b1565b82525050565b60006020820190506126e760008301846126c3565b92915050565b6126f6816126b1565b811461270157600080fd5b50565b600081359050612713816126ed565b92915050565b600080604083850312156127305761272f6124b7565b5b600061273e85828601612704565b925050602061274f8582860161264f565b9150509250929050565b6127628161262e565b82525050565b600060208201905061277d6000830184612759565b92915050565b60008060006060848603121561279c5761279b6124b7565b5b60006127aa86828701612704565b93505060206127bb86828701612704565b92505060406127cc8682870161264f565b9150509250925092565b6000602082840312156127ec576127eb6124b7565b5b60006127fa84828501612704565b91505092915050565b61280c81612546565b811461281757600080fd5b50565b60008135905061282981612803565b92915050565b60008060408385031215612846576128456124b7565b5b600061285485828601612704565b92505060206128658582860161281a565b9150509250929050565b600080fd5b600080fd5b7f4e487b7100000000000000000000000000000000000000000000000000000000600052604160045260246000fd5b6128b1826125c2565b810181811067ffffffffffffffff821117156128d0576128cf612879565b5b80604052505050565b60006128e36124ad565b90506128ef82826128a8565b919050565b600067ffffffffffffffff82111561290f5761290e612879565b5b612918826125c2565b9050602081019050919050565b82818337600083830152505050565b6000612947612942846128f4565b6128d9565b90508281526020810184848401111561296357612962612874565b5b61296e848285612925565b509392505050565b600082601f83011261298b5761298a61286f565b5b813561299b848260208601612934565b91505092915050565b600080600080608085870312156129be576129bd6124b7565b5b60006129cc87828801612704565b94505060206129dd87828801612704565b93505060406129ee8782880161264f565b925050606085013567ffffffffffffffff811115612a0f57612a0e6124bc565b5b612a1b87828801612976565b91505092959194509250565b600067ffffffffffffffff821115612a4257612a41612879565b5b612a4b826125c2565b9050602081019050919050565b6000612a6b612a6684612a27565b6128d9565b905082815260208101848484011115612a8757612a86612874565b5b612a92848285612925565b509392505050565b600082601f830112612aaf57612aae61286f565b5b8135612abf848260208601612a58565b91505092915050565b60008060408385031215612adf57612ade6124b7565b5b6000612aed85828601612704565b925050602083013567ffffffffffffffff811115612b0e57612b0d6124bc565b5b612b1a85828601612a9a565b9150509250929050565b600060208284031215612b3a57612b396124b7565b5b600082013567ffffffffffffffff811115612b5857612b576124bc565b5b612b6484828501612a9a565b91505092915050565b60008060408385031215612b8457612b836124b7565b5b6000612b9285828601612704565b9250506020612ba385828601612704565b9150509250929050565b7f4e487b7100000000000000000000000000000000000000000000000000000000600052602260045260246000fd5b60006002820490506001821680612bf457607f821691505b602082108103612c0757612c06612bad565b5b50919050565b7f4552433732313a20617070726f76616c20746f2063757272656e74206f776e6560008201527f7200000000000000000000000000000000000000000000000000000000000000602082015250565b6000612c69602183612587565b9150612c7482612c0d565b604082019050919050565b60006020820190508181036000830152612c9881612c5c565b9050919050565b7f4552433732313a20617070726f76652063616c6c6572206973206e6f7420746f60008201527f6b656e206f776e6572206f7220617070726f76656420666f7220616c6c000000602082015250565b6000612cfb603d83612587565b9150612d0682612c9f565b604082019050919050565b60006020820190508181036000830152612d2a81612cee565b9050919050565b7f4552433732313a2063616c6c6572206973206e6f7420746f6b656e206f776e6560008201527f72206f7220617070726f76656400000000000000000000000000000000000000602082015250565b6000612d8d602d83612587565b9150612d9882612d31565b604082019050919050565b60006020820190508181036000830152612dbc81612d80565b9050919050565b7f455243373231456e756d657261626c653a206f776e657220696e646578206f7560008201527f74206f6620626f756e6473000000000000000000000000000000000000000000602082015250565b6000612e1f602b83612587565b9150612e2a82612dc3565b604082019050919050565b60006020820190508181036000830152612e4e81612e12565b9050919050565b7f455243373231456e756d657261626c653a20676c6f62616c20696e646578206f60008201527f7574206f6620626f756e64730000000000000000000000000000000000000000602082015250565b6000612eb1602c83612587565b9150612ebc82612e55565b604082019050919050565b60006020820190508181036000830152612ee081612ea4565b9050919050565b7f4e487b7100000000000000000000000000000000000000000000000000000000600052603260045260246000fd5b7f4552433732313a20696e76616c696420746f6b656e2049440000000000000000600082015250565b6000612f4c601883612587565b9150612f5782612f16565b602082019050919050565b60006020820190508181036000830152612f7b81612f3f565b9050919050565b7f4552433732313a2061646472657373207a65726f206973206e6f74206120766160008201527f6c6964206f776e65720000000000000000000000000000000000000000000000602082015250565b6000612fde602983612587565b9150612fe982612f82565b604082019050919050565b6000602082019050818103600083015261300d81612fd1565b9050919050565b7f4f776e61626c653a206e6577206f776e657220697320746865207a65726f206160008201527f6464726573730000000000000000000000000000000000000000000000000000602082015250565b6000613070602683612587565b915061307b82613014565b604082019050919050565b6000602082019050818103600083015261309f81613063565b9050919050565b7f4552433732313a207472616e736665722066726f6d20696e636f72726563742060008201527f6f776e6572000000000000000000000000000000000000000000000000000000602082015250565b6000613102602583612587565b915061310d826130a6565b604082019050919050565b60006020820190508181036000830152613131816130f5565b9050919050565b7f4552433732313a207472616e7366657220746f20746865207a65726f2061646460008201527f7265737300000000000000000000000000000000000000000000000000000000602082015250565b6000613194602483612587565b915061319f82613138565b604082019050919050565b600060208201905081810360008301526131c381613187565b9050919050565b7f4f776e61626c653a2063616c6c6572206973206e6f7420746865206f776e6572600082015250565b6000613200602083612587565b915061320b826131ca565b602082019050919050565b6000602082019050818103600083015261322f816131f3565b9050919050565b7f4552433732313a20617070726f766520746f2063616c6c657200000000000000600082015250565b600061326c601983612587565b915061327782613236565b602082019050919050565b6000602082019050818103600083015261329b8161325f565b9050919050565b7f4552433732313a207472616e7366657220746f206e6f6e20455243373231526560008201527f63656976657220696d706c656d656e7465720000000000000000000000000000602082015250565b60006132fe603283612587565b9150613309826132a2565b604082019050919050565b6000602082019050818103600083015261332d816132f1565b9050919050565b600081905092915050565b600061334a8261257c565b6133548185613334565b9350613364818560208601612598565b80840191505092915050565b600061337c828561333f565b9150613388828461333f565b91508190509392505050565b7f45524337323155524953746f726167653a2055524920736574206f66206e6f6e60008201527f6578697374656e7420746f6b656e000000000000000000000000000000000000602082015250565b60006133f0602e83612587565b91506133fb82613394565b604082019050919050565b6000602082019050818103600083015261341f816133e3565b9050919050565b60008190508160005260206000209050919050565b60006020601f8301049050919050565b600082821b905092915050565b6000600883026134887fffffffffffffffffffffffffffffffffffffffffffffffffffffffffffffffff8261344b565b613492868361344b565b95508019841693508086168417925050509392505050565b6000819050919050565b60006134cf6134ca6134c58461262e565b6134aa565b61262e565b9050919050565b6000819050919050565b6134e9836134b4565b6134fd6134f5826134d6565b848454613458565b825550505050565b600090565b613512613505565b61351d8184846134e0565b505050565b5b818110156135415761353660008261350a565b600181019050613523565b5050565b601f8211156135865761355781613426565b6135608461343b565b8101602085101561356f578190505b61358361357b8561343b565b830182613522565b50505b505050565b600082821c905092915050565b60006135a96000198460080261358b565b1980831691505092915050565b60006135c28383613598565b9150826002028217905092915050565b6135db8261257c565b67ffffffffffffffff8111156135f4576135f3612879565b5b6135fe8254612bdc565b613609828285613545565b600060209050601f83116001811461363c576000841561362a578287015190505b61363485826135b6565b86555061369c565b601f19841661364a86613426565b60005b828110156136725784890151825560018201915060208501945060208101905061364d565b8683101561368f578489015161368b601f891682613598565b8355505b6001600288020188555050505b505050505050565b7f5061757361626c653a206e6f7420706175736564000000000000000000000000600082015250565b60006136da601483612587565b91506136e5826136a4565b602082019050919050565b60006020820190508181036000830152613709816136cd565b9050919050565b7f5061757361626c653a2070617573656400000000000000000000000000000000600082015250565b6000613746601083612587565b915061375182613710565b602082019050919050565b6000602082019050818103600083015261377581613739565b9050919050565b600081519050919050565b600082825260208201905092915050565b60006137a38261377c565b6137ad8185613787565b93506137bd818560208601612598565b6137c6816125c2565b840191505092915050565b60006080820190506137e660008301876126c3565b6137f360208301866126c3565b6138006040830185612759565b81810360608301526138128184613798565b905095945050505050565b60008151905061382c816124ed565b92915050565b600060208284031215613848576138476124b7565b5b60006138568482850161381d565b91505092915050565b7f455243373231456e756d657261626c653a20636f6e736563757469766520747260008201527f616e7366657273206e6f7420737570706f727465640000000000000000000000602082015250565b60006138bb603583612587565b91506138c68261385f565b604082019050919050565b600060208201905081810360008301526138ea816138ae565b9050919050565b7f4e487b7100000000000000000000000000000000000000000000000000000000600052601260045260246000fd5b7f4552433732313a206d696e7420746f20746865207a65726f2061646472657373600082015250565b6000613956602083612587565b915061396182613920565b602082019050919050565b6000602082019050818103600083015261398581613949565b9050919050565b7f4552433732313a20746f6b656e20616c7265616479206d696e74656400000000600082015250565b60006139c2601c83612587565b91506139cd8261398c565b602082019050919050565b600060208201905081810360008301526139f1816139b5565b9050919050565b7f4e487b7100000000000000000000000000000000000000000000000000000000600052601160045260246000fd5b6000613a328261262e565b9150613a3d8361262e565b9250828203905081811115613a5557613a546139f8565b5b92915050565b7f4e487b7100000000000000000000000000000000000000000000000000000000600052603160045260246000fdfea2646970667358221220cd40ba0bccd17a497a199ccadcace3bd30e2fb63e61f8a0cbe41732426214e8b64736f6c63430008120033",
  "linkReferences": {},
  "deployedLinkReferences": {}
}