{
  "_format": "hh-sol-artifact-1",
  "contractName": "CSVMint",
  "sourceName": "contracts/CSVMint.sol",
  "abi": [
    {
      "inputs": [],
      "stateMutability": "nonpayable",
      "type": "constructor"
    },
    {
      "anonymous": false,
      "inputs": [
        {
          "indexed": true,
          "internalType": "address",
          "name": "owner",
          "type": "address"
        },
        {
          "indexed": true,
          "internalType": "address",
          "name": "approved",
          "type": "address"
        },
        {
          "indexed": true,
          "internalType": "uint256",
          "name": "tokenId",
          "type": "uint256"
        }
      ],
      "name": "Approval",
      "type": "event"
    },
    {
      "anonymous": false,
      "inputs": [
        {
          "indexed": true,
          "internalType": "address",
          "name": "owner",
          "type": "address"
        },
        {
          "indexed": true,
          "internalType": "address",
          "name": "operator",
          "type": "address"
        },
        {
          "indexed": false,
          "internalType": "bool",
          "name": "approved",
          "type": "bool"
        }
      ],
      "name": "ApprovalForAll",
      "type": "event"
    },
    {
      "anonymous": false,
      "inputs": [
        {
          "indexed": true,
          "internalType": "address",
          "name": "previousOwner",
          "type": "address"
        },
        {
          "indexed": true,
          "internalType": "address",
          "name": "newOwner",
          "type": "address"
        }
      ],
      "name": "OwnershipTransferred",
      "type": "event"
    },
    {
      "anonymous": false,
      "inputs": [
        {
          "indexed": false,
          "internalType": "address",
          "name": "account",
          "type": "address"
        }
      ],
      "name": "Paused",
      "type": "event"
    },
    {
      "anonymous": false,
      "inputs": [
        {
          "indexed": true,
          "internalType": "address",
          "name": "to",
          "type": "address"
        },
        {
          "indexed": true,
          "internalType": "uint256",
          "name": "tokenId",
          "type": "uint256"
        },
        {
          "indexed": false,
          "internalType": "string",
          "name": "csvHash",
          "type": "string"
        }
      ],
      "name": "TokenMinted",
      "type": "event"
    },
    {
      "anonymous": false,
      "inputs": [
        {
          "indexed": true,
          "internalType": "address",
          "name": "from",
          "type": "address"
        },
        {
          "indexed": true,
          "internalType": "address",
          "name": "to",
          "type": "address"
        },
        {
          "indexed": true,
          "internalType": "uint256",
          "name": "tokenId",
          "type": "uint256"
        }
      ],
      "name": "Transfer",
      "type": "event"
    },
    {
      "anonymous": false,
      "inputs": [
        {
          "indexed": false,
          "internalType": "address",
          "name": "account",
          "type": "address"
        }
      ],
      "name": "Unpaused",
      "type": "event"
    },
    {
      "inputs": [
        {
          "internalType": "address",
          "name": "to",
          "type": "address"
        },
        {
          "internalType": "uint256",
          "name": "tokenId",
          "type": "uint256"
        }
      ],
      "name": "approve",
      "outputs": [],
      "stateMutability": "nonpayable",
      "type": "function"
    },
    {
      "inputs": [
        {
          "internalType": "address",
          "name": "owner",
          "type": "address"
        }
      ],
      "name": "balanceOf",
      "outputs": [
        {
          "internalType": "uint256",
          "name": "",
          "type": "uint256"
        }
      ],
      "stateMutability": "view",
      "type": "function"
    },
    {
      "inputs": [
        {
          "internalType": "string",
          "name": "csvHash",
          "type": "string"
        }
      ],
      "name": "checkCSVToken",
      "outputs": [
        {
          "internalType": "bool",
          "name": "",
          "type": "bool"
        }
      ],
      "stateMutability": "view",
      "type": "function"
    },
    {
      "inputs": [],
      "name": "getAllCSVToken",
      "outputs": [
        {
          "components": [
            {
              "internalType": "uint256",
              "name": "tokenId",
              "type": "uint256"
            },
            {
              "internalType": "string",
              "name": "csvHash",
              "type": "string"
            },
            {
              "internalType": "string",
              "name": "date",
              "type": "string"
            }
          ],
          "internalType": "struct CSVMint.CSVToken[]",
          "name": "",
          "type": "tuple[]"
        }
      ],
      "stateMutability": "view",
      "type": "function"
    },
    {
      "inputs": [
        {
          "internalType": "uint256",
          "name": "tokenId",
          "type": "uint256"
        }
      ],
      "name": "getApproved",
      "outputs": [
        {
          "internalType": "address",
          "name": "",
          "type": "address"
        }
      ],
      "stateMutability": "view",
      "type": "function"
    },
    {
      "inputs": [
        {
          "internalType": "uint256",
          "name": "tokenId",
          "type": "uint256"
        }
      ],
      "name": "getCSVToken",
      "outputs": [
        {
          "internalType": "string",
          "name": "",
          "type": "string"
        }
      ],
      "stateMutability": "view",
      "type": "function"
    },
    {
      "inputs": [],
      "name": "getCSVTokenCount",
      "outputs": [
        {
          "internalType": "uint256",
          "name": "",
          "type": "uint256"
        }
      ],
      "stateMutability": "view",
      "type": "function"
    },
    {
      "inputs": [
        {
          "internalType": "string",
          "name": "csvHash",
          "type": "string"
        }
      ],
      "name": "getTokenDateFromHash",
      "outputs": [
        {
          "internalType": "string",
          "name": "",
          "type": "string"
        }
      ],
      "stateMutability": "view",
      "type": "function"
    },
    {
      "inputs": [
        {
          "internalType": "string",
          "name": "csvHash",
          "type": "string"
        }
      ],
      "name": "getTokenHashFromHash",
      "outputs": [
        {
          "internalType": "string",
          "name": "",
          "type": "string"
        }
      ],
      "stateMutability": "view",
      "type": "function"
    },
    {
      "inputs": [
        {
          "internalType": "string",
          "name": "csvHash",
          "type": "string"
        }
      ],
      "name": "getTokenIDFromHash",
      "outputs": [
        {
          "internalType": "uint256",
          "name": "",
          "type": "uint256"
        }
      ],
      "stateMutability": "view",
      "type": "function"
    },
    {
      "inputs": [
        {
          "internalType": "address",
          "name": "owner",
          "type": "address"
        },
        {
          "internalType": "address",
          "name": "operator",
          "type": "address"
        }
      ],
      "name": "isApprovedForAll",
      "outputs": [
        {
          "internalType": "bool",
          "name": "",
          "type": "bool"
        }
      ],
      "stateMutability": "view",
      "type": "function"
    },
    {
      "inputs": [
        {
          "internalType": "string",
          "name": "csvHash",
          "type": "string"
        },
        {
          "internalType": "string",
          "name": "date",
          "type": "string"
        }
      ],
      "name": "mintCSV",
      "outputs": [],
      "stateMutability": "nonpayable",
      "type": "function"
    },
    {
      "inputs": [],
      "name": "name",
      "outputs": [
        {
          "internalType": "string",
          "name": "",
          "type": "string"
        }
      ],
      "stateMutability": "view",
      "type": "function"
    },
    {
      "inputs": [],
      "name": "owner",
      "outputs": [
        {
          "internalType": "address",
          "name": "",
          "type": "address"
        }
      ],
      "stateMutability": "view",
      "type": "function"
    },
    {
      "inputs": [
        {
          "internalType": "uint256",
          "name": "tokenId",
          "type": "uint256"
        }
      ],
      "name": "ownerOf",
      "outputs": [
        {
          "internalType": "address",
          "name": "",
          "type": "address"
        }
      ],
      "stateMutability": "view",
      "type": "function"
    },
    {
      "inputs": [],
      "name": "pause",
      "outputs": [],
      "stateMutability": "nonpayable",
      "type": "function"
    },
    {
      "inputs": [],
      "name": "paused",
      "outputs": [
        {
          "internalType": "bool",
          "name": "",
          "type": "bool"
        }
      ],
      "stateMutability": "view",
      "type": "function"
    },
    {
      "inputs": [],
      "name": "renounceOwnership",
      "outputs": [],
      "stateMutability": "nonpayable",
      "type": "function"
    },
    {
      "inputs": [
        {
          "internalType": "address",
          "name": "to",
          "type": "address"
        },
        {
          "internalType": "string",
          "name": "uri",
          "type": "string"
        }
      ],
      "name": "safeMint",
      "outputs": [],
      "stateMutability": "nonpayable",
      "type": "function"
    },
    {
      "inputs": [
        {
          "internalType": "address",
          "name": "from",
          "type": "address"
        },
        {
          "internalType": "address",
          "name": "to",
          "type": "address"
        },
        {
          "internalType": "uint256",
          "name": "tokenId",
          "type": "uint256"
        }
      ],
      "name": "safeTransferFrom",
      "outputs": [],
      "stateMutability": "nonpayable",
      "type": "function"
    },
    {
      "inputs": [
        {
          "internalType": "address",
          "name": "from",
          "type": "address"
        },
        {
          "internalType": "address",
          "name": "to",
          "type": "address"
        },
        {
          "internalType": "uint256",
          "name": "tokenId",
          "type": "uint256"
        },
        {
          "internalType": "bytes",
          "name": "data",
          "type": "bytes"
        }
      ],
      "name": "safeTransferFrom",
      "outputs": [],
      "stateMutability": "nonpayable",
      "type": "function"
    },
    {
      "inputs": [
        {
          "internalType": "address",
          "name": "operator",
          "type": "address"
        },
        {
          "internalType": "bool",
          "name": "approved",
          "type": "bool"
        }
      ],
      "name": "setApprovalForAll",
      "outputs": [],
      "stateMutability": "nonpayable",
      "type": "function"
    },
    {
      "inputs": [
        {
          "internalType": "bytes4",
          "name": "interfaceId",
          "type": "bytes4"
        }
      ],
      "name": "supportsInterface",
      "outputs": [
        {
          "internalType": "bool",
          "name": "",
          "type": "bool"
        }
      ],
      "stateMutability": "view",
      "type": "function"
    },
    {
      "inputs": [],
      "name": "symbol",
      "outputs": [
        {
          "internalType": "string",
          "name": "",
          "type": "string"
        }
      ],
      "stateMutability": "view",
      "type": "function"
    },
    {
      "inputs": [
        {
          "internalType": "uint256",
          "name": "index",
          "type": "uint256"
        }
      ],
      "name": "tokenByIndex",
      "outputs": [
        {
          "internalType": "uint256",
          "name": "",
          "type": "uint256"
        }
      ],
      "stateMutability": "view",
      "type": "function"
    },
    {
      "inputs": [
        {
          "internalType": "address",
          "name": "owner",
          "type": "address"
        },
        {
          "internalType": "uint256",
          "name": "index",
          "type": "uint256"
        }
      ],
      "name": "tokenOfOwnerByIndex",
      "outputs": [
        {
          "internalType": "uint256",
          "name": "",
          "type": "uint256"
        }
      ],
      "stateMutability": "view",
      "type": "function"
    },
    {
      "inputs": [
        {
          "internalType": "uint256",
          "name": "tokenId",
          "type": "uint256"
        }
      ],
      "name": "tokenURI",
      "outputs": [
        {
          "internalType": "string",
          "name": "",
          "type": "string"
        }
      ],
      "stateMutability": "view",
      "type": "function"
    },
    {
      "inputs": [],
      "name": "totalSupply",
      "outputs": [
        {
          "internalType": "uint256",
          "name": "",
          "type": "uint256"
        }
      ],
      "stateMutability": "view",
      "type": "function"
    },
    {
      "inputs": [
        {
          "internalType": "address",
          "name": "from",
          "type": "address"
        },
        {
          "internalType": "address",
          "name": "to",
          "type": "address"
        },
        {
          "internalType": "uint256",
          "name": "tokenId",
          "type": "uint256"
        }
      ],
      "name": "transferFrom",
      "outputs": [],
      "stateMutability": "nonpayable",
      "type": "function"
    },
    {
      "inputs": [
        {
          "internalType": "address",
          "name": "newOwner",
          "type": "address"
        }
      ],
      "name": "transferOwnership",
      "outputs": [],
      "stateMutability": "nonpayable",
      "type": "function"
    },
    {
      "inputs": [],
      "name": "unpause",
      "outputs": [],
      "stateMutability": "nonpayable",
      "type": "function"
    }
  ],
  "bytecode": "0x60806040523480156200001157600080fd5b506040518060400160405280600781526020017f4353564d696e74000000000000000000000000000000000000000000000000008152506040518060400160405280600381526020017f435356000000000000000000000000000000000000000000000000000000000081525081600090816200008f91906200042d565b508060019081620000a191906200042d565b5050506000600b60006101000a81548160ff021916908315150217905550620000df620000d3620000e560201b60201c565b620000ed60201b60201c565b62000514565b600033905090565b6000600b60019054906101000a900473ffffffffffffffffffffffffffffffffffffffff16905081600b60016101000a81548173ffffffffffffffffffffffffffffffffffffffff021916908373ffffffffffffffffffffffffffffffffffffffff1602179055508173ffffffffffffffffffffffffffffffffffffffff168173ffffffffffffffffffffffffffffffffffffffff167f8be0079c531659141344cd1fd0a4f28419497f9722a3daafe3b4186f6b6457e060405160405180910390a35050565b600081519050919050565b7f4e487b7100000000000000000000000000000000000000000000000000000000600052604160045260246000fd5b7f4e487b7100000000000000000000000000000000000000000000000000000000600052602260045260246000fd5b600060028204905060018216806200023557607f821691505b6020821081036200024b576200024a620001ed565b5b50919050565b60008190508160005260206000209050919050565b60006020601f8301049050919050565b600082821b905092915050565b600060088302620002b57fffffffffffffffffffffffffffffffffffffffffffffffffffffffffffffffff8262000276565b620002c1868362000276565b95508019841693508086168417925050509392505050565b6000819050919050565b6000819050919050565b60006200030e620003086200030284620002d9565b620002e3565b620002d9565b9050919050565b6000819050919050565b6200032a83620002ed565b62000342620003398262000315565b84845462000283565b825550505050565b600090565b620003596200034a565b620003668184846200031f565b505050565b5b818110156200038e57620003826000826200034f565b6001810190506200036c565b5050565b601f821115620003dd57620003a78162000251565b620003b28462000266565b81016020851015620003c2578190505b620003da620003d18562000266565b8301826200036b565b50505b505050565b600082821c905092915050565b60006200040260001984600802620003e2565b1980831691505092915050565b60006200041d8383620003ef565b9150826002028217905092915050565b6200043882620001b3565b67ffffffffffffffff811115620004545762000453620001be565b5b6200046082546200021c565b6200046d82828562000392565b600060209050601f831160018114620004a5576000841562000490578287015190505b6200049c85826200040f565b8655506200050c565b601f198416620004b58662000251565b60005b82811015620004df57848901518255600182019150602085019450602081019050620004b8565b86831015620004ff5784890151620004fb601f891682620003ef565b8355505b6001600288020188555050505b505050505050565b61474180620005246000396000f3fe608060405234801561001057600080fd5b50600436106101e55760003560e01c80636352211e1161010f578063a5f0f9a3116100a2578063c87b56dd11610071578063c87b56dd14610592578063d204c45e146105c2578063e985e9c5146105de578063f2fde38b1461060e576101e5565b8063a5f0f9a3146104f8578063b88d4fde14610516578063bc12fc6b14610532578063c69961d614610562576101e5565b80638456cb59116100de5780638456cb59146104965780638da5cb5b146104a057806395d89b41146104be578063a22cb465146104dc576101e5565b80636352211e1461041057806370a0823114610440578063715018a614610470578063766f5ecb1461047a576101e5565b80632f745c59116101875780634f6ccce7116101565780634f6ccce7146103745780635705eb06146103a45780635c975abb146103c257806361293460146103e0576101e5565b80632f745c59146102ee5780633f4ba83a1461031e57806342842e0e146103285780634987556014610344576101e5565b8063095ea7b3116101c3578063095ea7b31461026857806312ff753d1461028457806318160ddd146102b457806323b872dd146102d2576101e5565b806301ffc9a7146101ea57806306fdde031461021a578063081812fc14610238575b600080fd5b61020460048036038101906101ff9190612e29565b61062a565b6040516102119190612e71565b60405180910390f35b61022261063c565b60405161022f9190612f1c565b60405180910390f35b610252600480360381019061024d9190612f74565b6106ce565b60405161025f9190612fe2565b60405180910390f35b610282600480360381019061027d9190613029565b610714565b005b61029e6004803603810190610299919061319e565b61082b565b6040516102ab9190612f1c565b60405180910390f35b6102bc610984565b6040516102c991906131f6565b60405180910390f35b6102ec60048036038101906102e79190613211565b610991565b005b61030860048036038101906103039190613029565b6109f1565b60405161031591906131f6565b60405180910390f35b610326610a96565b005b610342600480360381019061033d9190613211565b610aa8565b005b61035e6004803603810190610359919061319e565b610ac8565b60405161036b9190612f1c565b60405180910390f35b61038e60048036038101906103899190612f74565b610c21565b60405161039b91906131f6565b60405180910390f35b6103ac610c92565b6040516103b991906133d6565b60405180910390f35b6103ca610e1f565b6040516103d79190612e71565b60405180910390f35b6103fa60048036038101906103f5919061319e565b610e36565b6040516104079190612e71565b60405180910390f35b61042a60048036038101906104259190612f74565b610eea565b6040516104379190612fe2565b60405180910390f35b61045a600480360381019061045591906133f8565b610f70565b60405161046791906131f6565b60405180910390f35b610478611027565b005b610494600480360381019061048f9190613425565b61103b565b005b61049e6110e6565b005b6104a86110f8565b6040516104b59190612fe2565b60405180910390f35b6104c6611122565b6040516104d39190612f1c565b60405180910390f35b6104f660048036038101906104f191906134c9565b6111b4565b005b6105006111ca565b60405161050d91906131f6565b60405180910390f35b610530600480360381019061052b91906135aa565b6111d7565b005b61054c60048036038101906105479190612f74565b611239565b6040516105599190612f1c565b60405180910390f35b61057c6004803603810190610577919061319e565b611337565b60405161058991906131f6565b60405180910390f35b6105ac60048036038101906105a79190612f74565b61140b565b6040516105b99190612f1c565b60405180910390f35b6105dc60048036038101906105d7919061362d565b61141d565b005b6105f860048036038101906105f39190613689565b611456565b6040516106059190612e71565b60405180910390f35b610628600480360381019061062391906133f8565b6114ea565b005b60006106358261156d565b9050919050565b60606000805461064b906136f8565b80601f0160208091040260200160405190810160405280929190818152602001828054610677906136f8565b80156106c45780601f10610699576101008083540402835291602001916106c4565b820191906000526020600020905b8154815290600101906020018083116106a757829003601f168201915b5050505050905090565b60006106d9826115e7565b6004600083815260200190815260200160002060009054906101000a900473ffffffffffffffffffffffffffffffffffffffff169050919050565b600061071f82610eea565b90508073ffffffffffffffffffffffffffffffffffffffff168373ffffffffffffffffffffffffffffffffffffffff160361078f576040517f08c379a00000000000000000000000000000000000000000000000000000000081526004016107869061379b565b60405180910390fd5b8073ffffffffffffffffffffffffffffffffffffffff166107ae611632565b73ffffffffffffffffffffffffffffffffffffffff1614806107dd57506107dc816107d7611632565b611456565b5b61081c576040517f08c379a00000000000000000000000000000000000000000000000000000000081526004016108139061382d565b60405180910390fd5b610826838361163a565b505050565b606060005b600d8054905081101561097d57600d81815481106108515761085061384d565b5b9060005260206000209060030201600101604051602001610872919061391f565b60405160208183030381529060405280519060200120836040516020016108999190613967565b604051602081830303815290604052805190602001200361096a57600d81815481106108c8576108c761384d565b5b906000526020600020906003020160020180546108e4906136f8565b80601f0160208091040260200160405190810160405280929190818152602001828054610910906136f8565b801561095d5780601f106109325761010080835404028352916020019161095d565b820191906000526020600020905b81548152906001019060200180831161094057829003601f168201915b505050505091505061097f565b8080610975906139ad565b915050610830565b505b919050565b6000600880549050905090565b6109a261099c611632565b826116f3565b6109e1576040517f08c379a00000000000000000000000000000000000000000000000000000000081526004016109d890613a67565b60405180910390fd5b6109ec838383611788565b505050565b60006109fc83610f70565b8210610a3d576040517f08c379a0000000000000000000000000000000000000000000000000000000008152600401610a3490613af9565b60405180910390fd5b600660008473ffffffffffffffffffffffffffffffffffffffff1673ffffffffffffffffffffffffffffffffffffffff168152602001908152602001600020600083815260200190815260200160002054905092915050565b610a9e611a81565b610aa6611aff565b565b610ac3838383604051806020016040528060008152506111d7565b505050565b606060005b600d80549050811015610c1a57600d8181548110610aee57610aed61384d565b5b9060005260206000209060030201600101604051602001610b0f919061391f565b6040516020818303038152906040528051906020012083604051602001610b369190613967565b6040516020818303038152906040528051906020012003610c0757600d8181548110610b6557610b6461384d565b5b90600052602060002090600302016001018054610b81906136f8565b80601f0160208091040260200160405190810160405280929190818152602001828054610bad906136f8565b8015610bfa5780601f10610bcf57610100808354040283529160200191610bfa565b820191906000526020600020905b815481529060010190602001808311610bdd57829003601f168201915b5050505050915050610c1c565b8080610c12906139ad565b915050610acd565b505b919050565b6000610c2b610984565b8210610c6c576040517f08c379a0000000000000000000000000000000000000000000000000000000008152600401610c6390613b8b565b60405180910390fd5b60088281548110610c8057610c7f61384d565b5b90600052602060002001549050919050565b6060600d805480602002602001604051908101604052809291908181526020016000905b82821015610e16578382906000526020600020906003020160405180606001604052908160008201548152602001600182018054610cf3906136f8565b80601f0160208091040260200160405190810160405280929190818152602001828054610d1f906136f8565b8015610d6c5780601f10610d4157610100808354040283529160200191610d6c565b820191906000526020600020905b815481529060010190602001808311610d4f57829003601f168201915b50505050508152602001600282018054610d85906136f8565b80601f0160208091040260200160405190810160405280929190818152602001828054610db1906136f8565b8015610dfe5780601f10610dd357610100808354040283529160200191610dfe565b820191906000526020600020905b815481529060010190602001808311610de157829003601f168201915b50505050508152505081526020019060010190610cb6565b50505050905090565b6000600b60009054906101000a900460ff16905090565b600080600090505b600d80549050811015610edf57600d8181548110610e5f57610e5e61384d565b5b9060005260206000209060030201600101604051602001610e80919061391f565b6040516020818303038152906040528051906020012083604051602001610ea79190613967565b6040516020818303038152906040528051906020012003610ecc576001915050610ee5565b8080610ed7906139ad565b915050610e3e565b50600090505b919050565b600080610ef683611b62565b9050600073ffffffffffffffffffffffffffffffffffffffff168173ffffffffffffffffffffffffffffffffffffffff1603610f67576040517f08c379a0000000000000000000000000000000000000000000000000000000008152600401610f5e90613bf7565b60405180910390fd5b80915050919050565b60008073ffffffffffffffffffffffffffffffffffffffff168273ffffffffffffffffffffffffffffffffffffffff1603610fe0576040517f08c379a0000000000000000000000000000000000000000000000000000000008152600401610fd790613c89565b60405180910390fd5b600360008373ffffffffffffffffffffffffffffffffffffffff1673ffffffffffffffffffffffffffffffffffffffff168152602001908152602001600020549050919050565b61102f611a81565b6110396000611b9f565b565b6000611047600c611c65565b9050611053600c611c73565b61105d3382611c89565b60006040518060600160405280838152602001858152602001848152509050600d8190806001815401808255809150506001900390600052602060002090600302016000909190919091506000820151816000015560208201518160010190816110c79190613e40565b5060408201518160020190816110dd9190613e40565b50505050505050565b6110ee611a81565b6110f6611ca7565b565b6000600b60019054906101000a900473ffffffffffffffffffffffffffffffffffffffff16905090565b606060018054611131906136f8565b80601f016020809104026020016040519081016040528092919081815260200182805461115d906136f8565b80156111aa5780601f1061117f576101008083540402835291602001916111aa565b820191906000526020600020905b81548152906001019060200180831161118d57829003601f168201915b5050505050905090565b6111c66111bf611632565b8383611d0a565b5050565b6000600d80549050905090565b6111e86111e2611632565b836116f3565b611227576040517f08c379a000000000000000000000000000000000000000000000000000000000815260040161121e90613a67565b60405180910390fd5b61123384848484611e76565b50505050565b6060600d805490508210611282576040517f08c379a000000000000000000000000000000000000000000000000000000000815260040161127990613f5e565b60405180910390fd5b600d82815481106112965761129561384d565b5b906000526020600020906003020160010180546112b2906136f8565b80601f01602080910402602001604051908101604052809291908181526020018280546112de906136f8565b801561132b5780601f106113005761010080835404028352916020019161132b565b820191906000526020600020905b81548152906001019060200180831161130e57829003601f168201915b50505050509050919050565b600080600090505b600d8054905081101561140457600d81815481106113605761135f61384d565b5b9060005260206000209060030201600101604051602001611381919061391f565b60405160208183030381529060405280519060200120836040516020016113a89190613967565b60405160208183030381529060405280519060200120036113f157600d81815481106113d7576113d661384d565b5b906000526020600020906003020160000154915050611406565b80806113fc906139ad565b91505061133f565b505b919050565b606061141682611ed2565b9050919050565b611425611a81565b6000611431600c611c65565b905061143d600c611c73565b6114478382611c89565b6114518183611fe4565b505050565b6000600560008473ffffffffffffffffffffffffffffffffffffffff1673ffffffffffffffffffffffffffffffffffffffff16815260200190815260200160002060008373ffffffffffffffffffffffffffffffffffffffff1673ffffffffffffffffffffffffffffffffffffffff16815260200190815260200160002060009054906101000a900460ff16905092915050565b6114f2611a81565b600073ffffffffffffffffffffffffffffffffffffffff168173ffffffffffffffffffffffffffffffffffffffff1603611561576040517f08c379a000000000000000000000000000000000000000000000000000000000815260040161155890613ff0565b60405180910390fd5b61156a81611b9f565b50565b60007f780e9d63000000000000000000000000000000000000000000000000000000007bffffffffffffffffffffffffffffffffffffffffffffffffffffffff1916827bffffffffffffffffffffffffffffffffffffffffffffffffffffffff191614806115e057506115df82612051565b5b9050919050565b6115f081612133565b61162f576040517f08c379a000000000000000000000000000000000000000000000000000000000815260040161162690613bf7565b60405180910390fd5b50565b600033905090565b816004600083815260200190815260200160002060006101000a81548173ffffffffffffffffffffffffffffffffffffffff021916908373ffffffffffffffffffffffffffffffffffffffff160217905550808273ffffffffffffffffffffffffffffffffffffffff166116ad83610eea565b73ffffffffffffffffffffffffffffffffffffffff167f8c5be1e5ebec7d5bd14f71427d1e84f3dd0314c0f7b2291e5b200ac8c7c3b92560405160405180910390a45050565b6000806116ff83610eea565b90508073ffffffffffffffffffffffffffffffffffffffff168473ffffffffffffffffffffffffffffffffffffffff16148061174157506117408185611456565b5b8061177f57508373ffffffffffffffffffffffffffffffffffffffff16611767846106ce565b73ffffffffffffffffffffffffffffffffffffffff16145b91505092915050565b8273ffffffffffffffffffffffffffffffffffffffff166117a882610eea565b73ffffffffffffffffffffffffffffffffffffffff16146117fe576040517f08c379a00000000000000000000000000000000000000000000000000000000081526004016117f590614082565b60405180910390fd5b600073ffffffffffffffffffffffffffffffffffffffff168273ffffffffffffffffffffffffffffffffffffffff160361186d576040517f08c379a000000000000000000000000000000000000000000000000000000000815260040161186490614114565b60405180910390fd5b61187a8383836001612174565b8273ffffffffffffffffffffffffffffffffffffffff1661189a82610eea565b73ffffffffffffffffffffffffffffffffffffffff16146118f0576040517f08c379a00000000000000000000000000000000000000000000000000000000081526004016118e790614082565b60405180910390fd5b6004600082815260200190815260200160002060006101000a81549073ffffffffffffffffffffffffffffffffffffffff02191690556001600360008573ffffffffffffffffffffffffffffffffffffffff1673ffffffffffffffffffffffffffffffffffffffff168152602001908152602001600020600082825403925050819055506001600360008473ffffffffffffffffffffffffffffffffffffffff1673ffffffffffffffffffffffffffffffffffffffff16815260200190815260200160002060008282540192505081905550816002600083815260200190815260200160002060006101000a81548173ffffffffffffffffffffffffffffffffffffffff021916908373ffffffffffffffffffffffffffffffffffffffff160217905550808273ffffffffffffffffffffffffffffffffffffffff168473ffffffffffffffffffffffffffffffffffffffff167fddf252ad1be2c89b69c2b068fc378daa952ba7f163c4a11628f55a4df523b3ef60405160405180910390a4611a7c838383600161218e565b505050565b611a89611632565b73ffffffffffffffffffffffffffffffffffffffff16611aa76110f8565b73ffffffffffffffffffffffffffffffffffffffff1614611afd576040517f08c379a0000000000000000000000000000000000000000000000000000000008152600401611af490614180565b60405180910390fd5b565b611b07612194565b6000600b60006101000a81548160ff0219169083151502179055507f5db9ee0a495bf2e6ff9c91a7834c1ba4fdd244a5e8aa4e537bd38aeae4b073aa611b4b611632565b604051611b589190612fe2565b60405180910390a1565b60006002600083815260200190815260200160002060009054906101000a900473ffffffffffffffffffffffffffffffffffffffff169050919050565b6000600b60019054906101000a900473ffffffffffffffffffffffffffffffffffffffff16905081600b60016101000a81548173ffffffffffffffffffffffffffffffffffffffff021916908373ffffffffffffffffffffffffffffffffffffffff1602179055508173ffffffffffffffffffffffffffffffffffffffff168173ffffffffffffffffffffffffffffffffffffffff167f8be0079c531659141344cd1fd0a4f28419497f9722a3daafe3b4186f6b6457e060405160405180910390a35050565b600081600001549050919050565b6001816000016000828254019250508190555050565b611ca38282604051806020016040528060008152506121dd565b5050565b611caf612238565b6001600b60006101000a81548160ff0219169083151502179055507f62e78cea01bee320cd4e420270b5ea74000d11b0c9f74754ebdbfc544b05a258611cf3611632565b604051611d009190612fe2565b60405180910390a1565b8173ffffffffffffffffffffffffffffffffffffffff168373ffffffffffffffffffffffffffffffffffffffff1603611d78576040517f08c379a0000000000000000000000000000000000000000000000000000000008152600401611d6f906141ec565b60405180910390fd5b80600560008573ffffffffffffffffffffffffffffffffffffffff1673ffffffffffffffffffffffffffffffffffffffff16815260200190815260200160002060008473ffffffffffffffffffffffffffffffffffffffff1673ffffffffffffffffffffffffffffffffffffffff16815260200190815260200160002060006101000a81548160ff0219169083151502179055508173ffffffffffffffffffffffffffffffffffffffff168373ffffffffffffffffffffffffffffffffffffffff167f17307eab39ab6107e8899845ad3d59bd9653f200f220920489ca2b5937696c3183604051611e699190612e71565b60405180910390a3505050565b611e81848484611788565b611e8d84848484612282565b611ecc576040517f08c379a0000000000000000000000000000000000000000000000000000000008152600401611ec39061427e565b60405180910390fd5b50505050565b6060611edd826115e7565b6000600a60008481526020019081526020016000208054611efd906136f8565b80601f0160208091040260200160405190810160405280929190818152602001828054611f29906136f8565b8015611f765780601f10611f4b57610100808354040283529160200191611f76565b820191906000526020600020905b815481529060010190602001808311611f5957829003601f168201915b505050505090506000611f87612409565b90506000815103611f9c578192505050611fdf565b600082511115611fd1578082604051602001611fb992919061429e565b60405160208183030381529060405292505050611fdf565b611fda84612420565b925050505b919050565b611fed82612133565b61202c576040517f08c379a000000000000000000000000000000000000000000000000000000000815260040161202390614334565b60405180910390fd5b80600a6000848152602001908152602001600020908161204c9190613e40565b505050565b60007f80ac58cd000000000000000000000000000000000000000000000000000000007bffffffffffffffffffffffffffffffffffffffffffffffffffffffff1916827bffffffffffffffffffffffffffffffffffffffffffffffffffffffff1916148061211c57507f5b5e139f000000000000000000000000000000000000000000000000000000007bffffffffffffffffffffffffffffffffffffffffffffffffffffffff1916827bffffffffffffffffffffffffffffffffffffffffffffffffffffffff1916145b8061212c575061212b82612488565b5b9050919050565b60008073ffffffffffffffffffffffffffffffffffffffff1661215583611b62565b73ffffffffffffffffffffffffffffffffffffffff1614159050919050565b61217c612238565b612188848484846124f2565b50505050565b50505050565b61219c610e1f565b6121db576040517f08c379a00000000000000000000000000000000000000000000000000000000081526004016121d2906143a0565b60405180910390fd5b565b6121e78383612650565b6121f46000848484612282565b612233576040517f08c379a000000000000000000000000000000000000000000000000000000000815260040161222a9061427e565b60405180910390fd5b505050565b612240610e1f565b15612280576040517f08c379a00000000000000000000000000000000000000000000000000000000081526004016122779061440c565b60405180910390fd5b565b60006122a38473ffffffffffffffffffffffffffffffffffffffff1661286d565b156123fc578373ffffffffffffffffffffffffffffffffffffffff1663150b7a026122cc611632565b8786866040518563ffffffff1660e01b81526004016122ee9493929190614481565b6020604051808303816000875af192505050801561232a57506040513d601f19601f8201168201806040525081019061232791906144e2565b60015b6123ac573d806000811461235a576040519150601f19603f3d011682016040523d82523d6000602084013e61235f565b606091505b5060008151036123a4576040517f08c379a000000000000000000000000000000000000000000000000000000000815260040161239b9061427e565b60405180910390fd5b805181602001fd5b63150b7a0260e01b7bffffffffffffffffffffffffffffffffffffffffffffffffffffffff1916817bffffffffffffffffffffffffffffffffffffffffffffffffffffffff191614915050612401565b600190505b949350505050565b606060405180602001604052806000815250905090565b606061242b826115e7565b6000612435612409565b905060008151116124555760405180602001604052806000815250612480565b8061245f84612890565b60405160200161247092919061429e565b6040516020818303038152906040525b915050919050565b60007f01ffc9a7000000000000000000000000000000000000000000000000000000007bffffffffffffffffffffffffffffffffffffffffffffffffffffffff1916827bffffffffffffffffffffffffffffffffffffffffffffffffffffffff1916149050919050565b6124fe8484848461295e565b6001811115612542576040517f08c379a000000000000000000000000000000000000000000000000000000000815260040161253990614581565b60405180910390fd5b6000829050600073ffffffffffffffffffffffffffffffffffffffff168573ffffffffffffffffffffffffffffffffffffffff16036125895761258481612964565b6125c8565b8373ffffffffffffffffffffffffffffffffffffffff168573ffffffffffffffffffffffffffffffffffffffff16146125c7576125c685826129ad565b5b5b600073ffffffffffffffffffffffffffffffffffffffff168473ffffffffffffffffffffffffffffffffffffffff160361260a5761260581612b1a565b612649565b8473ffffffffffffffffffffffffffffffffffffffff168473ffffffffffffffffffffffffffffffffffffffff1614612648576126478482612beb565b5b5b5050505050565b600073ffffffffffffffffffffffffffffffffffffffff168273ffffffffffffffffffffffffffffffffffffffff16036126bf576040517f08c379a00000000000000000000000000000000000000000000000000000000081526004016126b6906145ed565b60405180910390fd5b6126c881612133565b15612708576040517f08c379a00000000000000000000000000000000000000000000000000000000081526004016126ff90614659565b60405180910390fd5b612716600083836001612174565b61271f81612133565b1561275f576040517f08c379a000000000000000000000000000000000000000000000000000000000815260040161275690614659565b60405180910390fd5b6001600360008473ffffffffffffffffffffffffffffffffffffffff1673ffffffffffffffffffffffffffffffffffffffff16815260200190815260200160002060008282540192505081905550816002600083815260200190815260200160002060006101000a81548173ffffffffffffffffffffffffffffffffffffffff021916908373ffffffffffffffffffffffffffffffffffffffff160217905550808273ffffffffffffffffffffffffffffffffffffffff16600073ffffffffffffffffffffffffffffffffffffffff167fddf252ad1be2c89b69c2b068fc378daa952ba7f163c4a11628f55a4df523b3ef60405160405180910390a461286960008383600161218e565b5050565b6000808273ffffffffffffffffffffffffffffffffffffffff163b119050919050565b60606000600161289f84612c6a565b01905060008167ffffffffffffffff8111156128be576128bd613073565b5b6040519080825280601f01601f1916602001820160405280156128f05781602001600182028036833780820191505090505b509050600082602001820190505b600115612953578080600190039150507f3031323334353637383961626364656600000000000000000000000000000000600a86061a8153600a858161294757612946614679565b5b049450600085036128fe575b819350505050919050565b50505050565b6008805490506009600083815260200190815260200160002081905550600881908060018154018082558091505060019003906000526020600020016000909190919091505550565b600060016129ba84610f70565b6129c491906146a8565b9050600060076000848152602001908152602001600020549050818114612aa9576000600660008673ffffffffffffffffffffffffffffffffffffffff1673ffffffffffffffffffffffffffffffffffffffff168152602001908152602001600020600084815260200190815260200160002054905080600660008773ffffffffffffffffffffffffffffffffffffffff1673ffffffffffffffffffffffffffffffffffffffff168152602001908152602001600020600084815260200190815260200160002081905550816007600083815260200190815260200160002081905550505b6007600084815260200190815260200160002060009055600660008573ffffffffffffffffffffffffffffffffffffffff1673ffffffffffffffffffffffffffffffffffffffff16815260200190815260200160002060008381526020019081526020016000206000905550505050565b60006001600880549050612b2e91906146a8565b9050600060096000848152602001908152602001600020549050600060088381548110612b5e57612b5d61384d565b5b906000526020600020015490508060088381548110612b8057612b7f61384d565b5b906000526020600020018190555081600960008381526020019081526020016000208190555060096000858152602001908152602001600020600090556008805480612bcf57612bce6146dc565b5b6001900381819060005260206000200160009055905550505050565b6000612bf683610f70565b905081600660008573ffffffffffffffffffffffffffffffffffffffff1673ffffffffffffffffffffffffffffffffffffffff168152602001908152602001600020600083815260200190815260200160002081905550806007600084815260200190815260200160002081905550505050565b600080600090507a184f03e93ff9f4daa797ed6e38ed64bf6a1f0100000000000000008310612cc8577a184f03e93ff9f4daa797ed6e38ed64bf6a1f0100000000000000008381612cbe57612cbd614679565b5b0492506040810190505b6d04ee2d6d415b85acef81000000008310612d05576d04ee2d6d415b85acef81000000008381612cfb57612cfa614679565b5b0492506020810190505b662386f26fc100008310612d3457662386f26fc100008381612d2a57612d29614679565b5b0492506010810190505b6305f5e1008310612d5d576305f5e1008381612d5357612d52614679565b5b0492506008810190505b6127108310612d82576127108381612d7857612d77614679565b5b0492506004810190505b60648310612da55760648381612d9b57612d9a614679565b5b0492506002810190505b600a8310612db4576001810190505b80915050919050565b6000604051905090565b600080fd5b600080fd5b60007fffffffff0000000000000000000000000000000000000000000000000000000082169050919050565b612e0681612dd1565b8114612e1157600080fd5b50565b600081359050612e2381612dfd565b92915050565b600060208284031215612e3f57612e3e612dc7565b5b6000612e4d84828501612e14565b91505092915050565b60008115159050919050565b612e6b81612e56565b82525050565b6000602082019050612e866000830184612e62565b92915050565b600081519050919050565b600082825260208201905092915050565b60005b83811015612ec6578082015181840152602081019050612eab565b60008484015250505050565b6000601f19601f8301169050919050565b6000612eee82612e8c565b612ef88185612e97565b9350612f08818560208601612ea8565b612f1181612ed2565b840191505092915050565b60006020820190508181036000830152612f368184612ee3565b905092915050565b6000819050919050565b612f5181612f3e565b8114612f5c57600080fd5b50565b600081359050612f6e81612f48565b92915050565b600060208284031215612f8a57612f89612dc7565b5b6000612f9884828501612f5f565b91505092915050565b600073ffffffffffffffffffffffffffffffffffffffff82169050919050565b6000612fcc82612fa1565b9050919050565b612fdc81612fc1565b82525050565b6000602082019050612ff76000830184612fd3565b92915050565b61300681612fc1565b811461301157600080fd5b50565b60008135905061302381612ffd565b92915050565b600080604083850312156130405761303f612dc7565b5b600061304e85828601613014565b925050602061305f85828601612f5f565b9150509250929050565b600080fd5b600080fd5b7f4e487b7100000000000000000000000000000000000000000000000000000000600052604160045260246000fd5b6130ab82612ed2565b810181811067ffffffffffffffff821117156130ca576130c9613073565b5b80604052505050565b60006130dd612dbd565b90506130e982826130a2565b919050565b600067ffffffffffffffff82111561310957613108613073565b5b61311282612ed2565b9050602081019050919050565b82818337600083830152505050565b600061314161313c846130ee565b6130d3565b90508281526020810184848401111561315d5761315c61306e565b5b61316884828561311f565b509392505050565b600082601f83011261318557613184613069565b5b813561319584826020860161312e565b91505092915050565b6000602082840312156131b4576131b3612dc7565b5b600082013567ffffffffffffffff8111156131d2576131d1612dcc565b5b6131de84828501613170565b91505092915050565b6131f081612f3e565b82525050565b600060208201905061320b60008301846131e7565b92915050565b60008060006060848603121561322a57613229612dc7565b5b600061323886828701613014565b935050602061324986828701613014565b925050604061325a86828701612f5f565b9150509250925092565b600081519050919050565b600082825260208201905092915050565b6000819050602082019050919050565b61329981612f3e565b82525050565b600082825260208201905092915050565b60006132bb82612e8c565b6132c5818561329f565b93506132d5818560208601612ea8565b6132de81612ed2565b840191505092915050565b60006060830160008301516133016000860182613290565b506020830151848203602086015261331982826132b0565b9150506040830151848203604086015261333382826132b0565b9150508091505092915050565b600061334c83836132e9565b905092915050565b6000602082019050919050565b600061336c82613264565b613376818561326f565b93508360208202850161338885613280565b8060005b858110156133c457848403895281516133a58582613340565b94506133b083613354565b925060208a0199505060018101905061338c565b50829750879550505050505092915050565b600060208201905081810360008301526133f08184613361565b905092915050565b60006020828403121561340e5761340d612dc7565b5b600061341c84828501613014565b91505092915050565b6000806040838503121561343c5761343b612dc7565b5b600083013567ffffffffffffffff81111561345a57613459612dcc565b5b61346685828601613170565b925050602083013567ffffffffffffffff81111561348757613486612dcc565b5b61349385828601613170565b9150509250929050565b6134a681612e56565b81146134b157600080fd5b50565b6000813590506134c38161349d565b92915050565b600080604083850312156134e0576134df612dc7565b5b60006134ee85828601613014565b92505060206134ff858286016134b4565b9150509250929050565b600067ffffffffffffffff82111561352457613523613073565b5b61352d82612ed2565b9050602081019050919050565b600061354d61354884613509565b6130d3565b9050828152602081018484840111156135695761356861306e565b5b61357484828561311f565b509392505050565b600082601f83011261359157613590613069565b5b81356135a184826020860161353a565b91505092915050565b600080600080608085870312156135c4576135c3612dc7565b5b60006135d287828801613014565b94505060206135e387828801613014565b93505060406135f487828801612f5f565b925050606085013567ffffffffffffffff81111561361557613614612dcc565b5b6136218782880161357c565b91505092959194509250565b6000806040838503121561364457613643612dc7565b5b600061365285828601613014565b925050602083013567ffffffffffffffff81111561367357613672612dcc565b5b61367f85828601613170565b9150509250929050565b600080604083850312156136a05761369f612dc7565b5b60006136ae85828601613014565b92505060206136bf85828601613014565b9150509250929050565b7f4e487b7100000000000000000000000000000000000000000000000000000000600052602260045260246000fd5b6000600282049050600182168061371057607f821691505b602082108103613723576137226136c9565b5b50919050565b7f4552433732313a20617070726f76616c20746f2063757272656e74206f776e6560008201527f7200000000000000000000000000000000000000000000000000000000000000602082015250565b6000613785602183612e97565b915061379082613729565b604082019050919050565b600060208201905081810360008301526137b481613778565b9050919050565b7f4552433732313a20617070726f76652063616c6c6572206973206e6f7420746f60008201527f6b656e206f776e6572206f7220617070726f76656420666f7220616c6c000000602082015250565b6000613817603d83612e97565b9150613822826137bb565b604082019050919050565b600060208201905081810360008301526138468161380a565b9050919050565b7f4e487b7100000000000000000000000000000000000000000000000000000000600052603260045260246000fd5b600081905092915050565b60008190508160005260206000209050919050565b600081546138a9816136f8565b6138b3818661387c565b945060018216600081146138ce57600181146138e357613916565b60ff1983168652811515820286019350613916565b6138ec85613887565b60005b8381101561390e578154818901526001820191506020810190506138ef565b838801955050505b50505092915050565b600061392b828461389c565b915081905092915050565b600061394182612e8c565b61394b818561387c565b935061395b818560208601612ea8565b80840191505092915050565b60006139738284613936565b915081905092915050565b7f4e487b7100000000000000000000000000000000000000000000000000000000600052601160045260246000fd5b60006139b882612f3e565b91507fffffffffffffffffffffffffffffffffffffffffffffffffffffffffffffffff82036139ea576139e961397e565b5b600182019050919050565b7f4552433732313a2063616c6c6572206973206e6f7420746f6b656e206f776e6560008201527f72206f7220617070726f76656400000000000000000000000000000000000000602082015250565b6000613a51602d83612e97565b9150613a5c826139f5565b604082019050919050565b60006020820190508181036000830152613a8081613a44565b9050919050565b7f455243373231456e756d657261626c653a206f776e657220696e646578206f7560008201527f74206f6620626f756e6473000000000000000000000000000000000000000000602082015250565b6000613ae3602b83612e97565b9150613aee82613a87565b604082019050919050565b60006020820190508181036000830152613b1281613ad6565b9050919050565b7f455243373231456e756d657261626c653a20676c6f62616c20696e646578206f60008201527f7574206f6620626f756e64730000000000000000000000000000000000000000602082015250565b6000613b75602c83612e97565b9150613b8082613b19565b604082019050919050565b60006020820190508181036000830152613ba481613b68565b9050919050565b7f4552433732313a20696e76616c696420746f6b656e2049440000000000000000600082015250565b6000613be1601883612e97565b9150613bec82613bab565b602082019050919050565b60006020820190508181036000830152613c1081613bd4565b9050919050565b7f4552433732313a2061646472657373207a65726f206973206e6f74206120766160008201527f6c6964206f776e65720000000000000000000000000000000000000000000000602082015250565b6000613c73602983612e97565b9150613c7e82613c17565b604082019050919050565b60006020820190508181036000830152613ca281613c66565b9050919050565b60006020601f8301049050919050565b600082821b905092915050565b600060088302613cf67fffffffffffffffffffffffffffffffffffffffffffffffffffffffffffffffff82613cb9565b613d008683613cb9565b95508019841693508086168417925050509392505050565b6000819050919050565b6000613d3d613d38613d3384612f3e565b613d18565b612f3e565b9050919050565b6000819050919050565b613d5783613d22565b613d6b613d6382613d44565b848454613cc6565b825550505050565b600090565b613d80613d73565b613d8b818484613d4e565b505050565b5b81811015613daf57613da4600082613d78565b600181019050613d91565b5050565b601f821115613df457613dc581613887565b613dce84613ca9565b81016020851015613ddd578190505b613df1613de985613ca9565b830182613d90565b50505b505050565b600082821c905092915050565b6000613e1760001984600802613df9565b1980831691505092915050565b6000613e308383613e06565b9150826002028217905092915050565b613e4982612e8c565b67ffffffffffffffff811115613e6257613e61613073565b5b613e6c82546136f8565b613e77828285613db3565b600060209050601f831160018114613eaa5760008415613e98578287015190505b613ea28582613e24565b865550613f0a565b601f198416613eb886613887565b60005b82811015613ee057848901518255600182019150602085019450602081019050613ebb565b86831015613efd5784890151613ef9601f891682613e06565b8355505b6001600288020188555050505b505050505050565b7f496e76616c696420746f6b656e49640000000000000000000000000000000000600082015250565b6000613f48600f83612e97565b9150613f5382613f12565b602082019050919050565b60006020820190508181036000830152613f7781613f3b565b9050919050565b7f4f776e61626c653a206e6577206f776e657220697320746865207a65726f206160008201527f6464726573730000000000000000000000000000000000000000000000000000602082015250565b6000613fda602683612e97565b9150613fe582613f7e565b604082019050919050565b6000602082019050818103600083015261400981613fcd565b9050919050565b7f4552433732313a207472616e736665722066726f6d20696e636f72726563742060008201527f6f776e6572000000000000000000000000000000000000000000000000000000602082015250565b600061406c602583612e97565b915061407782614010565b604082019050919050565b6000602082019050818103600083015261409b8161405f565b9050919050565b7f4552433732313a207472616e7366657220746f20746865207a65726f2061646460008201527f7265737300000000000000000000000000000000000000000000000000000000602082015250565b60006140fe602483612e97565b9150614109826140a2565b604082019050919050565b6000602082019050818103600083015261412d816140f1565b9050919050565b7f4f776e61626c653a2063616c6c6572206973206e6f7420746865206f776e6572600082015250565b600061416a602083612e97565b915061417582614134565b602082019050919050565b600060208201905081810360008301526141998161415d565b9050919050565b7f4552433732313a20617070726f766520746f2063616c6c657200000000000000600082015250565b60006141d6601983612e97565b91506141e1826141a0565b602082019050919050565b60006020820190508181036000830152614205816141c9565b9050919050565b7f4552433732313a207472616e7366657220746f206e6f6e20455243373231526560008201527f63656976657220696d706c656d656e7465720000000000000000000000000000602082015250565b6000614268603283612e97565b91506142738261420c565b604082019050919050565b600060208201905081810360008301526142978161425b565b9050919050565b60006142aa8285613936565b91506142b68284613936565b91508190509392505050565b7f45524337323155524953746f726167653a2055524920736574206f66206e6f6e60008201527f6578697374656e7420746f6b656e000000000000000000000000000000000000602082015250565b600061431e602e83612e97565b9150614329826142c2565b604082019050919050565b6000602082019050818103600083015261434d81614311565b9050919050565b7f5061757361626c653a206e6f7420706175736564000000000000000000000000600082015250565b600061438a601483612e97565b915061439582614354565b602082019050919050565b600060208201905081810360008301526143b98161437d565b9050919050565b7f5061757361626c653a2070617573656400000000000000000000000000000000600082015250565b60006143f6601083612e97565b9150614401826143c0565b602082019050919050565b60006020820190508181036000830152614425816143e9565b9050919050565b600081519050919050565b600082825260208201905092915050565b60006144538261442c565b61445d8185614437565b935061446d818560208601612ea8565b61447681612ed2565b840191505092915050565b60006080820190506144966000830187612fd3565b6144a36020830186612fd3565b6144b060408301856131e7565b81810360608301526144c28184614448565b905095945050505050565b6000815190506144dc81612dfd565b92915050565b6000602082840312156144f8576144f7612dc7565b5b6000614506848285016144cd565b91505092915050565b7f455243373231456e756d657261626c653a20636f6e736563757469766520747260008201527f616e7366657273206e6f7420737570706f727465640000000000000000000000602082015250565b600061456b603583612e97565b91506145768261450f565b604082019050919050565b6000602082019050818103600083015261459a8161455e565b9050919050565b7f4552433732313a206d696e7420746f20746865207a65726f2061646472657373600082015250565b60006145d7602083612e97565b91506145e2826145a1565b602082019050919050565b60006020820190508181036000830152614606816145ca565b9050919050565b7f4552433732313a20746f6b656e20616c7265616479206d696e74656400000000600082015250565b6000614643601c83612e97565b915061464e8261460d565b602082019050919050565b6000602082019050818103600083015261467281614636565b9050919050565b7f4e487b7100000000000000000000000000000000000000000000000000000000600052601260045260246000fd5b60006146b382612f3e565b91506146be83612f3e565b92508282039050818111156146d6576146d561397e565b5b92915050565b7f4e487b7100000000000000000000000000000000000000000000000000000000600052603160045260246000fdfea2646970667358221220248ab78576440d6db71e5a605f3299dec1485a93ec6c1ff4f685df6c0cb5f5b964736f6c63430008120033",
  "linkReferences": {},
  "deployedLinkReferences": {}
}