{
  "_format": "hh-sol-artifact-1",
  "contractName": "CSVMint",
  "sourceName": "contracts/CSVMint.sol",
  "abi": [
    {
      "inputs": [],
      "stateMutability": "nonpayable",
      "type": "constructor"
    },
    {
      "anonymous": false,
      "inputs": [
        {
          "indexed": true,
          "internalType": "address",
          "name": "owner",
          "type": "address"
        },
        {
          "indexed": true,
          "internalType": "address",
          "name": "approved",
          "type": "address"
        },
        {
          "indexed": true,
          "internalType": "uint256",
          "name": "tokenId",
          "type": "uint256"
        }
      ],
      "name": "Approval",
      "type": "event"
    },
    {
      "anonymous": false,
      "inputs": [
        {
          "indexed": true,
          "internalType": "address",
          "name": "owner",
          "type": "address"
        },
        {
          "indexed": true,
          "internalType": "address",
          "name": "operator",
          "type": "address"
        },
        {
          "indexed": false,
          "internalType": "bool",
          "name": "approved",
          "type": "bool"
        }
      ],
      "name": "ApprovalForAll",
      "type": "event"
    },
    {
      "anonymous": false,
      "inputs": [
        {
          "indexed": true,
          "internalType": "address",
          "name": "previousOwner",
          "type": "address"
        },
        {
          "indexed": true,
          "internalType": "address",
          "name": "newOwner",
          "type": "address"
        }
      ],
      "name": "OwnershipTransferred",
      "type": "event"
    },
    {
      "anonymous": false,
      "inputs": [
        {
          "indexed": false,
          "internalType": "address",
          "name": "account",
          "type": "address"
        }
      ],
      "name": "Paused",
      "type": "event"
    },
    {
      "anonymous": false,
      "inputs": [
        {
          "indexed": true,
          "internalType": "address",
          "name": "from",
          "type": "address"
        },
        {
          "indexed": true,
          "internalType": "address",
          "name": "to",
          "type": "address"
        },
        {
          "indexed": true,
          "internalType": "uint256",
          "name": "tokenId",
          "type": "uint256"
        }
      ],
      "name": "Transfer",
      "type": "event"
    },
    {
      "anonymous": false,
      "inputs": [
        {
          "indexed": false,
          "internalType": "address",
          "name": "account",
          "type": "address"
        }
      ],
      "name": "Unpaused",
      "type": "event"
    },
    {
      "inputs": [
        {
          "internalType": "address",
          "name": "to",
          "type": "address"
        },
        {
          "internalType": "uint256",
          "name": "tokenId",
          "type": "uint256"
        }
      ],
      "name": "approve",
      "outputs": [],
      "stateMutability": "nonpayable",
      "type": "function"
    },
    {
      "inputs": [
        {
          "internalType": "address",
          "name": "owner",
          "type": "address"
        }
      ],
      "name": "balanceOf",
      "outputs": [
        {
          "internalType": "uint256",
          "name": "",
          "type": "uint256"
        }
      ],
      "stateMutability": "view",
      "type": "function"
    },
    {
      "inputs": [
        {
          "internalType": "uint256",
          "name": "tokenId",
          "type": "uint256"
        }
      ],
      "name": "getApproved",
      "outputs": [
        {
          "internalType": "address",
          "name": "",
          "type": "address"
        }
      ],
      "stateMutability": "view",
      "type": "function"
    },
    {
      "inputs": [
        {
          "internalType": "address",
          "name": "owner",
          "type": "address"
        },
        {
          "internalType": "address",
          "name": "operator",
          "type": "address"
        }
      ],
      "name": "isApprovedForAll",
      "outputs": [
        {
          "internalType": "bool",
          "name": "",
          "type": "bool"
        }
      ],
      "stateMutability": "view",
      "type": "function"
    },
    {
      "inputs": [
        {
          "internalType": "bytes32",
          "name": "csvHash",
          "type": "bytes32"
        }
      ],
      "name": "mintCSV",
      "outputs": [],
      "stateMutability": "nonpayable",
      "type": "function"
    },
    {
      "inputs": [],
      "name": "name",
      "outputs": [
        {
          "internalType": "string",
          "name": "",
          "type": "string"
        }
      ],
      "stateMutability": "view",
      "type": "function"
    },
    {
      "inputs": [],
      "name": "owner",
      "outputs": [
        {
          "internalType": "address",
          "name": "",
          "type": "address"
        }
      ],
      "stateMutability": "view",
      "type": "function"
    },
    {
      "inputs": [
        {
          "internalType": "uint256",
          "name": "tokenId",
          "type": "uint256"
        }
      ],
      "name": "ownerOf",
      "outputs": [
        {
          "internalType": "address",
          "name": "",
          "type": "address"
        }
      ],
      "stateMutability": "view",
      "type": "function"
    },
    {
      "inputs": [],
      "name": "pause",
      "outputs": [],
      "stateMutability": "nonpayable",
      "type": "function"
    },
    {
      "inputs": [],
      "name": "paused",
      "outputs": [
        {
          "internalType": "bool",
          "name": "",
          "type": "bool"
        }
      ],
      "stateMutability": "view",
      "type": "function"
    },
    {
      "inputs": [],
      "name": "renounceOwnership",
      "outputs": [],
      "stateMutability": "nonpayable",
      "type": "function"
    },
    {
      "inputs": [
        {
          "internalType": "address",
          "name": "to",
          "type": "address"
        },
        {
          "internalType": "string",
          "name": "uri",
          "type": "string"
        }
      ],
      "name": "safeMint",
      "outputs": [],
      "stateMutability": "nonpayable",
      "type": "function"
    },
    {
      "inputs": [
        {
          "internalType": "address",
          "name": "from",
          "type": "address"
        },
        {
          "internalType": "address",
          "name": "to",
          "type": "address"
        },
        {
          "internalType": "uint256",
          "name": "tokenId",
          "type": "uint256"
        }
      ],
      "name": "safeTransferFrom",
      "outputs": [],
      "stateMutability": "nonpayable",
      "type": "function"
    },
    {
      "inputs": [
        {
          "internalType": "address",
          "name": "from",
          "type": "address"
        },
        {
          "internalType": "address",
          "name": "to",
          "type": "address"
        },
        {
          "internalType": "uint256",
          "name": "tokenId",
          "type": "uint256"
        },
        {
          "internalType": "bytes",
          "name": "data",
          "type": "bytes"
        }
      ],
      "name": "safeTransferFrom",
      "outputs": [],
      "stateMutability": "nonpayable",
      "type": "function"
    },
    {
      "inputs": [
        {
          "internalType": "address",
          "name": "operator",
          "type": "address"
        },
        {
          "internalType": "bool",
          "name": "approved",
          "type": "bool"
        }
      ],
      "name": "setApprovalForAll",
      "outputs": [],
      "stateMutability": "nonpayable",
      "type": "function"
    },
    {
      "inputs": [
        {
          "internalType": "bytes4",
          "name": "interfaceId",
          "type": "bytes4"
        }
      ],
      "name": "supportsInterface",
      "outputs": [
        {
          "internalType": "bool",
          "name": "",
          "type": "bool"
        }
      ],
      "stateMutability": "view",
      "type": "function"
    },
    {
      "inputs": [],
      "name": "symbol",
      "outputs": [
        {
          "internalType": "string",
          "name": "",
          "type": "string"
        }
      ],
      "stateMutability": "view",
      "type": "function"
    },
    {
      "inputs": [
        {
          "internalType": "uint256",
          "name": "index",
          "type": "uint256"
        }
      ],
      "name": "tokenByIndex",
      "outputs": [
        {
          "internalType": "uint256",
          "name": "",
          "type": "uint256"
        }
      ],
      "stateMutability": "view",
      "type": "function"
    },
    {
      "inputs": [
        {
          "internalType": "address",
          "name": "owner",
          "type": "address"
        },
        {
          "internalType": "uint256",
          "name": "index",
          "type": "uint256"
        }
      ],
      "name": "tokenOfOwnerByIndex",
      "outputs": [
        {
          "internalType": "uint256",
          "name": "",
          "type": "uint256"
        }
      ],
      "stateMutability": "view",
      "type": "function"
    },
    {
      "inputs": [
        {
          "internalType": "uint256",
          "name": "tokenId",
          "type": "uint256"
        }
      ],
      "name": "tokenURI",
      "outputs": [
        {
          "internalType": "string",
          "name": "",
          "type": "string"
        }
      ],
      "stateMutability": "view",
      "type": "function"
    },
    {
      "inputs": [],
      "name": "totalSupply",
      "outputs": [
        {
          "internalType": "uint256",
          "name": "",
          "type": "uint256"
        }
      ],
      "stateMutability": "view",
      "type": "function"
    },
    {
      "inputs": [
        {
          "internalType": "address",
          "name": "from",
          "type": "address"
        },
        {
          "internalType": "address",
          "name": "to",
          "type": "address"
        },
        {
          "internalType": "uint256",
          "name": "tokenId",
          "type": "uint256"
        }
      ],
      "name": "transferFrom",
      "outputs": [],
      "stateMutability": "nonpayable",
      "type": "function"
    },
    {
      "inputs": [
        {
          "internalType": "address",
          "name": "newOwner",
          "type": "address"
        }
      ],
      "name": "transferOwnership",
      "outputs": [],
      "stateMutability": "nonpayable",
      "type": "function"
    },
    {
      "inputs": [],
      "name": "unpause",
      "outputs": [],
      "stateMutability": "nonpayable",
      "type": "function"
    }
  ],
  "bytecode": "0x60806040523480156200001157600080fd5b506040518060400160405280600781526020017f4353564d696e74000000000000000000000000000000000000000000000000008152506040518060400160405280600381526020017f435356000000000000000000000000000000000000000000000000000000000081525081600090816200008f91906200042d565b508060019081620000a191906200042d565b5050506000600b60006101000a81548160ff021916908315150217905550620000df620000d3620000e560201b60201c565b620000ed60201b60201c565b62000514565b600033905090565b6000600b60019054906101000a900473ffffffffffffffffffffffffffffffffffffffff16905081600b60016101000a81548173ffffffffffffffffffffffffffffffffffffffff021916908373ffffffffffffffffffffffffffffffffffffffff1602179055508173ffffffffffffffffffffffffffffffffffffffff168173ffffffffffffffffffffffffffffffffffffffff167f8be0079c531659141344cd1fd0a4f28419497f9722a3daafe3b4186f6b6457e060405160405180910390a35050565b600081519050919050565b7f4e487b7100000000000000000000000000000000000000000000000000000000600052604160045260246000fd5b7f4e487b7100000000000000000000000000000000000000000000000000000000600052602260045260246000fd5b600060028204905060018216806200023557607f821691505b6020821081036200024b576200024a620001ed565b5b50919050565b60008190508160005260206000209050919050565b60006020601f8301049050919050565b600082821b905092915050565b600060088302620002b57fffffffffffffffffffffffffffffffffffffffffffffffffffffffffffffffff8262000276565b620002c1868362000276565b95508019841693508086168417925050509392505050565b6000819050919050565b6000819050919050565b60006200030e620003086200030284620002d9565b620002e3565b620002d9565b9050919050565b6000819050919050565b6200032a83620002ed565b62000342620003398262000315565b84845462000283565b825550505050565b600090565b620003596200034a565b620003668184846200031f565b505050565b5b818110156200038e57620003826000826200034f565b6001810190506200036c565b5050565b601f821115620003dd57620003a78162000251565b620003b28462000266565b81016020851015620003c2578190505b620003da620003d18562000266565b8301826200036b565b50505b505050565b600082821c905092915050565b60006200040260001984600802620003e2565b1980831691505092915050565b60006200041d8383620003ef565b9150826002028217905092915050565b6200043882620001b3565b67ffffffffffffffff811115620004545762000453620001be565b5b6200046082546200021c565b6200046d82828562000392565b600060209050601f831160018114620004a5576000841562000490578287015190505b6200049c85826200040f565b8655506200050c565b601f198416620004b58662000251565b60005b82811015620004df57848901518255600182019150602085019450602081019050620004b8565b86831015620004ff5784890151620004fb601f891682620003ef565b8355505b6001600288020188555050505b505050505050565b613ada80620005246000396000f3fe608060405234801561001057600080fd5b50600436106101585760003560e01c8063641d8e73116100c3578063a22cb4651161007c578063a22cb465146103a1578063b88d4fde146103bd578063c87b56dd146103d9578063d204c45e14610409578063e985e9c514610425578063f2fde38b1461045557610158565b8063641d8e731461030557806370a0823114610321578063715018a6146103515780638456cb591461035b5780638da5cb5b1461036557806395d89b411461038357610158565b80632f745c59116101155780632f745c59146102315780633f4ba83a1461026157806342842e0e1461026b5780634f6ccce7146102875780635c975abb146102b75780636352211e146102d557610158565b806301ffc9a71461015d57806306fdde031461018d578063081812fc146101ab578063095ea7b3146101db57806318160ddd146101f757806323b872dd14610215575b600080fd5b61017760048036038101906101729190612519565b610471565b6040516101849190612561565b60405180910390f35b610195610483565b6040516101a2919061260c565b60405180910390f35b6101c560048036038101906101c09190612664565b610515565b6040516101d291906126d2565b60405180910390f35b6101f560048036038101906101f09190612719565b61055b565b005b6101ff610672565b60405161020c9190612768565b60405180910390f35b61022f600480360381019061022a9190612783565b61067f565b005b61024b60048036038101906102469190612719565b6106df565b6040516102589190612768565b60405180910390f35b610269610784565b005b61028560048036038101906102809190612783565b610796565b005b6102a1600480360381019061029c9190612664565b6107b6565b6040516102ae9190612768565b60405180910390f35b6102bf610827565b6040516102cc9190612561565b60405180910390f35b6102ef60048036038101906102ea9190612664565b61083e565b6040516102fc91906126d2565b60405180910390f35b61031f600480360381019061031a919061280c565b6108c4565b005b61033b60048036038101906103369190612839565b6108ea565b6040516103489190612768565b60405180910390f35b6103596109a1565b005b6103636109b5565b005b61036d6109c7565b60405161037a91906126d2565b60405180910390f35b61038b6109f1565b604051610398919061260c565b60405180910390f35b6103bb60048036038101906103b69190612892565b610a83565b005b6103d760048036038101906103d29190612a07565b610a99565b005b6103f360048036038101906103ee9190612664565b610afb565b604051610400919061260c565b60405180910390f35b610423600480360381019061041e9190612b2b565b610b0d565b005b61043f600480360381019061043a9190612b87565b610b46565b60405161044c9190612561565b60405180910390f35b61046f600480360381019061046a9190612839565b610bda565b005b600061047c82610c5d565b9050919050565b60606000805461049290612bf6565b80601f01602080910402602001604051908101604052809291908181526020018280546104be90612bf6565b801561050b5780601f106104e05761010080835404028352916020019161050b565b820191906000526020600020905b8154815290600101906020018083116104ee57829003601f168201915b5050505050905090565b600061052082610cd7565b6004600083815260200190815260200160002060009054906101000a900473ffffffffffffffffffffffffffffffffffffffff169050919050565b60006105668261083e565b90508073ffffffffffffffffffffffffffffffffffffffff168373ffffffffffffffffffffffffffffffffffffffff16036105d6576040517f08c379a00000000000000000000000000000000000000000000000000000000081526004016105cd90612c99565b60405180910390fd5b8073ffffffffffffffffffffffffffffffffffffffff166105f5610d22565b73ffffffffffffffffffffffffffffffffffffffff16148061062457506106238161061e610d22565b610b46565b5b610663576040517f08c379a000000000000000000000000000000000000000000000000000000000815260040161065a90612d2b565b60405180910390fd5b61066d8383610d2a565b505050565b6000600880549050905090565b61069061068a610d22565b82610de3565b6106cf576040517f08c379a00000000000000000000000000000000000000000000000000000000081526004016106c690612dbd565b60405180910390fd5b6106da838383610e78565b505050565b60006106ea836108ea565b821061072b576040517f08c379a000000000000000000000000000000000000000000000000000000000815260040161072290612e4f565b60405180910390fd5b600660008473ffffffffffffffffffffffffffffffffffffffff1673ffffffffffffffffffffffffffffffffffffffff168152602001908152602001600020600083815260200190815260200160002054905092915050565b61078c611171565b6107946111ef565b565b6107b183838360405180602001604052806000815250610a99565b505050565b60006107c0610672565b8210610801576040517f08c379a00000000000000000000000000000000000000000000000000000000081526004016107f890612ee1565b60405180910390fd5b6008828154811061081557610814612f01565b5b90600052602060002001549050919050565b6000600b60009054906101000a900460ff16905090565b60008061084a83611252565b9050600073ffffffffffffffffffffffffffffffffffffffff168173ffffffffffffffffffffffffffffffffffffffff16036108bb576040517f08c379a00000000000000000000000000000000000000000000000000000000081526004016108b290612f7c565b60405180910390fd5b80915050919050565b60006108d0600c61128f565b90506108dc600c61129d565b6108e633826112b3565b5050565b60008073ffffffffffffffffffffffffffffffffffffffff168273ffffffffffffffffffffffffffffffffffffffff160361095a576040517f08c379a00000000000000000000000000000000000000000000000000000000081526004016109519061300e565b60405180910390fd5b600360008373ffffffffffffffffffffffffffffffffffffffff1673ffffffffffffffffffffffffffffffffffffffff168152602001908152602001600020549050919050565b6109a9611171565b6109b360006112d1565b565b6109bd611171565b6109c5611397565b565b6000600b60019054906101000a900473ffffffffffffffffffffffffffffffffffffffff16905090565b606060018054610a0090612bf6565b80601f0160208091040260200160405190810160405280929190818152602001828054610a2c90612bf6565b8015610a795780601f10610a4e57610100808354040283529160200191610a79565b820191906000526020600020905b815481529060010190602001808311610a5c57829003601f168201915b5050505050905090565b610a95610a8e610d22565b83836113fa565b5050565b610aaa610aa4610d22565b83610de3565b610ae9576040517f08c379a0000000000000000000000000000000000000000000000000000000008152600401610ae090612dbd565b60405180910390fd5b610af584848484611566565b50505050565b6060610b06826115c2565b9050919050565b610b15611171565b6000610b21600c61128f565b9050610b2d600c61129d565b610b3783826112b3565b610b4181836116d4565b505050565b6000600560008473ffffffffffffffffffffffffffffffffffffffff1673ffffffffffffffffffffffffffffffffffffffff16815260200190815260200160002060008373ffffffffffffffffffffffffffffffffffffffff1673ffffffffffffffffffffffffffffffffffffffff16815260200190815260200160002060009054906101000a900460ff16905092915050565b610be2611171565b600073ffffffffffffffffffffffffffffffffffffffff168173ffffffffffffffffffffffffffffffffffffffff1603610c51576040517f08c379a0000000000000000000000000000000000000000000000000000000008152600401610c48906130a0565b60405180910390fd5b610c5a816112d1565b50565b60007f780e9d63000000000000000000000000000000000000000000000000000000007bffffffffffffffffffffffffffffffffffffffffffffffffffffffff1916827bffffffffffffffffffffffffffffffffffffffffffffffffffffffff19161480610cd05750610ccf82611741565b5b9050919050565b610ce081611823565b610d1f576040517f08c379a0000000000000000000000000000000000000000000000000000000008152600401610d1690612f7c565b60405180910390fd5b50565b600033905090565b816004600083815260200190815260200160002060006101000a81548173ffffffffffffffffffffffffffffffffffffffff021916908373ffffffffffffffffffffffffffffffffffffffff160217905550808273ffffffffffffffffffffffffffffffffffffffff16610d9d8361083e565b73ffffffffffffffffffffffffffffffffffffffff167f8c5be1e5ebec7d5bd14f71427d1e84f3dd0314c0f7b2291e5b200ac8c7c3b92560405160405180910390a45050565b600080610def8361083e565b90508073ffffffffffffffffffffffffffffffffffffffff168473ffffffffffffffffffffffffffffffffffffffff161480610e315750610e308185610b46565b5b80610e6f57508373ffffffffffffffffffffffffffffffffffffffff16610e5784610515565b73ffffffffffffffffffffffffffffffffffffffff16145b91505092915050565b8273ffffffffffffffffffffffffffffffffffffffff16610e988261083e565b73ffffffffffffffffffffffffffffffffffffffff1614610eee576040517f08c379a0000000000000000000000000000000000000000000000000000000008152600401610ee590613132565b60405180910390fd5b600073ffffffffffffffffffffffffffffffffffffffff168273ffffffffffffffffffffffffffffffffffffffff1603610f5d576040517f08c379a0000000000000000000000000000000000000000000000000000000008152600401610f54906131c4565b60405180910390fd5b610f6a8383836001611864565b8273ffffffffffffffffffffffffffffffffffffffff16610f8a8261083e565b73ffffffffffffffffffffffffffffffffffffffff1614610fe0576040517f08c379a0000000000000000000000000000000000000000000000000000000008152600401610fd790613132565b60405180910390fd5b6004600082815260200190815260200160002060006101000a81549073ffffffffffffffffffffffffffffffffffffffff02191690556001600360008573ffffffffffffffffffffffffffffffffffffffff1673ffffffffffffffffffffffffffffffffffffffff168152602001908152602001600020600082825403925050819055506001600360008473ffffffffffffffffffffffffffffffffffffffff1673ffffffffffffffffffffffffffffffffffffffff16815260200190815260200160002060008282540192505081905550816002600083815260200190815260200160002060006101000a81548173ffffffffffffffffffffffffffffffffffffffff021916908373ffffffffffffffffffffffffffffffffffffffff160217905550808273ffffffffffffffffffffffffffffffffffffffff168473ffffffffffffffffffffffffffffffffffffffff167fddf252ad1be2c89b69c2b068fc378daa952ba7f163c4a11628f55a4df523b3ef60405160405180910390a461116c838383600161187e565b505050565b611179610d22565b73ffffffffffffffffffffffffffffffffffffffff166111976109c7565b73ffffffffffffffffffffffffffffffffffffffff16146111ed576040517f08c379a00000000000000000000000000000000000000000000000000000000081526004016111e490613230565b60405180910390fd5b565b6111f7611884565b6000600b60006101000a81548160ff0219169083151502179055507f5db9ee0a495bf2e6ff9c91a7834c1ba4fdd244a5e8aa4e537bd38aeae4b073aa61123b610d22565b60405161124891906126d2565b60405180910390a1565b60006002600083815260200190815260200160002060009054906101000a900473ffffffffffffffffffffffffffffffffffffffff169050919050565b600081600001549050919050565b6001816000016000828254019250508190555050565b6112cd8282604051806020016040528060008152506118cd565b5050565b6000600b60019054906101000a900473ffffffffffffffffffffffffffffffffffffffff16905081600b60016101000a81548173ffffffffffffffffffffffffffffffffffffffff021916908373ffffffffffffffffffffffffffffffffffffffff1602179055508173ffffffffffffffffffffffffffffffffffffffff168173ffffffffffffffffffffffffffffffffffffffff167f8be0079c531659141344cd1fd0a4f28419497f9722a3daafe3b4186f6b6457e060405160405180910390a35050565b61139f611928565b6001600b60006101000a81548160ff0219169083151502179055507f62e78cea01bee320cd4e420270b5ea74000d11b0c9f74754ebdbfc544b05a2586113e3610d22565b6040516113f091906126d2565b60405180910390a1565b8173ffffffffffffffffffffffffffffffffffffffff168373ffffffffffffffffffffffffffffffffffffffff1603611468576040517f08c379a000000000000000000000000000000000000000000000000000000000815260040161145f9061329c565b60405180910390fd5b80600560008573ffffffffffffffffffffffffffffffffffffffff1673ffffffffffffffffffffffffffffffffffffffff16815260200190815260200160002060008473ffffffffffffffffffffffffffffffffffffffff1673ffffffffffffffffffffffffffffffffffffffff16815260200190815260200160002060006101000a81548160ff0219169083151502179055508173ffffffffffffffffffffffffffffffffffffffff168373ffffffffffffffffffffffffffffffffffffffff167f17307eab39ab6107e8899845ad3d59bd9653f200f220920489ca2b5937696c31836040516115599190612561565b60405180910390a3505050565b611571848484610e78565b61157d84848484611972565b6115bc576040517f08c379a00000000000000000000000000000000000000000000000000000000081526004016115b39061332e565b60405180910390fd5b50505050565b60606115cd82610cd7565b6000600a600084815260200190815260200160002080546115ed90612bf6565b80601f016020809104026020016040519081016040528092919081815260200182805461161990612bf6565b80156116665780601f1061163b57610100808354040283529160200191611666565b820191906000526020600020905b81548152906001019060200180831161164957829003601f168201915b505050505090506000611677611af9565b9050600081510361168c5781925050506116cf565b6000825111156116c15780826040516020016116a992919061338a565b604051602081830303815290604052925050506116cf565b6116ca84611b10565b925050505b919050565b6116dd82611823565b61171c576040517f08c379a000000000000000000000000000000000000000000000000000000000815260040161171390613420565b60405180910390fd5b80600a6000848152602001908152602001600020908161173c91906135ec565b505050565b60007f80ac58cd000000000000000000000000000000000000000000000000000000007bffffffffffffffffffffffffffffffffffffffffffffffffffffffff1916827bffffffffffffffffffffffffffffffffffffffffffffffffffffffff1916148061180c57507f5b5e139f000000000000000000000000000000000000000000000000000000007bffffffffffffffffffffffffffffffffffffffffffffffffffffffff1916827bffffffffffffffffffffffffffffffffffffffffffffffffffffffff1916145b8061181c575061181b82611b78565b5b9050919050565b60008073ffffffffffffffffffffffffffffffffffffffff1661184583611252565b73ffffffffffffffffffffffffffffffffffffffff1614159050919050565b61186c611928565b61187884848484611be2565b50505050565b50505050565b61188c610827565b6118cb576040517f08c379a00000000000000000000000000000000000000000000000000000000081526004016118c29061370a565b60405180910390fd5b565b6118d78383611d40565b6118e46000848484611972565b611923576040517f08c379a000000000000000000000000000000000000000000000000000000000815260040161191a9061332e565b60405180910390fd5b505050565b611930610827565b15611970576040517f08c379a000000000000000000000000000000000000000000000000000000000815260040161196790613776565b60405180910390fd5b565b60006119938473ffffffffffffffffffffffffffffffffffffffff16611f5d565b15611aec578373ffffffffffffffffffffffffffffffffffffffff1663150b7a026119bc610d22565b8786866040518563ffffffff1660e01b81526004016119de94939291906137eb565b6020604051808303816000875af1925050508015611a1a57506040513d601f19601f82011682018060405250810190611a17919061384c565b60015b611a9c573d8060008114611a4a576040519150601f19603f3d011682016040523d82523d6000602084013e611a4f565b606091505b506000815103611a94576040517f08c379a0000000000000000000000000000000000000000000000000000000008152600401611a8b9061332e565b60405180910390fd5b805181602001fd5b63150b7a0260e01b7bffffffffffffffffffffffffffffffffffffffffffffffffffffffff1916817bffffffffffffffffffffffffffffffffffffffffffffffffffffffff191614915050611af1565b600190505b949350505050565b606060405180602001604052806000815250905090565b6060611b1b82610cd7565b6000611b25611af9565b90506000815111611b455760405180602001604052806000815250611b70565b80611b4f84611f80565b604051602001611b6092919061338a565b6040516020818303038152906040525b915050919050565b60007f01ffc9a7000000000000000000000000000000000000000000000000000000007bffffffffffffffffffffffffffffffffffffffffffffffffffffffff1916827bffffffffffffffffffffffffffffffffffffffffffffffffffffffff1916149050919050565b611bee8484848461204e565b6001811115611c32576040517f08c379a0000000000000000000000000000000000000000000000000000000008152600401611c29906138eb565b60405180910390fd5b6000829050600073ffffffffffffffffffffffffffffffffffffffff168573ffffffffffffffffffffffffffffffffffffffff1603611c7957611c7481612054565b611cb8565b8373ffffffffffffffffffffffffffffffffffffffff168573ffffffffffffffffffffffffffffffffffffffff1614611cb757611cb6858261209d565b5b5b600073ffffffffffffffffffffffffffffffffffffffff168473ffffffffffffffffffffffffffffffffffffffff1603611cfa57611cf58161220a565b611d39565b8473ffffffffffffffffffffffffffffffffffffffff168473ffffffffffffffffffffffffffffffffffffffff1614611d3857611d3784826122db565b5b5b5050505050565b600073ffffffffffffffffffffffffffffffffffffffff168273ffffffffffffffffffffffffffffffffffffffff1603611daf576040517f08c379a0000000000000000000000000000000000000000000000000000000008152600401611da690613957565b60405180910390fd5b611db881611823565b15611df8576040517f08c379a0000000000000000000000000000000000000000000000000000000008152600401611def906139c3565b60405180910390fd5b611e06600083836001611864565b611e0f81611823565b15611e4f576040517f08c379a0000000000000000000000000000000000000000000000000000000008152600401611e46906139c3565b60405180910390fd5b6001600360008473ffffffffffffffffffffffffffffffffffffffff1673ffffffffffffffffffffffffffffffffffffffff16815260200190815260200160002060008282540192505081905550816002600083815260200190815260200160002060006101000a81548173ffffffffffffffffffffffffffffffffffffffff021916908373ffffffffffffffffffffffffffffffffffffffff160217905550808273ffffffffffffffffffffffffffffffffffffffff16600073ffffffffffffffffffffffffffffffffffffffff167fddf252ad1be2c89b69c2b068fc378daa952ba7f163c4a11628f55a4df523b3ef60405160405180910390a4611f5960008383600161187e565b5050565b6000808273ffffffffffffffffffffffffffffffffffffffff163b119050919050565b606060006001611f8f8461235a565b01905060008167ffffffffffffffff811115611fae57611fad6128dc565b5b6040519080825280601f01601f191660200182016040528015611fe05781602001600182028036833780820191505090505b509050600082602001820190505b600115612043578080600190039150507f3031323334353637383961626364656600000000000000000000000000000000600a86061a8153600a8581612037576120366139e3565b5b04945060008503611fee575b819350505050919050565b50505050565b6008805490506009600083815260200190815260200160002081905550600881908060018154018082558091505060019003906000526020600020016000909190919091505550565b600060016120aa846108ea565b6120b49190613a41565b9050600060076000848152602001908152602001600020549050818114612199576000600660008673ffffffffffffffffffffffffffffffffffffffff1673ffffffffffffffffffffffffffffffffffffffff168152602001908152602001600020600084815260200190815260200160002054905080600660008773ffffffffffffffffffffffffffffffffffffffff1673ffffffffffffffffffffffffffffffffffffffff168152602001908152602001600020600084815260200190815260200160002081905550816007600083815260200190815260200160002081905550505b6007600084815260200190815260200160002060009055600660008573ffffffffffffffffffffffffffffffffffffffff1673ffffffffffffffffffffffffffffffffffffffff16815260200190815260200160002060008381526020019081526020016000206000905550505050565b6000600160088054905061221e9190613a41565b905060006009600084815260200190815260200160002054905060006008838154811061224e5761224d612f01565b5b9060005260206000200154905080600883815481106122705761226f612f01565b5b9060005260206000200181905550816009600083815260200190815260200160002081905550600960008581526020019081526020016000206000905560088054806122bf576122be613a75565b5b6001900381819060005260206000200160009055905550505050565b60006122e6836108ea565b905081600660008573ffffffffffffffffffffffffffffffffffffffff1673ffffffffffffffffffffffffffffffffffffffff168152602001908152602001600020600083815260200190815260200160002081905550806007600084815260200190815260200160002081905550505050565b600080600090507a184f03e93ff9f4daa797ed6e38ed64bf6a1f01000000000000000083106123b8577a184f03e93ff9f4daa797ed6e38ed64bf6a1f01000000000000000083816123ae576123ad6139e3565b5b0492506040810190505b6d04ee2d6d415b85acef810000000083106123f5576d04ee2d6d415b85acef810000000083816123eb576123ea6139e3565b5b0492506020810190505b662386f26fc10000831061242457662386f26fc10000838161241a576124196139e3565b5b0492506010810190505b6305f5e100831061244d576305f5e1008381612443576124426139e3565b5b0492506008810190505b6127108310612472576127108381612468576124676139e3565b5b0492506004810190505b60648310612495576064838161248b5761248a6139e3565b5b0492506002810190505b600a83106124a4576001810190505b80915050919050565b6000604051905090565b600080fd5b600080fd5b60007fffffffff0000000000000000000000000000000000000000000000000000000082169050919050565b6124f6816124c1565b811461250157600080fd5b50565b600081359050612513816124ed565b92915050565b60006020828403121561252f5761252e6124b7565b5b600061253d84828501612504565b91505092915050565b60008115159050919050565b61255b81612546565b82525050565b60006020820190506125766000830184612552565b92915050565b600081519050919050565b600082825260208201905092915050565b60005b838110156125b657808201518184015260208101905061259b565b60008484015250505050565b6000601f19601f8301169050919050565b60006125de8261257c565b6125e88185612587565b93506125f8818560208601612598565b612601816125c2565b840191505092915050565b6000602082019050818103600083015261262681846125d3565b905092915050565b6000819050919050565b6126418161262e565b811461264c57600080fd5b50565b60008135905061265e81612638565b92915050565b60006020828403121561267a576126796124b7565b5b60006126888482850161264f565b91505092915050565b600073ffffffffffffffffffffffffffffffffffffffff82169050919050565b60006126bc82612691565b9050919050565b6126cc816126b1565b82525050565b60006020820190506126e760008301846126c3565b92915050565b6126f6816126b1565b811461270157600080fd5b50565b600081359050612713816126ed565b92915050565b600080604083850312156127305761272f6124b7565b5b600061273e85828601612704565b925050602061274f8582860161264f565b9150509250929050565b6127628161262e565b82525050565b600060208201905061277d6000830184612759565b92915050565b60008060006060848603121561279c5761279b6124b7565b5b60006127aa86828701612704565b93505060206127bb86828701612704565b92505060406127cc8682870161264f565b9150509250925092565b6000819050919050565b6127e9816127d6565b81146127f457600080fd5b50565b600081359050612806816127e0565b92915050565b600060208284031215612822576128216124b7565b5b6000612830848285016127f7565b91505092915050565b60006020828403121561284f5761284e6124b7565b5b600061285d84828501612704565b91505092915050565b61286f81612546565b811461287a57600080fd5b50565b60008135905061288c81612866565b92915050565b600080604083850312156128a9576128a86124b7565b5b60006128b785828601612704565b92505060206128c88582860161287d565b9150509250929050565b600080fd5b600080fd5b7f4e487b7100000000000000000000000000000000000000000000000000000000600052604160045260246000fd5b612914826125c2565b810181811067ffffffffffffffff82111715612933576129326128dc565b5b80604052505050565b60006129466124ad565b9050612952828261290b565b919050565b600067ffffffffffffffff821115612972576129716128dc565b5b61297b826125c2565b9050602081019050919050565b82818337600083830152505050565b60006129aa6129a584612957565b61293c565b9050828152602081018484840111156129c6576129c56128d7565b5b6129d1848285612988565b509392505050565b600082601f8301126129ee576129ed6128d2565b5b81356129fe848260208601612997565b91505092915050565b60008060008060808587031215612a2157612a206124b7565b5b6000612a2f87828801612704565b9450506020612a4087828801612704565b9350506040612a518782880161264f565b925050606085013567ffffffffffffffff811115612a7257612a716124bc565b5b612a7e878288016129d9565b91505092959194509250565b600067ffffffffffffffff821115612aa557612aa46128dc565b5b612aae826125c2565b9050602081019050919050565b6000612ace612ac984612a8a565b61293c565b905082815260208101848484011115612aea57612ae96128d7565b5b612af5848285612988565b509392505050565b600082601f830112612b1257612b116128d2565b5b8135612b22848260208601612abb565b91505092915050565b60008060408385031215612b4257612b416124b7565b5b6000612b5085828601612704565b925050602083013567ffffffffffffffff811115612b7157612b706124bc565b5b612b7d85828601612afd565b9150509250929050565b60008060408385031215612b9e57612b9d6124b7565b5b6000612bac85828601612704565b9250506020612bbd85828601612704565b9150509250929050565b7f4e487b7100000000000000000000000000000000000000000000000000000000600052602260045260246000fd5b60006002820490506001821680612c0e57607f821691505b602082108103612c2157612c20612bc7565b5b50919050565b7f4552433732313a20617070726f76616c20746f2063757272656e74206f776e6560008201527f7200000000000000000000000000000000000000000000000000000000000000602082015250565b6000612c83602183612587565b9150612c8e82612c27565b604082019050919050565b60006020820190508181036000830152612cb281612c76565b9050919050565b7f4552433732313a20617070726f76652063616c6c6572206973206e6f7420746f60008201527f6b656e206f776e6572206f7220617070726f76656420666f7220616c6c000000602082015250565b6000612d15603d83612587565b9150612d2082612cb9565b604082019050919050565b60006020820190508181036000830152612d4481612d08565b9050919050565b7f4552433732313a2063616c6c6572206973206e6f7420746f6b656e206f776e6560008201527f72206f7220617070726f76656400000000000000000000000000000000000000602082015250565b6000612da7602d83612587565b9150612db282612d4b565b604082019050919050565b60006020820190508181036000830152612dd681612d9a565b9050919050565b7f455243373231456e756d657261626c653a206f776e657220696e646578206f7560008201527f74206f6620626f756e6473000000000000000000000000000000000000000000602082015250565b6000612e39602b83612587565b9150612e4482612ddd565b604082019050919050565b60006020820190508181036000830152612e6881612e2c565b9050919050565b7f455243373231456e756d657261626c653a20676c6f62616c20696e646578206f60008201527f7574206f6620626f756e64730000000000000000000000000000000000000000602082015250565b6000612ecb602c83612587565b9150612ed682612e6f565b604082019050919050565b60006020820190508181036000830152612efa81612ebe565b9050919050565b7f4e487b7100000000000000000000000000000000000000000000000000000000600052603260045260246000fd5b7f4552433732313a20696e76616c696420746f6b656e2049440000000000000000600082015250565b6000612f66601883612587565b9150612f7182612f30565b602082019050919050565b60006020820190508181036000830152612f9581612f59565b9050919050565b7f4552433732313a2061646472657373207a65726f206973206e6f74206120766160008201527f6c6964206f776e65720000000000000000000000000000000000000000000000602082015250565b6000612ff8602983612587565b915061300382612f9c565b604082019050919050565b6000602082019050818103600083015261302781612feb565b9050919050565b7f4f776e61626c653a206e6577206f776e657220697320746865207a65726f206160008201527f6464726573730000000000000000000000000000000000000000000000000000602082015250565b600061308a602683612587565b91506130958261302e565b604082019050919050565b600060208201905081810360008301526130b98161307d565b9050919050565b7f4552433732313a207472616e736665722066726f6d20696e636f72726563742060008201527f6f776e6572000000000000000000000000000000000000000000000000000000602082015250565b600061311c602583612587565b9150613127826130c0565b604082019050919050565b6000602082019050818103600083015261314b8161310f565b9050919050565b7f4552433732313a207472616e7366657220746f20746865207a65726f2061646460008201527f7265737300000000000000000000000000000000000000000000000000000000602082015250565b60006131ae602483612587565b91506131b982613152565b604082019050919050565b600060208201905081810360008301526131dd816131a1565b9050919050565b7f4f776e61626c653a2063616c6c6572206973206e6f7420746865206f776e6572600082015250565b600061321a602083612587565b9150613225826131e4565b602082019050919050565b600060208201905081810360008301526132498161320d565b9050919050565b7f4552433732313a20617070726f766520746f2063616c6c657200000000000000600082015250565b6000613286601983612587565b915061329182613250565b602082019050919050565b600060208201905081810360008301526132b581613279565b9050919050565b7f4552433732313a207472616e7366657220746f206e6f6e20455243373231526560008201527f63656976657220696d706c656d656e7465720000000000000000000000000000602082015250565b6000613318603283612587565b9150613323826132bc565b604082019050919050565b600060208201905081810360008301526133478161330b565b9050919050565b600081905092915050565b60006133648261257c565b61336e818561334e565b935061337e818560208601612598565b80840191505092915050565b60006133968285613359565b91506133a28284613359565b91508190509392505050565b7f45524337323155524953746f726167653a2055524920736574206f66206e6f6e60008201527f6578697374656e7420746f6b656e000000000000000000000000000000000000602082015250565b600061340a602e83612587565b9150613415826133ae565b604082019050919050565b60006020820190508181036000830152613439816133fd565b9050919050565b60008190508160005260206000209050919050565b60006020601f8301049050919050565b600082821b905092915050565b6000600883026134a27fffffffffffffffffffffffffffffffffffffffffffffffffffffffffffffffff82613465565b6134ac8683613465565b95508019841693508086168417925050509392505050565b6000819050919050565b60006134e96134e46134df8461262e565b6134c4565b61262e565b9050919050565b6000819050919050565b613503836134ce565b61351761350f826134f0565b848454613472565b825550505050565b600090565b61352c61351f565b6135378184846134fa565b505050565b5b8181101561355b57613550600082613524565b60018101905061353d565b5050565b601f8211156135a05761357181613440565b61357a84613455565b81016020851015613589578190505b61359d61359585613455565b83018261353c565b50505b505050565b600082821c905092915050565b60006135c3600019846008026135a5565b1980831691505092915050565b60006135dc83836135b2565b9150826002028217905092915050565b6135f58261257c565b67ffffffffffffffff81111561360e5761360d6128dc565b5b6136188254612bf6565b61362382828561355f565b600060209050601f8311600181146136565760008415613644578287015190505b61364e85826135d0565b8655506136b6565b601f19841661366486613440565b60005b8281101561368c57848901518255600182019150602085019450602081019050613667565b868310156136a957848901516136a5601f8916826135b2565b8355505b6001600288020188555050505b505050505050565b7f5061757361626c653a206e6f7420706175736564000000000000000000000000600082015250565b60006136f4601483612587565b91506136ff826136be565b602082019050919050565b60006020820190508181036000830152613723816136e7565b9050919050565b7f5061757361626c653a2070617573656400000000000000000000000000000000600082015250565b6000613760601083612587565b915061376b8261372a565b602082019050919050565b6000602082019050818103600083015261378f81613753565b9050919050565b600081519050919050565b600082825260208201905092915050565b60006137bd82613796565b6137c781856137a1565b93506137d7818560208601612598565b6137e0816125c2565b840191505092915050565b600060808201905061380060008301876126c3565b61380d60208301866126c3565b61381a6040830185612759565b818103606083015261382c81846137b2565b905095945050505050565b600081519050613846816124ed565b92915050565b600060208284031215613862576138616124b7565b5b600061387084828501613837565b91505092915050565b7f455243373231456e756d657261626c653a20636f6e736563757469766520747260008201527f616e7366657273206e6f7420737570706f727465640000000000000000000000602082015250565b60006138d5603583612587565b91506138e082613879565b604082019050919050565b60006020820190508181036000830152613904816138c8565b9050919050565b7f4552433732313a206d696e7420746f20746865207a65726f2061646472657373600082015250565b6000613941602083612587565b915061394c8261390b565b602082019050919050565b6000602082019050818103600083015261397081613934565b9050919050565b7f4552433732313a20746f6b656e20616c7265616479206d696e74656400000000600082015250565b60006139ad601c83612587565b91506139b882613977565b602082019050919050565b600060208201905081810360008301526139dc816139a0565b9050919050565b7f4e487b7100000000000000000000000000000000000000000000000000000000600052601260045260246000fd5b7f4e487b7100000000000000000000000000000000000000000000000000000000600052601160045260246000fd5b6000613a4c8261262e565b9150613a578361262e565b9250828203905081811115613a6f57613a6e613a12565b5b92915050565b7f4e487b7100000000000000000000000000000000000000000000000000000000600052603160045260246000fdfea2646970667358221220ef87e8c430ea7834f13c483426da16ae7f65b908a6c7261d9cd7f8d81c3a3c8264736f6c63430008120033",
  "linkReferences": {},
  "deployedLinkReferences": {}
}