{
  "_format": "hh-sol-artifact-1",
  "contractName": "CSVMint",
  "sourceName": "contracts/CSVMint.sol",
  "abi": [
    {
      "inputs": [],
      "stateMutability": "nonpayable",
      "type": "constructor"
    },
    {
      "anonymous": false,
      "inputs": [
        {
          "indexed": true,
          "internalType": "address",
          "name": "owner",
          "type": "address"
        },
        {
          "indexed": true,
          "internalType": "address",
          "name": "approved",
          "type": "address"
        },
        {
          "indexed": true,
          "internalType": "uint256",
          "name": "tokenId",
          "type": "uint256"
        }
      ],
      "name": "Approval",
      "type": "event"
    },
    {
      "anonymous": false,
      "inputs": [
        {
          "indexed": true,
          "internalType": "address",
          "name": "owner",
          "type": "address"
        },
        {
          "indexed": true,
          "internalType": "address",
          "name": "operator",
          "type": "address"
        },
        {
          "indexed": false,
          "internalType": "bool",
          "name": "approved",
          "type": "bool"
        }
      ],
      "name": "ApprovalForAll",
      "type": "event"
    },
    {
      "anonymous": false,
      "inputs": [
        {
          "indexed": true,
          "internalType": "address",
          "name": "previousOwner",
          "type": "address"
        },
        {
          "indexed": true,
          "internalType": "address",
          "name": "newOwner",
          "type": "address"
        }
      ],
      "name": "OwnershipTransferred",
      "type": "event"
    },
    {
      "anonymous": false,
      "inputs": [
        {
          "indexed": false,
          "internalType": "address",
          "name": "account",
          "type": "address"
        }
      ],
      "name": "Paused",
      "type": "event"
    },
    {
      "anonymous": false,
      "inputs": [
        {
          "indexed": true,
          "internalType": "address",
          "name": "to",
          "type": "address"
        },
        {
          "indexed": true,
          "internalType": "uint256",
          "name": "tokenId",
          "type": "uint256"
        },
        {
          "indexed": false,
          "internalType": "string",
          "name": "csvHash",
          "type": "string"
        }
      ],
      "name": "TokenMinted",
      "type": "event"
    },
    {
      "anonymous": false,
      "inputs": [
        {
          "indexed": true,
          "internalType": "address",
          "name": "from",
          "type": "address"
        },
        {
          "indexed": true,
          "internalType": "address",
          "name": "to",
          "type": "address"
        },
        {
          "indexed": true,
          "internalType": "uint256",
          "name": "tokenId",
          "type": "uint256"
        }
      ],
      "name": "Transfer",
      "type": "event"
    },
    {
      "anonymous": false,
      "inputs": [
        {
          "indexed": false,
          "internalType": "address",
          "name": "account",
          "type": "address"
        }
      ],
      "name": "Unpaused",
      "type": "event"
    },
    {
      "inputs": [
        {
          "internalType": "address",
          "name": "to",
          "type": "address"
        },
        {
          "internalType": "uint256",
          "name": "tokenId",
          "type": "uint256"
        }
      ],
      "name": "approve",
      "outputs": [],
      "stateMutability": "nonpayable",
      "type": "function"
    },
    {
      "inputs": [
        {
          "internalType": "address",
          "name": "owner",
          "type": "address"
        }
      ],
      "name": "balanceOf",
      "outputs": [
        {
          "internalType": "uint256",
          "name": "",
          "type": "uint256"
        }
      ],
      "stateMutability": "view",
      "type": "function"
    },
    {
      "inputs": [
        {
          "internalType": "string",
          "name": "csvHash",
          "type": "string"
        }
      ],
      "name": "checkCSVToken",
      "outputs": [
        {
          "internalType": "bool",
          "name": "",
          "type": "bool"
        }
      ],
      "stateMutability": "view",
      "type": "function"
    },
    {
      "inputs": [],
      "name": "getAllCSVToken",
      "outputs": [
        {
          "internalType": "string[]",
          "name": "",
          "type": "string[]"
        }
      ],
      "stateMutability": "view",
      "type": "function"
    },
    {
      "inputs": [
        {
          "internalType": "uint256",
          "name": "tokenId",
          "type": "uint256"
        }
      ],
      "name": "getApproved",
      "outputs": [
        {
          "internalType": "address",
          "name": "",
          "type": "address"
        }
      ],
      "stateMutability": "view",
      "type": "function"
    },
    {
      "inputs": [
        {
          "internalType": "uint256",
          "name": "tokenId",
          "type": "uint256"
        }
      ],
      "name": "getCSVToken",
      "outputs": [
        {
          "internalType": "string",
          "name": "",
          "type": "string"
        }
      ],
      "stateMutability": "view",
      "type": "function"
    },
    {
      "inputs": [],
      "name": "getCSVTokenCount",
      "outputs": [
        {
          "internalType": "uint256",
          "name": "",
          "type": "uint256"
        }
      ],
      "stateMutability": "view",
      "type": "function"
    },
    {
      "inputs": [
        {
          "internalType": "address",
          "name": "owner",
          "type": "address"
        },
        {
          "internalType": "address",
          "name": "operator",
          "type": "address"
        }
      ],
      "name": "isApprovedForAll",
      "outputs": [
        {
          "internalType": "bool",
          "name": "",
          "type": "bool"
        }
      ],
      "stateMutability": "view",
      "type": "function"
    },
    {
      "inputs": [
        {
          "internalType": "string",
          "name": "csvHash",
          "type": "string"
        }
      ],
      "name": "mintCSV",
      "outputs": [],
      "stateMutability": "nonpayable",
      "type": "function"
    },
    {
      "inputs": [],
      "name": "name",
      "outputs": [
        {
          "internalType": "string",
          "name": "",
          "type": "string"
        }
      ],
      "stateMutability": "view",
      "type": "function"
    },
    {
      "inputs": [],
      "name": "owner",
      "outputs": [
        {
          "internalType": "address",
          "name": "",
          "type": "address"
        }
      ],
      "stateMutability": "view",
      "type": "function"
    },
    {
      "inputs": [
        {
          "internalType": "uint256",
          "name": "tokenId",
          "type": "uint256"
        }
      ],
      "name": "ownerOf",
      "outputs": [
        {
          "internalType": "address",
          "name": "",
          "type": "address"
        }
      ],
      "stateMutability": "view",
      "type": "function"
    },
    {
      "inputs": [],
      "name": "pause",
      "outputs": [],
      "stateMutability": "nonpayable",
      "type": "function"
    },
    {
      "inputs": [],
      "name": "paused",
      "outputs": [
        {
          "internalType": "bool",
          "name": "",
          "type": "bool"
        }
      ],
      "stateMutability": "view",
      "type": "function"
    },
    {
      "inputs": [],
      "name": "renounceOwnership",
      "outputs": [],
      "stateMutability": "nonpayable",
      "type": "function"
    },
    {
      "inputs": [
        {
          "internalType": "address",
          "name": "to",
          "type": "address"
        },
        {
          "internalType": "string",
          "name": "uri",
          "type": "string"
        }
      ],
      "name": "safeMint",
      "outputs": [],
      "stateMutability": "nonpayable",
      "type": "function"
    },
    {
      "inputs": [
        {
          "internalType": "address",
          "name": "from",
          "type": "address"
        },
        {
          "internalType": "address",
          "name": "to",
          "type": "address"
        },
        {
          "internalType": "uint256",
          "name": "tokenId",
          "type": "uint256"
        }
      ],
      "name": "safeTransferFrom",
      "outputs": [],
      "stateMutability": "nonpayable",
      "type": "function"
    },
    {
      "inputs": [
        {
          "internalType": "address",
          "name": "from",
          "type": "address"
        },
        {
          "internalType": "address",
          "name": "to",
          "type": "address"
        },
        {
          "internalType": "uint256",
          "name": "tokenId",
          "type": "uint256"
        },
        {
          "internalType": "bytes",
          "name": "data",
          "type": "bytes"
        }
      ],
      "name": "safeTransferFrom",
      "outputs": [],
      "stateMutability": "nonpayable",
      "type": "function"
    },
    {
      "inputs": [
        {
          "internalType": "address",
          "name": "operator",
          "type": "address"
        },
        {
          "internalType": "bool",
          "name": "approved",
          "type": "bool"
        }
      ],
      "name": "setApprovalForAll",
      "outputs": [],
      "stateMutability": "nonpayable",
      "type": "function"
    },
    {
      "inputs": [
        {
          "internalType": "bytes4",
          "name": "interfaceId",
          "type": "bytes4"
        }
      ],
      "name": "supportsInterface",
      "outputs": [
        {
          "internalType": "bool",
          "name": "",
          "type": "bool"
        }
      ],
      "stateMutability": "view",
      "type": "function"
    },
    {
      "inputs": [],
      "name": "symbol",
      "outputs": [
        {
          "internalType": "string",
          "name": "",
          "type": "string"
        }
      ],
      "stateMutability": "view",
      "type": "function"
    },
    {
      "inputs": [
        {
          "internalType": "uint256",
          "name": "index",
          "type": "uint256"
        }
      ],
      "name": "tokenByIndex",
      "outputs": [
        {
          "internalType": "uint256",
          "name": "",
          "type": "uint256"
        }
      ],
      "stateMutability": "view",
      "type": "function"
    },
    {
      "inputs": [
        {
          "internalType": "address",
          "name": "owner",
          "type": "address"
        },
        {
          "internalType": "uint256",
          "name": "index",
          "type": "uint256"
        }
      ],
      "name": "tokenOfOwnerByIndex",
      "outputs": [
        {
          "internalType": "uint256",
          "name": "",
          "type": "uint256"
        }
      ],
      "stateMutability": "view",
      "type": "function"
    },
    {
      "inputs": [
        {
          "internalType": "uint256",
          "name": "tokenId",
          "type": "uint256"
        }
      ],
      "name": "tokenURI",
      "outputs": [
        {
          "internalType": "string",
          "name": "",
          "type": "string"
        }
      ],
      "stateMutability": "view",
      "type": "function"
    },
    {
      "inputs": [],
      "name": "totalSupply",
      "outputs": [
        {
          "internalType": "uint256",
          "name": "",
          "type": "uint256"
        }
      ],
      "stateMutability": "view",
      "type": "function"
    },
    {
      "inputs": [
        {
          "internalType": "address",
          "name": "from",
          "type": "address"
        },
        {
          "internalType": "address",
          "name": "to",
          "type": "address"
        },
        {
          "internalType": "uint256",
          "name": "tokenId",
          "type": "uint256"
        }
      ],
      "name": "transferFrom",
      "outputs": [],
      "stateMutability": "nonpayable",
      "type": "function"
    },
    {
      "inputs": [
        {
          "internalType": "address",
          "name": "newOwner",
          "type": "address"
        }
      ],
      "name": "transferOwnership",
      "outputs": [],
      "stateMutability": "nonpayable",
      "type": "function"
    },
    {
      "inputs": [
        {
          "internalType": "uint256",
          "name": "value",
          "type": "uint256"
        }
      ],
      "name": "uintToString",
      "outputs": [
        {
          "internalType": "string",
          "name": "",
          "type": "string"
        }
      ],
      "stateMutability": "pure",
      "type": "function"
    },
    {
      "inputs": [],
      "name": "unpause",
      "outputs": [],
      "stateMutability": "nonpayable",
      "type": "function"
    }
  ],
  "bytecode": "0x60806040523480156200001157600080fd5b506040518060400160405280600781526020017f4353564d696e74000000000000000000000000000000000000000000000000008152506040518060400160405280600381526020017f435356000000000000000000000000000000000000000000000000000000000081525081600090816200008f91906200042d565b508060019081620000a191906200042d565b5050506000600b60006101000a81548160ff021916908315150217905550620000df620000d3620000e560201b60201c565b620000ed60201b60201c565b62000514565b600033905090565b6000600b60019054906101000a900473ffffffffffffffffffffffffffffffffffffffff16905081600b60016101000a81548173ffffffffffffffffffffffffffffffffffffffff021916908373ffffffffffffffffffffffffffffffffffffffff1602179055508173ffffffffffffffffffffffffffffffffffffffff168173ffffffffffffffffffffffffffffffffffffffff167f8be0079c531659141344cd1fd0a4f28419497f9722a3daafe3b4186f6b6457e060405160405180910390a35050565b600081519050919050565b7f4e487b7100000000000000000000000000000000000000000000000000000000600052604160045260246000fd5b7f4e487b7100000000000000000000000000000000000000000000000000000000600052602260045260246000fd5b600060028204905060018216806200023557607f821691505b6020821081036200024b576200024a620001ed565b5b50919050565b60008190508160005260206000209050919050565b60006020601f8301049050919050565b600082821b905092915050565b600060088302620002b57fffffffffffffffffffffffffffffffffffffffffffffffffffffffffffffffff8262000276565b620002c1868362000276565b95508019841693508086168417925050509392505050565b6000819050919050565b6000819050919050565b60006200030e620003086200030284620002d9565b620002e3565b620002d9565b9050919050565b6000819050919050565b6200032a83620002ed565b62000342620003398262000315565b84845462000283565b825550505050565b600090565b620003596200034a565b620003668184846200031f565b505050565b5b818110156200038e57620003826000826200034f565b6001810190506200036c565b5050565b601f821115620003dd57620003a78162000251565b620003b28462000266565b81016020851015620003c2578190505b620003da620003d18562000266565b8301826200036b565b50505b505050565b600082821c905092915050565b60006200040260001984600802620003e2565b1980831691505092915050565b60006200041d8383620003ef565b9150826002028217905092915050565b6200043882620001b3565b67ffffffffffffffff811115620004545762000453620001be565b5b6200046082546200021c565b6200046d82828562000392565b600060209050601f831160018114620004a5576000841562000490578287015190505b6200049c85826200040f565b8655506200050c565b601f198416620004b58662000251565b60005b82811015620004df57848901518255600182019150602085019450602081019050620004b8565b86831015620004ff5784890151620004fb601f891682620003ef565b8355505b6001600288020188555050505b505050505050565b61428b80620005246000396000f3fe608060405234801561001057600080fd5b50600436106101cf5760003560e01c806370a0823111610104578063b88d4fde116100a2578063d464b3aa11610071578063d464b3aa1461051c578063e939567914610538578063e985e9c514610568578063f2fde38b14610598576101cf565b8063b88d4fde14610484578063bc12fc6b146104a0578063c87b56dd146104d0578063d204c45e14610500576101cf565b80638da5cb5b116100de5780638da5cb5b1461040e57806395d89b411461042c578063a22cb4651461044a578063a5f0f9a314610466576101cf565b806370a08231146103ca578063715018a6146103fa5780638456cb5914610404576101cf565b80633f4ba83a116101715780635705eb061161014b5780635705eb061461032e5780635c975abb1461034c578063612934601461036a5780636352211e1461039a576101cf565b80633f4ba83a146102d857806342842e0e146102e25780634f6ccce7146102fe576101cf565b8063095ea7b3116101ad578063095ea7b31461025257806318160ddd1461026e57806323b872dd1461028c5780632f745c59146102a8576101cf565b806301ffc9a7146101d457806306fdde0314610204578063081812fc14610222575b600080fd5b6101ee60048036038101906101e99190612a89565b6105b4565b6040516101fb9190612ad1565b60405180910390f35b61020c6105c6565b6040516102199190612b7c565b60405180910390f35b61023c60048036038101906102379190612bd4565b610658565b6040516102499190612c42565b60405180910390f35b61026c60048036038101906102679190612c89565b61069e565b005b6102766107b5565b6040516102839190612cd8565b60405180910390f35b6102a660048036038101906102a19190612cf3565b6107c2565b005b6102c260048036038101906102bd9190612c89565b610822565b6040516102cf9190612cd8565b60405180910390f35b6102e06108c7565b005b6102fc60048036038101906102f79190612cf3565b6108d9565b005b61031860048036038101906103139190612bd4565b6108f9565b6040516103259190612cd8565b60405180910390f35b61033661096a565b6040516103439190612e52565b60405180910390f35b610354610a43565b6040516103619190612ad1565b60405180910390f35b610384600480360381019061037f9190612fa9565b610a5a565b6040516103919190612ad1565b60405180910390f35b6103b460048036038101906103af9190612bd4565b610b0b565b6040516103c19190612c42565b60405180910390f35b6103e460048036038101906103df9190612ff2565b610b91565b6040516103f19190612cd8565b60405180910390f35b610402610c48565b005b61040c610c5c565b005b610416610c6e565b6040516104239190612c42565b60405180910390f35b610434610c98565b6040516104419190612b7c565b60405180910390f35b610464600480360381019061045f919061304b565b610d2a565b005b61046e610d40565b60405161047b9190612cd8565b60405180910390f35b61049e6004803603810190610499919061312c565b610d51565b005b6104ba60048036038101906104b59190612bd4565b610db3565b6040516104c79190612b7c565b60405180910390f35b6104ea60048036038101906104e59190612bd4565b610e63565b6040516104f79190612b7c565b60405180910390f35b61051a600480360381019061051591906131af565b610e75565b005b61053660048036038101906105319190612fa9565b610eae565b005b610552600480360381019061054d9190612bd4565b610f09565b60405161055f9190612b7c565b60405180910390f35b610582600480360381019061057d919061320b565b6110b6565b60405161058f9190612ad1565b60405180910390f35b6105b260048036038101906105ad9190612ff2565b61114a565b005b60006105bf826111cd565b9050919050565b6060600080546105d59061327a565b80601f01602080910402602001604051908101604052809291908181526020018280546106019061327a565b801561064e5780601f106106235761010080835404028352916020019161064e565b820191906000526020600020905b81548152906001019060200180831161063157829003601f168201915b5050505050905090565b600061066382611247565b6004600083815260200190815260200160002060009054906101000a900473ffffffffffffffffffffffffffffffffffffffff169050919050565b60006106a982610b0b565b90508073ffffffffffffffffffffffffffffffffffffffff168373ffffffffffffffffffffffffffffffffffffffff1603610719576040517f08c379a00000000000000000000000000000000000000000000000000000000081526004016107109061331d565b60405180910390fd5b8073ffffffffffffffffffffffffffffffffffffffff16610738611292565b73ffffffffffffffffffffffffffffffffffffffff161480610767575061076681610761611292565b6110b6565b5b6107a6576040517f08c379a000000000000000000000000000000000000000000000000000000000815260040161079d906133af565b60405180910390fd5b6107b0838361129a565b505050565b6000600880549050905090565b6107d36107cd611292565b82611353565b610812576040517f08c379a000000000000000000000000000000000000000000000000000000000815260040161080990613441565b60405180910390fd5b61081d8383836113e8565b505050565b600061082d83610b91565b821061086e576040517f08c379a0000000000000000000000000000000000000000000000000000000008152600401610865906134d3565b60405180910390fd5b600660008473ffffffffffffffffffffffffffffffffffffffff1673ffffffffffffffffffffffffffffffffffffffff168152602001908152602001600020600083815260200190815260200160002054905092915050565b6108cf6116e1565b6108d761175f565b565b6108f483838360405180602001604052806000815250610d51565b505050565b60006109036107b5565b8210610944576040517f08c379a000000000000000000000000000000000000000000000000000000000815260040161093b90613565565b60405180910390fd5b6008828154811061095857610957613585565b5b90600052602060002001549050919050565b6060600d805480602002602001604051908101604052809291908181526020016000905b82821015610a3a5783829060005260206000200180546109ad9061327a565b80601f01602080910402602001604051908101604052809291908181526020018280546109d99061327a565b8015610a265780601f106109fb57610100808354040283529160200191610a26565b820191906000526020600020905b815481529060010190602001808311610a0957829003601f168201915b50505050508152602001906001019061098e565b50505050905090565b6000600b60009054906101000a900460ff16905090565b600080600090505b610a6c600c6117c2565b811015610b0057600d8181548110610a8757610a86613585565b5b90600052602060002001604051602001610aa19190613657565b6040516020818303038152906040528051906020012083604051602001610ac8919061369f565b6040516020818303038152906040528051906020012003610aed576001915050610b06565b8080610af8906136e5565b915050610a62565b50600090505b919050565b600080610b17836117d0565b9050600073ffffffffffffffffffffffffffffffffffffffff168173ffffffffffffffffffffffffffffffffffffffff1603610b88576040517f08c379a0000000000000000000000000000000000000000000000000000000008152600401610b7f90613779565b60405180910390fd5b80915050919050565b60008073ffffffffffffffffffffffffffffffffffffffff168273ffffffffffffffffffffffffffffffffffffffff1603610c01576040517f08c379a0000000000000000000000000000000000000000000000000000000008152600401610bf89061380b565b60405180910390fd5b600360008373ffffffffffffffffffffffffffffffffffffffff1673ffffffffffffffffffffffffffffffffffffffff168152602001908152602001600020549050919050565b610c506116e1565b610c5a600061180d565b565b610c646116e1565b610c6c6118d3565b565b6000600b60019054906101000a900473ffffffffffffffffffffffffffffffffffffffff16905090565b606060018054610ca79061327a565b80601f0160208091040260200160405190810160405280929190818152602001828054610cd39061327a565b8015610d205780601f10610cf557610100808354040283529160200191610d20565b820191906000526020600020905b815481529060010190602001808311610d0357829003601f168201915b5050505050905090565b610d3c610d35611292565b8383611936565b5050565b6000610d4c600c6117c2565b905090565b610d62610d5c611292565b83611353565b610da1576040517f08c379a0000000000000000000000000000000000000000000000000000000008152600401610d9890613441565b60405180910390fd5b610dad84848484611aa2565b50505050565b6060600d8281548110610dc957610dc8613585565b5b906000526020600020018054610dde9061327a565b80601f0160208091040260200160405190810160405280929190818152602001828054610e0a9061327a565b8015610e575780601f10610e2c57610100808354040283529160200191610e57565b820191906000526020600020905b815481529060010190602001808311610e3a57829003601f168201915b50505050509050919050565b6060610e6e82611afe565b9050919050565b610e7d6116e1565b6000610e89600c6117c2565b9050610e95600c611c10565b610e9f8382611c26565b610ea98183611c44565b505050565b6000610eba600c6117c2565b9050610ec6600c611c10565b610ed03382611c26565b600d82908060018154018082558091505060019003906000526020600020016000909190919091509081610f0491906139c2565b505050565b60606000602067ffffffffffffffff811115610f2857610f27612e7e565b5b6040519080825280601f01601f191660200182016040528015610f5a5781602001600182028036833780820191505090505b50905082602082015260005b600060f81b82602083610f799190613a94565b81518110610f8a57610f89613585565b5b602001015160f81c60f81b7effffffffffffffffffffffffffffffffffffffffffffffffffffffffffffff191614610fcf578080610fc7906136e5565b915050610f66565b60008167ffffffffffffffff811115610feb57610fea612e7e565b5b6040519080825280601f01601f19166020018201604052801561101d5781602001600182028036833780820191505090505b50905060005b828110156110aa57836020826110399190613a94565b8151811061104a57611049613585565b5b602001015160f81c60f81b82828151811061106857611067613585565b5b60200101907effffffffffffffffffffffffffffffffffffffffffffffffffffffffffffff1916908160001a90535080806110a2906136e5565b915050611023565b50809350505050919050565b6000600560008473ffffffffffffffffffffffffffffffffffffffff1673ffffffffffffffffffffffffffffffffffffffff16815260200190815260200160002060008373ffffffffffffffffffffffffffffffffffffffff1673ffffffffffffffffffffffffffffffffffffffff16815260200190815260200160002060009054906101000a900460ff16905092915050565b6111526116e1565b600073ffffffffffffffffffffffffffffffffffffffff168173ffffffffffffffffffffffffffffffffffffffff16036111c1576040517f08c379a00000000000000000000000000000000000000000000000000000000081526004016111b890613b3a565b60405180910390fd5b6111ca8161180d565b50565b60007f780e9d63000000000000000000000000000000000000000000000000000000007bffffffffffffffffffffffffffffffffffffffffffffffffffffffff1916827bffffffffffffffffffffffffffffffffffffffffffffffffffffffff19161480611240575061123f82611cb1565b5b9050919050565b61125081611d93565b61128f576040517f08c379a000000000000000000000000000000000000000000000000000000000815260040161128690613779565b60405180910390fd5b50565b600033905090565b816004600083815260200190815260200160002060006101000a81548173ffffffffffffffffffffffffffffffffffffffff021916908373ffffffffffffffffffffffffffffffffffffffff160217905550808273ffffffffffffffffffffffffffffffffffffffff1661130d83610b0b565b73ffffffffffffffffffffffffffffffffffffffff167f8c5be1e5ebec7d5bd14f71427d1e84f3dd0314c0f7b2291e5b200ac8c7c3b92560405160405180910390a45050565b60008061135f83610b0b565b90508073ffffffffffffffffffffffffffffffffffffffff168473ffffffffffffffffffffffffffffffffffffffff1614806113a157506113a081856110b6565b5b806113df57508373ffffffffffffffffffffffffffffffffffffffff166113c784610658565b73ffffffffffffffffffffffffffffffffffffffff16145b91505092915050565b8273ffffffffffffffffffffffffffffffffffffffff1661140882610b0b565b73ffffffffffffffffffffffffffffffffffffffff161461145e576040517f08c379a000000000000000000000000000000000000000000000000000000000815260040161145590613bcc565b60405180910390fd5b600073ffffffffffffffffffffffffffffffffffffffff168273ffffffffffffffffffffffffffffffffffffffff16036114cd576040517f08c379a00000000000000000000000000000000000000000000000000000000081526004016114c490613c5e565b60405180910390fd5b6114da8383836001611dd4565b8273ffffffffffffffffffffffffffffffffffffffff166114fa82610b0b565b73ffffffffffffffffffffffffffffffffffffffff1614611550576040517f08c379a000000000000000000000000000000000000000000000000000000000815260040161154790613bcc565b60405180910390fd5b6004600082815260200190815260200160002060006101000a81549073ffffffffffffffffffffffffffffffffffffffff02191690556001600360008573ffffffffffffffffffffffffffffffffffffffff1673ffffffffffffffffffffffffffffffffffffffff168152602001908152602001600020600082825403925050819055506001600360008473ffffffffffffffffffffffffffffffffffffffff1673ffffffffffffffffffffffffffffffffffffffff16815260200190815260200160002060008282540192505081905550816002600083815260200190815260200160002060006101000a81548173ffffffffffffffffffffffffffffffffffffffff021916908373ffffffffffffffffffffffffffffffffffffffff160217905550808273ffffffffffffffffffffffffffffffffffffffff168473ffffffffffffffffffffffffffffffffffffffff167fddf252ad1be2c89b69c2b068fc378daa952ba7f163c4a11628f55a4df523b3ef60405160405180910390a46116dc8383836001611dee565b505050565b6116e9611292565b73ffffffffffffffffffffffffffffffffffffffff16611707610c6e565b73ffffffffffffffffffffffffffffffffffffffff161461175d576040517f08c379a000000000000000000000000000000000000000000000000000000000815260040161175490613cca565b60405180910390fd5b565b611767611df4565b6000600b60006101000a81548160ff0219169083151502179055507f5db9ee0a495bf2e6ff9c91a7834c1ba4fdd244a5e8aa4e537bd38aeae4b073aa6117ab611292565b6040516117b89190612c42565b60405180910390a1565b600081600001549050919050565b60006002600083815260200190815260200160002060009054906101000a900473ffffffffffffffffffffffffffffffffffffffff169050919050565b6000600b60019054906101000a900473ffffffffffffffffffffffffffffffffffffffff16905081600b60016101000a81548173ffffffffffffffffffffffffffffffffffffffff021916908373ffffffffffffffffffffffffffffffffffffffff1602179055508173ffffffffffffffffffffffffffffffffffffffff168173ffffffffffffffffffffffffffffffffffffffff167f8be0079c531659141344cd1fd0a4f28419497f9722a3daafe3b4186f6b6457e060405160405180910390a35050565b6118db611e3d565b6001600b60006101000a81548160ff0219169083151502179055507f62e78cea01bee320cd4e420270b5ea74000d11b0c9f74754ebdbfc544b05a25861191f611292565b60405161192c9190612c42565b60405180910390a1565b8173ffffffffffffffffffffffffffffffffffffffff168373ffffffffffffffffffffffffffffffffffffffff16036119a4576040517f08c379a000000000000000000000000000000000000000000000000000000000815260040161199b90613d36565b60405180910390fd5b80600560008573ffffffffffffffffffffffffffffffffffffffff1673ffffffffffffffffffffffffffffffffffffffff16815260200190815260200160002060008473ffffffffffffffffffffffffffffffffffffffff1673ffffffffffffffffffffffffffffffffffffffff16815260200190815260200160002060006101000a81548160ff0219169083151502179055508173ffffffffffffffffffffffffffffffffffffffff168373ffffffffffffffffffffffffffffffffffffffff167f17307eab39ab6107e8899845ad3d59bd9653f200f220920489ca2b5937696c3183604051611a959190612ad1565b60405180910390a3505050565b611aad8484846113e8565b611ab984848484611e87565b611af8576040517f08c379a0000000000000000000000000000000000000000000000000000000008152600401611aef90613dc8565b60405180910390fd5b50505050565b6060611b0982611247565b6000600a60008481526020019081526020016000208054611b299061327a565b80601f0160208091040260200160405190810160405280929190818152602001828054611b559061327a565b8015611ba25780601f10611b7757610100808354040283529160200191611ba2565b820191906000526020600020905b815481529060010190602001808311611b8557829003601f168201915b505050505090506000611bb361200e565b90506000815103611bc8578192505050611c0b565b600082511115611bfd578082604051602001611be5929190613de8565b60405160208183030381529060405292505050611c0b565b611c0684612025565b925050505b919050565b6001816000016000828254019250508190555050565b611c4082826040518060200160405280600081525061208d565b5050565b611c4d82611d93565b611c8c576040517f08c379a0000000000000000000000000000000000000000000000000000000008152600401611c8390613e7e565b60405180910390fd5b80600a60008481526020019081526020016000209081611cac91906139c2565b505050565b60007f80ac58cd000000000000000000000000000000000000000000000000000000007bffffffffffffffffffffffffffffffffffffffffffffffffffffffff1916827bffffffffffffffffffffffffffffffffffffffffffffffffffffffff19161480611d7c57507f5b5e139f000000000000000000000000000000000000000000000000000000007bffffffffffffffffffffffffffffffffffffffffffffffffffffffff1916827bffffffffffffffffffffffffffffffffffffffffffffffffffffffff1916145b80611d8c5750611d8b826120e8565b5b9050919050565b60008073ffffffffffffffffffffffffffffffffffffffff16611db5836117d0565b73ffffffffffffffffffffffffffffffffffffffff1614159050919050565b611ddc611e3d565b611de884848484612152565b50505050565b50505050565b611dfc610a43565b611e3b576040517f08c379a0000000000000000000000000000000000000000000000000000000008152600401611e3290613eea565b60405180910390fd5b565b611e45610a43565b15611e85576040517f08c379a0000000000000000000000000000000000000000000000000000000008152600401611e7c90613f56565b60405180910390fd5b565b6000611ea88473ffffffffffffffffffffffffffffffffffffffff166122b0565b15612001578373ffffffffffffffffffffffffffffffffffffffff1663150b7a02611ed1611292565b8786866040518563ffffffff1660e01b8152600401611ef39493929190613fcb565b6020604051808303816000875af1925050508015611f2f57506040513d601f19601f82011682018060405250810190611f2c919061402c565b60015b611fb1573d8060008114611f5f576040519150601f19603f3d011682016040523d82523d6000602084013e611f64565b606091505b506000815103611fa9576040517f08c379a0000000000000000000000000000000000000000000000000000000008152600401611fa090613dc8565b60405180910390fd5b805181602001fd5b63150b7a0260e01b7bffffffffffffffffffffffffffffffffffffffffffffffffffffffff1916817bffffffffffffffffffffffffffffffffffffffffffffffffffffffff191614915050612006565b600190505b949350505050565b606060405180602001604052806000815250905090565b606061203082611247565b600061203a61200e565b9050600081511161205a5760405180602001604052806000815250612085565b80612064846122d3565b604051602001612075929190613de8565b6040516020818303038152906040525b915050919050565b61209783836123a1565b6120a46000848484611e87565b6120e3576040517f08c379a00000000000000000000000000000000000000000000000000000000081526004016120da90613dc8565b60405180910390fd5b505050565b60007f01ffc9a7000000000000000000000000000000000000000000000000000000007bffffffffffffffffffffffffffffffffffffffffffffffffffffffff1916827bffffffffffffffffffffffffffffffffffffffffffffffffffffffff1916149050919050565b61215e848484846125be565b60018111156121a2576040517f08c379a0000000000000000000000000000000000000000000000000000000008152600401612199906140cb565b60405180910390fd5b6000829050600073ffffffffffffffffffffffffffffffffffffffff168573ffffffffffffffffffffffffffffffffffffffff16036121e9576121e4816125c4565b612228565b8373ffffffffffffffffffffffffffffffffffffffff168573ffffffffffffffffffffffffffffffffffffffff161461222757612226858261260d565b5b5b600073ffffffffffffffffffffffffffffffffffffffff168473ffffffffffffffffffffffffffffffffffffffff160361226a576122658161277a565b6122a9565b8473ffffffffffffffffffffffffffffffffffffffff168473ffffffffffffffffffffffffffffffffffffffff16146122a8576122a7848261284b565b5b5b5050505050565b6000808273ffffffffffffffffffffffffffffffffffffffff163b119050919050565b6060600060016122e2846128ca565b01905060008167ffffffffffffffff81111561230157612300612e7e565b5b6040519080825280601f01601f1916602001820160405280156123335781602001600182028036833780820191505090505b509050600082602001820190505b600115612396578080600190039150507f3031323334353637383961626364656600000000000000000000000000000000600a86061a8153600a858161238a576123896140eb565b5b04945060008503612341575b819350505050919050565b600073ffffffffffffffffffffffffffffffffffffffff168273ffffffffffffffffffffffffffffffffffffffff1603612410576040517f08c379a000000000000000000000000000000000000000000000000000000000815260040161240790614166565b60405180910390fd5b61241981611d93565b15612459576040517f08c379a0000000000000000000000000000000000000000000000000000000008152600401612450906141d2565b60405180910390fd5b612467600083836001611dd4565b61247081611d93565b156124b0576040517f08c379a00000000000000000000000000000000000000000000000000000000081526004016124a7906141d2565b60405180910390fd5b6001600360008473ffffffffffffffffffffffffffffffffffffffff1673ffffffffffffffffffffffffffffffffffffffff16815260200190815260200160002060008282540192505081905550816002600083815260200190815260200160002060006101000a81548173ffffffffffffffffffffffffffffffffffffffff021916908373ffffffffffffffffffffffffffffffffffffffff160217905550808273ffffffffffffffffffffffffffffffffffffffff16600073ffffffffffffffffffffffffffffffffffffffff167fddf252ad1be2c89b69c2b068fc378daa952ba7f163c4a11628f55a4df523b3ef60405160405180910390a46125ba600083836001611dee565b5050565b50505050565b6008805490506009600083815260200190815260200160002081905550600881908060018154018082558091505060019003906000526020600020016000909190919091505550565b6000600161261a84610b91565b61262491906141f2565b9050600060076000848152602001908152602001600020549050818114612709576000600660008673ffffffffffffffffffffffffffffffffffffffff1673ffffffffffffffffffffffffffffffffffffffff168152602001908152602001600020600084815260200190815260200160002054905080600660008773ffffffffffffffffffffffffffffffffffffffff1673ffffffffffffffffffffffffffffffffffffffff168152602001908152602001600020600084815260200190815260200160002081905550816007600083815260200190815260200160002081905550505b6007600084815260200190815260200160002060009055600660008573ffffffffffffffffffffffffffffffffffffffff1673ffffffffffffffffffffffffffffffffffffffff16815260200190815260200160002060008381526020019081526020016000206000905550505050565b6000600160088054905061278e91906141f2565b90506000600960008481526020019081526020016000205490506000600883815481106127be576127bd613585565b5b9060005260206000200154905080600883815481106127e0576127df613585565b5b90600052602060002001819055508160096000838152602001908152602001600020819055506009600085815260200190815260200160002060009055600880548061282f5761282e614226565b5b6001900381819060005260206000200160009055905550505050565b600061285683610b91565b905081600660008573ffffffffffffffffffffffffffffffffffffffff1673ffffffffffffffffffffffffffffffffffffffff168152602001908152602001600020600083815260200190815260200160002081905550806007600084815260200190815260200160002081905550505050565b600080600090507a184f03e93ff9f4daa797ed6e38ed64bf6a1f0100000000000000008310612928577a184f03e93ff9f4daa797ed6e38ed64bf6a1f010000000000000000838161291e5761291d6140eb565b5b0492506040810190505b6d04ee2d6d415b85acef81000000008310612965576d04ee2d6d415b85acef8100000000838161295b5761295a6140eb565b5b0492506020810190505b662386f26fc10000831061299457662386f26fc10000838161298a576129896140eb565b5b0492506010810190505b6305f5e10083106129bd576305f5e10083816129b3576129b26140eb565b5b0492506008810190505b61271083106129e25761271083816129d8576129d76140eb565b5b0492506004810190505b60648310612a0557606483816129fb576129fa6140eb565b5b0492506002810190505b600a8310612a14576001810190505b80915050919050565b6000604051905090565b600080fd5b600080fd5b60007fffffffff0000000000000000000000000000000000000000000000000000000082169050919050565b612a6681612a31565b8114612a7157600080fd5b50565b600081359050612a8381612a5d565b92915050565b600060208284031215612a9f57612a9e612a27565b5b6000612aad84828501612a74565b91505092915050565b60008115159050919050565b612acb81612ab6565b82525050565b6000602082019050612ae66000830184612ac2565b92915050565b600081519050919050565b600082825260208201905092915050565b60005b83811015612b26578082015181840152602081019050612b0b565b60008484015250505050565b6000601f19601f8301169050919050565b6000612b4e82612aec565b612b588185612af7565b9350612b68818560208601612b08565b612b7181612b32565b840191505092915050565b60006020820190508181036000830152612b968184612b43565b905092915050565b6000819050919050565b612bb181612b9e565b8114612bbc57600080fd5b50565b600081359050612bce81612ba8565b92915050565b600060208284031215612bea57612be9612a27565b5b6000612bf884828501612bbf565b91505092915050565b600073ffffffffffffffffffffffffffffffffffffffff82169050919050565b6000612c2c82612c01565b9050919050565b612c3c81612c21565b82525050565b6000602082019050612c576000830184612c33565b92915050565b612c6681612c21565b8114612c7157600080fd5b50565b600081359050612c8381612c5d565b92915050565b60008060408385031215612ca057612c9f612a27565b5b6000612cae85828601612c74565b9250506020612cbf85828601612bbf565b9150509250929050565b612cd281612b9e565b82525050565b6000602082019050612ced6000830184612cc9565b92915050565b600080600060608486031215612d0c57612d0b612a27565b5b6000612d1a86828701612c74565b9350506020612d2b86828701612c74565b9250506040612d3c86828701612bbf565b9150509250925092565b600081519050919050565b600082825260208201905092915050565b6000819050602082019050919050565b600082825260208201905092915050565b6000612d8e82612aec565b612d988185612d72565b9350612da8818560208601612b08565b612db181612b32565b840191505092915050565b6000612dc88383612d83565b905092915050565b6000602082019050919050565b6000612de882612d46565b612df28185612d51565b935083602082028501612e0485612d62565b8060005b85811015612e405784840389528151612e218582612dbc565b9450612e2c83612dd0565b925060208a01995050600181019050612e08565b50829750879550505050505092915050565b60006020820190508181036000830152612e6c8184612ddd565b905092915050565b600080fd5b600080fd5b7f4e487b7100000000000000000000000000000000000000000000000000000000600052604160045260246000fd5b612eb682612b32565b810181811067ffffffffffffffff82111715612ed557612ed4612e7e565b5b80604052505050565b6000612ee8612a1d565b9050612ef48282612ead565b919050565b600067ffffffffffffffff821115612f1457612f13612e7e565b5b612f1d82612b32565b9050602081019050919050565b82818337600083830152505050565b6000612f4c612f4784612ef9565b612ede565b905082815260208101848484011115612f6857612f67612e79565b5b612f73848285612f2a565b509392505050565b600082601f830112612f9057612f8f612e74565b5b8135612fa0848260208601612f39565b91505092915050565b600060208284031215612fbf57612fbe612a27565b5b600082013567ffffffffffffffff811115612fdd57612fdc612a2c565b5b612fe984828501612f7b565b91505092915050565b60006020828403121561300857613007612a27565b5b600061301684828501612c74565b91505092915050565b61302881612ab6565b811461303357600080fd5b50565b6000813590506130458161301f565b92915050565b6000806040838503121561306257613061612a27565b5b600061307085828601612c74565b925050602061308185828601613036565b9150509250929050565b600067ffffffffffffffff8211156130a6576130a5612e7e565b5b6130af82612b32565b9050602081019050919050565b60006130cf6130ca8461308b565b612ede565b9050828152602081018484840111156130eb576130ea612e79565b5b6130f6848285612f2a565b509392505050565b600082601f83011261311357613112612e74565b5b81356131238482602086016130bc565b91505092915050565b6000806000806080858703121561314657613145612a27565b5b600061315487828801612c74565b945050602061316587828801612c74565b935050604061317687828801612bbf565b925050606085013567ffffffffffffffff81111561319757613196612a2c565b5b6131a3878288016130fe565b91505092959194509250565b600080604083850312156131c6576131c5612a27565b5b60006131d485828601612c74565b925050602083013567ffffffffffffffff8111156131f5576131f4612a2c565b5b61320185828601612f7b565b9150509250929050565b6000806040838503121561322257613221612a27565b5b600061323085828601612c74565b925050602061324185828601612c74565b9150509250929050565b7f4e487b7100000000000000000000000000000000000000000000000000000000600052602260045260246000fd5b6000600282049050600182168061329257607f821691505b6020821081036132a5576132a461324b565b5b50919050565b7f4552433732313a20617070726f76616c20746f2063757272656e74206f776e6560008201527f7200000000000000000000000000000000000000000000000000000000000000602082015250565b6000613307602183612af7565b9150613312826132ab565b604082019050919050565b60006020820190508181036000830152613336816132fa565b9050919050565b7f4552433732313a20617070726f76652063616c6c6572206973206e6f7420746f60008201527f6b656e206f776e6572206f7220617070726f76656420666f7220616c6c000000602082015250565b6000613399603d83612af7565b91506133a48261333d565b604082019050919050565b600060208201905081810360008301526133c88161338c565b9050919050565b7f4552433732313a2063616c6c6572206973206e6f7420746f6b656e206f776e6560008201527f72206f7220617070726f76656400000000000000000000000000000000000000602082015250565b600061342b602d83612af7565b9150613436826133cf565b604082019050919050565b6000602082019050818103600083015261345a8161341e565b9050919050565b7f455243373231456e756d657261626c653a206f776e657220696e646578206f7560008201527f74206f6620626f756e6473000000000000000000000000000000000000000000602082015250565b60006134bd602b83612af7565b91506134c882613461565b604082019050919050565b600060208201905081810360008301526134ec816134b0565b9050919050565b7f455243373231456e756d657261626c653a20676c6f62616c20696e646578206f60008201527f7574206f6620626f756e64730000000000000000000000000000000000000000602082015250565b600061354f602c83612af7565b915061355a826134f3565b604082019050919050565b6000602082019050818103600083015261357e81613542565b9050919050565b7f4e487b7100000000000000000000000000000000000000000000000000000000600052603260045260246000fd5b600081905092915050565b60008190508160005260206000209050919050565b600081546135e18161327a565b6135eb81866135b4565b94506001821660008114613606576001811461361b5761364e565b60ff198316865281151582028601935061364e565b613624856135bf565b60005b8381101561364657815481890152600182019150602081019050613627565b838801955050505b50505092915050565b600061366382846135d4565b915081905092915050565b600061367982612aec565b61368381856135b4565b9350613693818560208601612b08565b80840191505092915050565b60006136ab828461366e565b915081905092915050565b7f4e487b7100000000000000000000000000000000000000000000000000000000600052601160045260246000fd5b60006136f082612b9e565b91507fffffffffffffffffffffffffffffffffffffffffffffffffffffffffffffffff8203613722576137216136b6565b5b600182019050919050565b7f4552433732313a20696e76616c696420746f6b656e2049440000000000000000600082015250565b6000613763601883612af7565b915061376e8261372d565b602082019050919050565b6000602082019050818103600083015261379281613756565b9050919050565b7f4552433732313a2061646472657373207a65726f206973206e6f74206120766160008201527f6c6964206f776e65720000000000000000000000000000000000000000000000602082015250565b60006137f5602983612af7565b915061380082613799565b604082019050919050565b60006020820190508181036000830152613824816137e8565b9050919050565b60006020601f8301049050919050565b600082821b905092915050565b6000600883026138787fffffffffffffffffffffffffffffffffffffffffffffffffffffffffffffffff8261383b565b613882868361383b565b95508019841693508086168417925050509392505050565b6000819050919050565b60006138bf6138ba6138b584612b9e565b61389a565b612b9e565b9050919050565b6000819050919050565b6138d9836138a4565b6138ed6138e5826138c6565b848454613848565b825550505050565b600090565b6139026138f5565b61390d8184846138d0565b505050565b5b81811015613931576139266000826138fa565b600181019050613913565b5050565b601f82111561397657613947816135bf565b6139508461382b565b8101602085101561395f578190505b61397361396b8561382b565b830182613912565b50505b505050565b600082821c905092915050565b60006139996000198460080261397b565b1980831691505092915050565b60006139b28383613988565b9150826002028217905092915050565b6139cb82612aec565b67ffffffffffffffff8111156139e4576139e3612e7e565b5b6139ee825461327a565b6139f9828285613935565b600060209050601f831160018114613a2c5760008415613a1a578287015190505b613a2485826139a6565b865550613a8c565b601f198416613a3a866135bf565b60005b82811015613a6257848901518255600182019150602085019450602081019050613a3d565b86831015613a7f5784890151613a7b601f891682613988565b8355505b6001600288020188555050505b505050505050565b6000613a9f82612b9e565b9150613aaa83612b9e565b9250828201905080821115613ac257613ac16136b6565b5b92915050565b7f4f776e61626c653a206e6577206f776e657220697320746865207a65726f206160008201527f6464726573730000000000000000000000000000000000000000000000000000602082015250565b6000613b24602683612af7565b9150613b2f82613ac8565b604082019050919050565b60006020820190508181036000830152613b5381613b17565b9050919050565b7f4552433732313a207472616e736665722066726f6d20696e636f72726563742060008201527f6f776e6572000000000000000000000000000000000000000000000000000000602082015250565b6000613bb6602583612af7565b9150613bc182613b5a565b604082019050919050565b60006020820190508181036000830152613be581613ba9565b9050919050565b7f4552433732313a207472616e7366657220746f20746865207a65726f2061646460008201527f7265737300000000000000000000000000000000000000000000000000000000602082015250565b6000613c48602483612af7565b9150613c5382613bec565b604082019050919050565b60006020820190508181036000830152613c7781613c3b565b9050919050565b7f4f776e61626c653a2063616c6c6572206973206e6f7420746865206f776e6572600082015250565b6000613cb4602083612af7565b9150613cbf82613c7e565b602082019050919050565b60006020820190508181036000830152613ce381613ca7565b9050919050565b7f4552433732313a20617070726f766520746f2063616c6c657200000000000000600082015250565b6000613d20601983612af7565b9150613d2b82613cea565b602082019050919050565b60006020820190508181036000830152613d4f81613d13565b9050919050565b7f4552433732313a207472616e7366657220746f206e6f6e20455243373231526560008201527f63656976657220696d706c656d656e7465720000000000000000000000000000602082015250565b6000613db2603283612af7565b9150613dbd82613d56565b604082019050919050565b60006020820190508181036000830152613de181613da5565b9050919050565b6000613df4828561366e565b9150613e00828461366e565b91508190509392505050565b7f45524337323155524953746f726167653a2055524920736574206f66206e6f6e60008201527f6578697374656e7420746f6b656e000000000000000000000000000000000000602082015250565b6000613e68602e83612af7565b9150613e7382613e0c565b604082019050919050565b60006020820190508181036000830152613e9781613e5b565b9050919050565b7f5061757361626c653a206e6f7420706175736564000000000000000000000000600082015250565b6000613ed4601483612af7565b9150613edf82613e9e565b602082019050919050565b60006020820190508181036000830152613f0381613ec7565b9050919050565b7f5061757361626c653a2070617573656400000000000000000000000000000000600082015250565b6000613f40601083612af7565b9150613f4b82613f0a565b602082019050919050565b60006020820190508181036000830152613f6f81613f33565b9050919050565b600081519050919050565b600082825260208201905092915050565b6000613f9d82613f76565b613fa78185613f81565b9350613fb7818560208601612b08565b613fc081612b32565b840191505092915050565b6000608082019050613fe06000830187612c33565b613fed6020830186612c33565b613ffa6040830185612cc9565b818103606083015261400c8184613f92565b905095945050505050565b60008151905061402681612a5d565b92915050565b60006020828403121561404257614041612a27565b5b600061405084828501614017565b91505092915050565b7f455243373231456e756d657261626c653a20636f6e736563757469766520747260008201527f616e7366657273206e6f7420737570706f727465640000000000000000000000602082015250565b60006140b5603583612af7565b91506140c082614059565b604082019050919050565b600060208201905081810360008301526140e4816140a8565b9050919050565b7f4e487b7100000000000000000000000000000000000000000000000000000000600052601260045260246000fd5b7f4552433732313a206d696e7420746f20746865207a65726f2061646472657373600082015250565b6000614150602083612af7565b915061415b8261411a565b602082019050919050565b6000602082019050818103600083015261417f81614143565b9050919050565b7f4552433732313a20746f6b656e20616c7265616479206d696e74656400000000600082015250565b60006141bc601c83612af7565b91506141c782614186565b602082019050919050565b600060208201905081810360008301526141eb816141af565b9050919050565b60006141fd82612b9e565b915061420883612b9e565b92508282039050818111156142205761421f6136b6565b5b92915050565b7f4e487b7100000000000000000000000000000000000000000000000000000000600052603160045260246000fdfea2646970667358221220903bfe56ecd7c3113c6216ea9c57a140516838823b4255f385e6aa434095446564736f6c63430008120033",
  "linkReferences": {},
  "deployedLinkReferences": {}
}