{
  "_format": "hh-sol-artifact-1",
  "contractName": "CSVMint",
  "sourceName": "contracts/CSVMint.sol",
  "abi": [
    {
      "inputs": [
        {
          "internalType": "address",
          "name": "defaultAdmin",
          "type": "address"
        },
        {
          "internalType": "address",
          "name": "pauser",
          "type": "address"
        },
        {
          "internalType": "address",
          "name": "minter",
          "type": "address"
        }
      ],
      "stateMutability": "nonpayable",
      "type": "constructor"
    },
    {
      "anonymous": false,
      "inputs": [
        {
          "indexed": true,
          "internalType": "address",
          "name": "owner",
          "type": "address"
        },
        {
          "indexed": true,
          "internalType": "address",
          "name": "approved",
          "type": "address"
        },
        {
          "indexed": true,
          "internalType": "uint256",
          "name": "tokenId",
          "type": "uint256"
        }
      ],
      "name": "Approval",
      "type": "event"
    },
    {
      "anonymous": false,
      "inputs": [
        {
          "indexed": true,
          "internalType": "address",
          "name": "owner",
          "type": "address"
        },
        {
          "indexed": true,
          "internalType": "address",
          "name": "operator",
          "type": "address"
        },
        {
          "indexed": false,
          "internalType": "bool",
          "name": "approved",
          "type": "bool"
        }
      ],
      "name": "ApprovalForAll",
      "type": "event"
    },
    {
      "anonymous": false,
      "inputs": [
        {
          "indexed": false,
          "internalType": "uint256",
          "name": "_fromTokenId",
          "type": "uint256"
        },
        {
          "indexed": false,
          "internalType": "uint256",
          "name": "_toTokenId",
          "type": "uint256"
        }
      ],
      "name": "BatchMetadataUpdate",
      "type": "event"
    },
    {
      "anonymous": false,
      "inputs": [
        {
          "indexed": false,
          "internalType": "uint256",
          "name": "_tokenId",
          "type": "uint256"
        }
      ],
      "name": "MetadataUpdate",
      "type": "event"
    },
    {
      "anonymous": false,
      "inputs": [
        {
          "indexed": false,
          "internalType": "address",
          "name": "account",
          "type": "address"
        }
      ],
      "name": "Paused",
      "type": "event"
    },
    {
      "anonymous": false,
      "inputs": [
        {
          "indexed": true,
          "internalType": "bytes32",
          "name": "role",
          "type": "bytes32"
        },
        {
          "indexed": true,
          "internalType": "bytes32",
          "name": "previousAdminRole",
          "type": "bytes32"
        },
        {
          "indexed": true,
          "internalType": "bytes32",
          "name": "newAdminRole",
          "type": "bytes32"
        }
      ],
      "name": "RoleAdminChanged",
      "type": "event"
    },
    {
      "anonymous": false,
      "inputs": [
        {
          "indexed": true,
          "internalType": "bytes32",
          "name": "role",
          "type": "bytes32"
        },
        {
          "indexed": true,
          "internalType": "address",
          "name": "account",
          "type": "address"
        },
        {
          "indexed": true,
          "internalType": "address",
          "name": "sender",
          "type": "address"
        }
      ],
      "name": "RoleGranted",
      "type": "event"
    },
    {
      "anonymous": false,
      "inputs": [
        {
          "indexed": true,
          "internalType": "bytes32",
          "name": "role",
          "type": "bytes32"
        },
        {
          "indexed": true,
          "internalType": "address",
          "name": "account",
          "type": "address"
        },
        {
          "indexed": true,
          "internalType": "address",
          "name": "sender",
          "type": "address"
        }
      ],
      "name": "RoleRevoked",
      "type": "event"
    },
    {
      "anonymous": false,
      "inputs": [
        {
          "indexed": true,
          "internalType": "address",
          "name": "to",
          "type": "address"
        },
        {
          "indexed": true,
          "internalType": "uint256",
          "name": "tokenId",
          "type": "uint256"
        },
        {
          "indexed": false,
          "internalType": "string",
          "name": "csvHash",
          "type": "string"
        }
      ],
      "name": "TokenMinted",
      "type": "event"
    },
    {
      "anonymous": false,
      "inputs": [
        {
          "indexed": true,
          "internalType": "address",
          "name": "from",
          "type": "address"
        },
        {
          "indexed": true,
          "internalType": "address",
          "name": "to",
          "type": "address"
        },
        {
          "indexed": true,
          "internalType": "uint256",
          "name": "tokenId",
          "type": "uint256"
        }
      ],
      "name": "Transfer",
      "type": "event"
    },
    {
      "anonymous": false,
      "inputs": [
        {
          "indexed": false,
          "internalType": "address",
          "name": "account",
          "type": "address"
        }
      ],
      "name": "Unpaused",
      "type": "event"
    },
    {
      "inputs": [],
      "name": "DEFAULT_ADMIN_ROLE",
      "outputs": [
        {
          "internalType": "bytes32",
          "name": "",
          "type": "bytes32"
        }
      ],
      "stateMutability": "view",
      "type": "function"
    },
    {
      "inputs": [],
      "name": "MINTER_ROLE",
      "outputs": [
        {
          "internalType": "bytes32",
          "name": "",
          "type": "bytes32"
        }
      ],
      "stateMutability": "view",
      "type": "function"
    },
    {
      "inputs": [],
      "name": "PAUSER_ROLE",
      "outputs": [
        {
          "internalType": "bytes32",
          "name": "",
          "type": "bytes32"
        }
      ],
      "stateMutability": "view",
      "type": "function"
    },
    {
      "inputs": [
        {
          "internalType": "address",
          "name": "to",
          "type": "address"
        },
        {
          "internalType": "uint256",
          "name": "tokenId",
          "type": "uint256"
        }
      ],
      "name": "approve",
      "outputs": [],
      "stateMutability": "nonpayable",
      "type": "function"
    },
    {
      "inputs": [
        {
          "internalType": "address",
          "name": "owner",
          "type": "address"
        }
      ],
      "name": "balanceOf",
      "outputs": [
        {
          "internalType": "uint256",
          "name": "",
          "type": "uint256"
        }
      ],
      "stateMutability": "view",
      "type": "function"
    },
    {
      "inputs": [
        {
          "internalType": "string",
          "name": "csvHash",
          "type": "string"
        }
      ],
      "name": "checkCSVToken",
      "outputs": [
        {
          "internalType": "bool",
          "name": "",
          "type": "bool"
        }
      ],
      "stateMutability": "view",
      "type": "function"
    },
    {
      "inputs": [],
      "name": "getAllCSVToken",
      "outputs": [
        {
          "components": [
            {
              "internalType": "uint256",
              "name": "tokenId",
              "type": "uint256"
            },
            {
              "internalType": "string",
              "name": "csvHash",
              "type": "string"
            },
            {
              "internalType": "string",
              "name": "date",
              "type": "string"
            },
            {
              "internalType": "string",
              "name": "issuer",
              "type": "string"
            }
          ],
          "internalType": "struct CSVMint.CSVToken[]",
          "name": "",
          "type": "tuple[]"
        }
      ],
      "stateMutability": "view",
      "type": "function"
    },
    {
      "inputs": [
        {
          "internalType": "uint256",
          "name": "tokenId",
          "type": "uint256"
        }
      ],
      "name": "getApproved",
      "outputs": [
        {
          "internalType": "address",
          "name": "",
          "type": "address"
        }
      ],
      "stateMutability": "view",
      "type": "function"
    },
    {
      "inputs": [
        {
          "internalType": "uint256",
          "name": "tokenId",
          "type": "uint256"
        }
      ],
      "name": "getCSVToken",
      "outputs": [
        {
          "internalType": "string",
          "name": "",
          "type": "string"
        }
      ],
      "stateMutability": "view",
      "type": "function"
    },
    {
      "inputs": [],
      "name": "getCSVTokenCount",
      "outputs": [
        {
          "internalType": "uint256",
          "name": "",
          "type": "uint256"
        }
      ],
      "stateMutability": "view",
      "type": "function"
    },
    {
      "inputs": [
        {
          "internalType": "bytes32",
          "name": "role",
          "type": "bytes32"
        }
      ],
      "name": "getRoleAdmin",
      "outputs": [
        {
          "internalType": "bytes32",
          "name": "",
          "type": "bytes32"
        }
      ],
      "stateMutability": "view",
      "type": "function"
    },
    {
      "inputs": [
        {
          "internalType": "string",
          "name": "csvHash",
          "type": "string"
        }
      ],
      "name": "getTokenDateFromHash",
      "outputs": [
        {
          "internalType": "string",
          "name": "",
          "type": "string"
        }
      ],
      "stateMutability": "view",
      "type": "function"
    },
    {
      "inputs": [
        {
          "internalType": "string",
          "name": "csvHash",
          "type": "string"
        }
      ],
      "name": "getTokenHashFromHash",
      "outputs": [
        {
          "internalType": "string",
          "name": "",
          "type": "string"
        }
      ],
      "stateMutability": "view",
      "type": "function"
    },
    {
      "inputs": [
        {
          "internalType": "string",
          "name": "csvHash",
          "type": "string"
        }
      ],
      "name": "getTokenIDFromHash",
      "outputs": [
        {
          "internalType": "uint256",
          "name": "",
          "type": "uint256"
        }
      ],
      "stateMutability": "view",
      "type": "function"
    },
    {
      "inputs": [
        {
          "internalType": "string",
          "name": "csvHash",
          "type": "string"
        }
      ],
      "name": "getTokenIssuerFromHash",
      "outputs": [
        {
          "internalType": "string",
          "name": "",
          "type": "string"
        }
      ],
      "stateMutability": "view",
      "type": "function"
    },
    {
      "inputs": [
        {
          "internalType": "bytes32",
          "name": "role",
          "type": "bytes32"
        },
        {
          "internalType": "address",
          "name": "account",
          "type": "address"
        }
      ],
      "name": "grantRole",
      "outputs": [],
      "stateMutability": "nonpayable",
      "type": "function"
    },
    {
      "inputs": [
        {
          "internalType": "bytes32",
          "name": "role",
          "type": "bytes32"
        },
        {
          "internalType": "address",
          "name": "account",
          "type": "address"
        }
      ],
      "name": "hasRole",
      "outputs": [
        {
          "internalType": "bool",
          "name": "",
          "type": "bool"
        }
      ],
      "stateMutability": "view",
      "type": "function"
    },
    {
      "inputs": [
        {
          "internalType": "address",
          "name": "owner",
          "type": "address"
        },
        {
          "internalType": "address",
          "name": "operator",
          "type": "address"
        }
      ],
      "name": "isApprovedForAll",
      "outputs": [
        {
          "internalType": "bool",
          "name": "",
          "type": "bool"
        }
      ],
      "stateMutability": "view",
      "type": "function"
    },
    {
      "inputs": [
        {
          "internalType": "string",
          "name": "csvHash",
          "type": "string"
        },
        {
          "internalType": "string",
          "name": "date",
          "type": "string"
        }
      ],
      "name": "mintCSV",
      "outputs": [],
      "stateMutability": "nonpayable",
      "type": "function"
    },
    {
      "inputs": [],
      "name": "name",
      "outputs": [
        {
          "internalType": "string",
          "name": "",
          "type": "string"
        }
      ],
      "stateMutability": "view",
      "type": "function"
    },
    {
      "inputs": [
        {
          "internalType": "uint256",
          "name": "tokenId",
          "type": "uint256"
        }
      ],
      "name": "ownerOf",
      "outputs": [
        {
          "internalType": "address",
          "name": "",
          "type": "address"
        }
      ],
      "stateMutability": "view",
      "type": "function"
    },
    {
      "inputs": [],
      "name": "pause",
      "outputs": [],
      "stateMutability": "nonpayable",
      "type": "function"
    },
    {
      "inputs": [],
      "name": "paused",
      "outputs": [
        {
          "internalType": "bool",
          "name": "",
          "type": "bool"
        }
      ],
      "stateMutability": "view",
      "type": "function"
    },
    {
      "inputs": [
        {
          "internalType": "bytes32",
          "name": "role",
          "type": "bytes32"
        },
        {
          "internalType": "address",
          "name": "account",
          "type": "address"
        }
      ],
      "name": "renounceRole",
      "outputs": [],
      "stateMutability": "nonpayable",
      "type": "function"
    },
    {
      "inputs": [
        {
          "internalType": "bytes32",
          "name": "role",
          "type": "bytes32"
        },
        {
          "internalType": "address",
          "name": "account",
          "type": "address"
        }
      ],
      "name": "revokeRole",
      "outputs": [],
      "stateMutability": "nonpayable",
      "type": "function"
    },
    {
      "inputs": [
        {
          "internalType": "address",
          "name": "to",
          "type": "address"
        },
        {
          "internalType": "string",
          "name": "uri",
          "type": "string"
        }
      ],
      "name": "safeMint",
      "outputs": [],
      "stateMutability": "nonpayable",
      "type": "function"
    },
    {
      "inputs": [
        {
          "internalType": "address",
          "name": "from",
          "type": "address"
        },
        {
          "internalType": "address",
          "name": "to",
          "type": "address"
        },
        {
          "internalType": "uint256",
          "name": "tokenId",
          "type": "uint256"
        }
      ],
      "name": "safeTransferFrom",
      "outputs": [],
      "stateMutability": "nonpayable",
      "type": "function"
    },
    {
      "inputs": [
        {
          "internalType": "address",
          "name": "from",
          "type": "address"
        },
        {
          "internalType": "address",
          "name": "to",
          "type": "address"
        },
        {
          "internalType": "uint256",
          "name": "tokenId",
          "type": "uint256"
        },
        {
          "internalType": "bytes",
          "name": "data",
          "type": "bytes"
        }
      ],
      "name": "safeTransferFrom",
      "outputs": [],
      "stateMutability": "nonpayable",
      "type": "function"
    },
    {
      "inputs": [
        {
          "internalType": "address",
          "name": "operator",
          "type": "address"
        },
        {
          "internalType": "bool",
          "name": "approved",
          "type": "bool"
        }
      ],
      "name": "setApprovalForAll",
      "outputs": [],
      "stateMutability": "nonpayable",
      "type": "function"
    },
    {
      "inputs": [
        {
          "internalType": "bytes4",
          "name": "interfaceId",
          "type": "bytes4"
        }
      ],
      "name": "supportsInterface",
      "outputs": [
        {
          "internalType": "bool",
          "name": "",
          "type": "bool"
        }
      ],
      "stateMutability": "view",
      "type": "function"
    },
    {
      "inputs": [],
      "name": "symbol",
      "outputs": [
        {
          "internalType": "string",
          "name": "",
          "type": "string"
        }
      ],
      "stateMutability": "view",
      "type": "function"
    },
    {
      "inputs": [
        {
          "internalType": "uint256",
          "name": "index",
          "type": "uint256"
        }
      ],
      "name": "tokenByIndex",
      "outputs": [
        {
          "internalType": "uint256",
          "name": "",
          "type": "uint256"
        }
      ],
      "stateMutability": "view",
      "type": "function"
    },
    {
      "inputs": [
        {
          "internalType": "address",
          "name": "owner",
          "type": "address"
        },
        {
          "internalType": "uint256",
          "name": "index",
          "type": "uint256"
        }
      ],
      "name": "tokenOfOwnerByIndex",
      "outputs": [
        {
          "internalType": "uint256",
          "name": "",
          "type": "uint256"
        }
      ],
      "stateMutability": "view",
      "type": "function"
    },
    {
      "inputs": [
        {
          "internalType": "uint256",
          "name": "tokenId",
          "type": "uint256"
        }
      ],
      "name": "tokenURI",
      "outputs": [
        {
          "internalType": "string",
          "name": "",
          "type": "string"
        }
      ],
      "stateMutability": "view",
      "type": "function"
    },
    {
      "inputs": [],
      "name": "totalSupply",
      "outputs": [
        {
          "internalType": "uint256",
          "name": "",
          "type": "uint256"
        }
      ],
      "stateMutability": "view",
      "type": "function"
    },
    {
      "inputs": [
        {
          "internalType": "address",
          "name": "from",
          "type": "address"
        },
        {
          "internalType": "address",
          "name": "to",
          "type": "address"
        },
        {
          "internalType": "uint256",
          "name": "tokenId",
          "type": "uint256"
        }
      ],
      "name": "transferFrom",
      "outputs": [],
      "stateMutability": "nonpayable",
      "type": "function"
    },
    {
      "inputs": [
        {
          "internalType": "uint256",
          "name": "tokenId",
          "type": "uint256"
        },
        {
          "internalType": "address",
          "name": "newOwner",
          "type": "address"
        }
      ],
      "name": "transferTokenOwnership",
      "outputs": [],
      "stateMutability": "nonpayable",
      "type": "function"
    },
    {
      "inputs": [],
      "name": "unpause",
      "outputs": [],
      "stateMutability": "nonpayable",
      "type": "function"
    }
  ],
  "bytecode": "0x60806040523480156200001157600080fd5b5060405162005f0e38038062005f0e833981810160405281019062000037919062000335565b6040518060400160405280600781526020017f4353564d696e74000000000000000000000000000000000000000000000000008152506040518060400160405280600381526020017f43535600000000000000000000000000000000000000000000000000000000008152508160009081620000b491906200060b565b508060019081620000c691906200060b565b5050506000600b60006101000a81548160ff021916908315150217905550620000f96000801b846200016660201b60201c565b6200012b7f65d7a28e3265b37a6474929f336521b332c1681b933f6cb9f3376673440d862a836200016660201b60201c565b6200015d7f9f2df0fed2c77648de5860a4cc508cd0818c85b8b8a1ab4ceeef8d981c8956a6826200016660201b60201c565b505050620006f2565b6200017882826200025860201b60201c565b62000254576001600c600084815260200190815260200160002060000160008373ffffffffffffffffffffffffffffffffffffffff1673ffffffffffffffffffffffffffffffffffffffff16815260200190815260200160002060006101000a81548160ff021916908315150217905550620001f9620002c360201b60201c565b73ffffffffffffffffffffffffffffffffffffffff168173ffffffffffffffffffffffffffffffffffffffff16837f2f8788117e7eff1d82e926ec794901d17c78024a50270940304540a733656f0d60405160405180910390a45b5050565b6000600c600084815260200190815260200160002060000160008373ffffffffffffffffffffffffffffffffffffffff1673ffffffffffffffffffffffffffffffffffffffff16815260200190815260200160002060009054906101000a900460ff16905092915050565b600033905090565b600080fd5b600073ffffffffffffffffffffffffffffffffffffffff82169050919050565b6000620002fd82620002d0565b9050919050565b6200030f81620002f0565b81146200031b57600080fd5b50565b6000815190506200032f8162000304565b92915050565b600080600060608486031215620003515762000350620002cb565b5b600062000361868287016200031e565b935050602062000374868287016200031e565b925050604062000387868287016200031e565b9150509250925092565b600081519050919050565b7f4e487b7100000000000000000000000000000000000000000000000000000000600052604160045260246000fd5b7f4e487b7100000000000000000000000000000000000000000000000000000000600052602260045260246000fd5b600060028204905060018216806200041357607f821691505b602082108103620004295762000428620003cb565b5b50919050565b60008190508160005260206000209050919050565b60006020601f8301049050919050565b600082821b905092915050565b600060088302620004937fffffffffffffffffffffffffffffffffffffffffffffffffffffffffffffffff8262000454565b6200049f868362000454565b95508019841693508086168417925050509392505050565b6000819050919050565b6000819050919050565b6000620004ec620004e6620004e084620004b7565b620004c1565b620004b7565b9050919050565b6000819050919050565b6200050883620004cb565b620005206200051782620004f3565b84845462000461565b825550505050565b600090565b6200053762000528565b62000544818484620004fd565b505050565b5b818110156200056c57620005606000826200052d565b6001810190506200054a565b5050565b601f821115620005bb5762000585816200042f565b620005908462000444565b81016020851015620005a0578190505b620005b8620005af8562000444565b83018262000549565b50505b505050565b600082821c905092915050565b6000620005e060001984600802620005c0565b1980831691505092915050565b6000620005fb8383620005cd565b9150826002028217905092915050565b620006168262000391565b67ffffffffffffffff8111156200063257620006316200039c565b5b6200063e8254620003fa565b6200064b82828562000570565b600060209050601f8311600181146200068357600084156200066e578287015190505b6200067a8582620005ed565b865550620006ea565b601f19841662000693866200042f565b60005b82811015620006bd5784890151825560018201915060208501945060208101905062000696565b86831015620006dd5784890151620006d9601f891682620005cd565b8355505b6001600288020188555050505b505050505050565b61580c80620007026000396000f3fe608060405234801561001057600080fd5b50600436106102325760003560e01c806370a0823111610130578063b88d4fde116100b8578063d53913931161007c578063d5391393146106e9578063d547741f14610707578063e63ab1e914610723578063e985e9c514610741578063e9cf64e61461077157610232565b8063b88d4fde14610621578063bc12fc6b1461063d578063c69961d61461066d578063c87b56dd1461069d578063d204c45e146106cd57610232565b806391d14854116100ff57806391d148541461057b57806395d89b41146105ab578063a217fddf146105c9578063a22cb465146105e7578063a5f0f9a31461060357610232565b806370a08231146104f5578063766f5ecb146105255780638456cb59146105415780638527e87e1461054b57610232565b80632f745c59116101be5780634f6ccce7116101825780634f6ccce7146104295780635705eb06146104595780635c975abb1461047757806361293460146104955780636352211e146104c557610232565b80632f745c591461038757806336568abe146103b75780633f4ba83a146103d357806342842e0e146103dd57806349875560146103f957610232565b806312ff753d1161020557806312ff753d146102d157806318160ddd1461030157806323b872dd1461031f578063248a9ca31461033b5780632f2ff15d1461036b57610232565b806301ffc9a71461023757806306fdde0314610267578063081812fc14610285578063095ea7b3146102b5575b600080fd5b610251600480360381019061024c9190613b38565b61078d565b60405161025e9190613b80565b60405180910390f35b61026f61079f565b60405161027c9190613c2b565b60405180910390f35b61029f600480360381019061029a9190613c83565b610831565b6040516102ac9190613cf1565b60405180910390f35b6102cf60048036038101906102ca9190613d38565b610877565b005b6102eb60048036038101906102e69190613ead565b61098e565b6040516102f89190613c2b565b60405180910390f35b610309610ae7565b6040516103169190613f05565b60405180910390f35b61033960048036038101906103349190613f20565b610af4565b005b61035560048036038101906103509190613fa9565b610b54565b6040516103629190613fe5565b60405180910390f35b61038560048036038101906103809190614000565b610b74565b005b6103a1600480360381019061039c9190613d38565b610b95565b6040516103ae9190613f05565b60405180910390f35b6103d160048036038101906103cc9190614000565b610c3a565b005b6103db610cbd565b005b6103f760048036038101906103f29190613f20565b610cf2565b005b610413600480360381019061040e9190613ead565b610d12565b6040516104209190613c2b565b60405180910390f35b610443600480360381019061043e9190613c83565b610e6b565b6040516104509190613f05565b60405180910390f35b610461610edc565b60405161046e91906141cc565b60405180910390f35b61047f6110fb565b60405161048c9190613b80565b60405180910390f35b6104af60048036038101906104aa9190613ead565b611112565b6040516104bc9190613b80565b60405180910390f35b6104df60048036038101906104da9190613c83565b6111c6565b6040516104ec9190613cf1565b60405180910390f35b61050f600480360381019061050a91906141ee565b61124c565b60405161051c9190613f05565b60405180910390f35b61053f600480360381019061053a919061421b565b611303565b005b6105496113d8565b005b61056560048036038101906105609190613ead565b61140d565b6040516105729190613c2b565b60405180910390f35b61059560048036038101906105909190614000565b611566565b6040516105a29190613b80565b60405180910390f35b6105b36115d1565b6040516105c09190613c2b565b60405180910390f35b6105d1611663565b6040516105de9190613fe5565b60405180910390f35b61060160048036038101906105fc91906142bf565b61166a565b005b61060b611680565b6040516106189190613f05565b60405180910390f35b61063b600480360381019061063691906143a0565b61168d565b005b61065760048036038101906106529190613c83565b6116ef565b6040516106649190613c2b565b60405180910390f35b61068760048036038101906106829190613ead565b6117ed565b6040516106949190613f05565b60405180910390f35b6106b760048036038101906106b29190613c83565b6118c1565b6040516106c49190613c2b565b60405180910390f35b6106e760048036038101906106e29190614423565b6118d3565b005b6106f161192f565b6040516106fe9190613fe5565b60405180910390f35b610721600480360381019061071c9190614000565b611953565b005b61072b611974565b6040516107389190613fe5565b60405180910390f35b61075b6004803603810190610756919061447f565b611998565b6040516107689190613b80565b60405180910390f35b61078b600480360381019061078691906144bf565b611a2c565b005b600061079882611a84565b9050919050565b6060600080546107ae9061452e565b80601f01602080910402602001604051908101604052809291908181526020018280546107da9061452e565b80156108275780601f106107fc57610100808354040283529160200191610827565b820191906000526020600020905b81548152906001019060200180831161080a57829003601f168201915b5050505050905090565b600061083c82611afe565b6004600083815260200190815260200160002060009054906101000a900473ffffffffffffffffffffffffffffffffffffffff169050919050565b6000610882826111c6565b90508073ffffffffffffffffffffffffffffffffffffffff168373ffffffffffffffffffffffffffffffffffffffff16036108f2576040517f08c379a00000000000000000000000000000000000000000000000000000000081526004016108e9906145d1565b60405180910390fd5b8073ffffffffffffffffffffffffffffffffffffffff16610911611b49565b73ffffffffffffffffffffffffffffffffffffffff161480610940575061093f8161093a611b49565b611998565b5b61097f576040517f08c379a000000000000000000000000000000000000000000000000000000000815260040161097690614663565b60405180910390fd5b6109898383611b51565b505050565b606060005b600e80549050811015610ae057600e81815481106109b4576109b3614683565b5b90600052602060002090600402016001016040516020016109d59190614755565b60405160208183030381529060405280519060200120836040516020016109fc919061479d565b6040516020818303038152906040528051906020012003610acd57600e8181548110610a2b57610a2a614683565b5b90600052602060002090600402016002018054610a479061452e565b80601f0160208091040260200160405190810160405280929190818152602001828054610a739061452e565b8015610ac05780601f10610a9557610100808354040283529160200191610ac0565b820191906000526020600020905b815481529060010190602001808311610aa357829003601f168201915b5050505050915050610ae2565b8080610ad8906147e3565b915050610993565b505b919050565b6000600880549050905090565b610b05610aff611b49565b82611c0a565b610b44576040517f08c379a0000000000000000000000000000000000000000000000000000000008152600401610b3b9061489d565b60405180910390fd5b610b4f838383611c9f565b505050565b6000600c6000838152602001908152602001600020600101549050919050565b610b7d82610b54565b610b8681611f98565b610b908383611fac565b505050565b6000610ba08361124c565b8210610be1576040517f08c379a0000000000000000000000000000000000000000000000000000000008152600401610bd89061492f565b60405180910390fd5b600660008473ffffffffffffffffffffffffffffffffffffffff1673ffffffffffffffffffffffffffffffffffffffff168152602001908152602001600020600083815260200190815260200160002054905092915050565b610c42611b49565b73ffffffffffffffffffffffffffffffffffffffff168173ffffffffffffffffffffffffffffffffffffffff1614610caf576040517f08c379a0000000000000000000000000000000000000000000000000000000008152600401610ca6906149c1565b60405180910390fd5b610cb9828261208d565b5050565b7f65d7a28e3265b37a6474929f336521b332c1681b933f6cb9f3376673440d862a610ce781611f98565b610cef61216f565b50565b610d0d8383836040518060200160405280600081525061168d565b505050565b606060005b600e80549050811015610e6457600e8181548110610d3857610d37614683565b5b9060005260206000209060040201600101604051602001610d599190614755565b6040516020818303038152906040528051906020012083604051602001610d80919061479d565b6040516020818303038152906040528051906020012003610e5157600e8181548110610daf57610dae614683565b5b90600052602060002090600402016001018054610dcb9061452e565b80601f0160208091040260200160405190810160405280929190818152602001828054610df79061452e565b8015610e445780601f10610e1957610100808354040283529160200191610e44565b820191906000526020600020905b815481529060010190602001808311610e2757829003601f168201915b5050505050915050610e66565b8080610e5c906147e3565b915050610d17565b505b919050565b6000610e75610ae7565b8210610eb6576040517f08c379a0000000000000000000000000000000000000000000000000000000008152600401610ead90614a53565b60405180910390fd5b60088281548110610eca57610ec9614683565b5b90600052602060002001549050919050565b6060600e805480602002602001604051908101604052809291908181526020016000905b828210156110f2578382906000526020600020906004020160405180608001604052908160008201548152602001600182018054610f3d9061452e565b80601f0160208091040260200160405190810160405280929190818152602001828054610f699061452e565b8015610fb65780601f10610f8b57610100808354040283529160200191610fb6565b820191906000526020600020905b815481529060010190602001808311610f9957829003601f168201915b50505050508152602001600282018054610fcf9061452e565b80601f0160208091040260200160405190810160405280929190818152602001828054610ffb9061452e565b80156110485780601f1061101d57610100808354040283529160200191611048565b820191906000526020600020905b81548152906001019060200180831161102b57829003601f168201915b505050505081526020016003820180546110619061452e565b80601f016020809104026020016040519081016040528092919081815260200182805461108d9061452e565b80156110da5780601f106110af576101008083540402835291602001916110da565b820191906000526020600020905b8154815290600101906020018083116110bd57829003601f168201915b50505050508152505081526020019060010190610f00565b50505050905090565b6000600b60009054906101000a900460ff16905090565b600080600090505b600e805490508110156111bb57600e818154811061113b5761113a614683565b5b906000526020600020906004020160010160405160200161115c9190614755565b6040516020818303038152906040528051906020012083604051602001611183919061479d565b60405160208183030381529060405280519060200120036111a85760019150506111c1565b80806111b3906147e3565b91505061111a565b50600090505b919050565b6000806111d2836121d2565b9050600073ffffffffffffffffffffffffffffffffffffffff168173ffffffffffffffffffffffffffffffffffffffff1603611243576040517f08c379a000000000000000000000000000000000000000000000000000000000815260040161123a90614abf565b60405180910390fd5b80915050919050565b60008073ffffffffffffffffffffffffffffffffffffffff168273ffffffffffffffffffffffffffffffffffffffff16036112bc576040517f08c379a00000000000000000000000000000000000000000000000000000000081526004016112b390614b51565b60405180910390fd5b600360008373ffffffffffffffffffffffffffffffffffffffff1673ffffffffffffffffffffffffffffffffffffffff168152602001908152602001600020549050919050565b600061130f600d61220f565b905061131b600d61221d565b6113253382612233565b600061133033612251565b905060006040518060800160405280848152602001868152602001858152602001838152509050600e8190806001815401808255809150506001900390600052602060002090600402016000909190919091506000820151816000015560208201518160010190816113a29190614d08565b5060408201518160020190816113b89190614d08565b5060608201518160030190816113ce9190614d08565b5050505050505050565b7f65d7a28e3265b37a6474929f336521b332c1681b933f6cb9f3376673440d862a61140281611f98565b61140a61255c565b50565b606060005b600e8054905081101561155f57600e818154811061143357611432614683565b5b90600052602060002090600402016001016040516020016114549190614755565b604051602081830303815290604052805190602001208360405160200161147b919061479d565b604051602081830303815290604052805190602001200361154c57600e81815481106114aa576114a9614683565b5b906000526020600020906004020160030180546114c69061452e565b80601f01602080910402602001604051908101604052809291908181526020018280546114f29061452e565b801561153f5780601f106115145761010080835404028352916020019161153f565b820191906000526020600020905b81548152906001019060200180831161152257829003601f168201915b5050505050915050611561565b8080611557906147e3565b915050611412565b505b919050565b6000600c600084815260200190815260200160002060000160008373ffffffffffffffffffffffffffffffffffffffff1673ffffffffffffffffffffffffffffffffffffffff16815260200190815260200160002060009054906101000a900460ff16905092915050565b6060600180546115e09061452e565b80601f016020809104026020016040519081016040528092919081815260200182805461160c9061452e565b80156116595780601f1061162e57610100808354040283529160200191611659565b820191906000526020600020905b81548152906001019060200180831161163c57829003601f168201915b5050505050905090565b6000801b81565b61167c611675611b49565b83836125bf565b5050565b6000600e80549050905090565b61169e611698611b49565b83611c0a565b6116dd576040517f08c379a00000000000000000000000000000000000000000000000000000000081526004016116d49061489d565b60405180910390fd5b6116e98484848461272b565b50505050565b6060600e805490508210611738576040517f08c379a000000000000000000000000000000000000000000000000000000000815260040161172f90614e26565b60405180910390fd5b600e828154811061174c5761174b614683565b5b906000526020600020906004020160010180546117689061452e565b80601f01602080910402602001604051908101604052809291908181526020018280546117949061452e565b80156117e15780601f106117b6576101008083540402835291602001916117e1565b820191906000526020600020905b8154815290600101906020018083116117c457829003601f168201915b50505050509050919050565b600080600090505b600e805490508110156118ba57600e818154811061181657611815614683565b5b90600052602060002090600402016001016040516020016118379190614755565b604051602081830303815290604052805190602001208360405160200161185e919061479d565b60405160208183030381529060405280519060200120036118a757600e818154811061188d5761188c614683565b5b9060005260206000209060040201600001549150506118bc565b80806118b2906147e3565b9150506117f5565b505b919050565b60606118cc82612787565b9050919050565b7f9f2df0fed2c77648de5860a4cc508cd0818c85b8b8a1ab4ceeef8d981c8956a66118fd81611f98565b6000611909600d61220f565b9050611915600d61221d565b61191f8482612233565b6119298184612899565b50505050565b7f9f2df0fed2c77648de5860a4cc508cd0818c85b8b8a1ab4ceeef8d981c8956a681565b61195c82610b54565b61196581611f98565b61196f838361208d565b505050565b7f65d7a28e3265b37a6474929f336521b332c1681b933f6cb9f3376673440d862a81565b6000600560008473ffffffffffffffffffffffffffffffffffffffff1673ffffffffffffffffffffffffffffffffffffffff16815260200190815260200160002060008373ffffffffffffffffffffffffffffffffffffffff1673ffffffffffffffffffffffffffffffffffffffff16815260200190815260200160002060009054906101000a900460ff16905092915050565b611a363383611c0a565b611a75576040517f08c379a0000000000000000000000000000000000000000000000000000000008152600401611a6c90614eb8565b60405180910390fd5b611a80338284611c9f565b5050565b60007f7965db0b000000000000000000000000000000000000000000000000000000007bffffffffffffffffffffffffffffffffffffffffffffffffffffffff1916827bffffffffffffffffffffffffffffffffffffffffffffffffffffffff19161480611af75750611af68261293d565b5b9050919050565b611b078161299e565b611b46576040517f08c379a0000000000000000000000000000000000000000000000000000000008152600401611b3d90614abf565b60405180910390fd5b50565b600033905090565b816004600083815260200190815260200160002060006101000a81548173ffffffffffffffffffffffffffffffffffffffff021916908373ffffffffffffffffffffffffffffffffffffffff160217905550808273ffffffffffffffffffffffffffffffffffffffff16611bc4836111c6565b73ffffffffffffffffffffffffffffffffffffffff167f8c5be1e5ebec7d5bd14f71427d1e84f3dd0314c0f7b2291e5b200ac8c7c3b92560405160405180910390a45050565b600080611c16836111c6565b90508073ffffffffffffffffffffffffffffffffffffffff168473ffffffffffffffffffffffffffffffffffffffff161480611c585750611c578185611998565b5b80611c9657508373ffffffffffffffffffffffffffffffffffffffff16611c7e84610831565b73ffffffffffffffffffffffffffffffffffffffff16145b91505092915050565b8273ffffffffffffffffffffffffffffffffffffffff16611cbf826111c6565b73ffffffffffffffffffffffffffffffffffffffff1614611d15576040517f08c379a0000000000000000000000000000000000000000000000000000000008152600401611d0c90614f4a565b60405180910390fd5b600073ffffffffffffffffffffffffffffffffffffffff168273ffffffffffffffffffffffffffffffffffffffff1603611d84576040517f08c379a0000000000000000000000000000000000000000000000000000000008152600401611d7b90614fdc565b60405180910390fd5b611d9183838360016129df565b8273ffffffffffffffffffffffffffffffffffffffff16611db1826111c6565b73ffffffffffffffffffffffffffffffffffffffff1614611e07576040517f08c379a0000000000000000000000000000000000000000000000000000000008152600401611dfe90614f4a565b60405180910390fd5b6004600082815260200190815260200160002060006101000a81549073ffffffffffffffffffffffffffffffffffffffff02191690556001600360008573ffffffffffffffffffffffffffffffffffffffff1673ffffffffffffffffffffffffffffffffffffffff168152602001908152602001600020600082825403925050819055506001600360008473ffffffffffffffffffffffffffffffffffffffff1673ffffffffffffffffffffffffffffffffffffffff16815260200190815260200160002060008282540192505081905550816002600083815260200190815260200160002060006101000a81548173ffffffffffffffffffffffffffffffffffffffff021916908373ffffffffffffffffffffffffffffffffffffffff160217905550808273ffffffffffffffffffffffffffffffffffffffff168473ffffffffffffffffffffffffffffffffffffffff167fddf252ad1be2c89b69c2b068fc378daa952ba7f163c4a11628f55a4df523b3ef60405160405180910390a4611f9383838360016129f9565b505050565b611fa981611fa4611b49565b6129ff565b50565b611fb68282611566565b612089576001600c600084815260200190815260200160002060000160008373ffffffffffffffffffffffffffffffffffffffff1673ffffffffffffffffffffffffffffffffffffffff16815260200190815260200160002060006101000a81548160ff02191690831515021790555061202e611b49565b73ffffffffffffffffffffffffffffffffffffffff168173ffffffffffffffffffffffffffffffffffffffff16837f2f8788117e7eff1d82e926ec794901d17c78024a50270940304540a733656f0d60405160405180910390a45b5050565b6120978282611566565b1561216b576000600c600084815260200190815260200160002060000160008373ffffffffffffffffffffffffffffffffffffffff1673ffffffffffffffffffffffffffffffffffffffff16815260200190815260200160002060006101000a81548160ff021916908315150217905550612110611b49565b73ffffffffffffffffffffffffffffffffffffffff168173ffffffffffffffffffffffffffffffffffffffff16837ff6391f5c32d9c69d2a47ea670b442974b53935d1edc7fd64eb21e047a839171b60405160405180910390a45b5050565b612177612a84565b6000600b60006101000a81548160ff0219169083151502179055507f5db9ee0a495bf2e6ff9c91a7834c1ba4fdd244a5e8aa4e537bd38aeae4b073aa6121bb611b49565b6040516121c89190613cf1565b60405180910390a1565b60006002600083815260200190815260200160002060009054906101000a900473ffffffffffffffffffffffffffffffffffffffff169050919050565b600081600001549050919050565b6001816000016000828254019250508190555050565b61224d828260405180602001604052806000815250612acd565b5050565b606060008273ffffffffffffffffffffffffffffffffffffffff1660001b905060006040518060400160405280601081526020017f303132333435363738396162636465660000000000000000000000000000000081525090506000602a67ffffffffffffffff8111156122c8576122c7613d82565b5b6040519080825280601f01601f1916602001820160405280156122fa5781602001600182028036833780820191505090505b5090507f30000000000000000000000000000000000000000000000000000000000000008160008151811061233257612331614683565b5b60200101907effffffffffffffffffffffffffffffffffffffffffffffffffffffffffffff1916908160001a9053507f78000000000000000000000000000000000000000000000000000000000000008160018151811061239657612395614683565b5b60200101907effffffffffffffffffffffffffffffffffffffffffffffffffffffffffffff1916908160001a90535060005b60148110156125505782600485600c846123e29190614ffc565b602081106123f3576123f2614683565b5b1a60f81b7effffffffffffffffffffffffffffffffffffffffffffffffffffffffffffff1916901c60f81c60ff168151811061243257612431614683565b5b602001015160f81c60f81b8260028361244b9190615030565b60026124579190614ffc565b8151811061246857612467614683565b5b60200101907effffffffffffffffffffffffffffffffffffffffffffffffffffffffffffff1916908160001a90535082600f60f81b85600c846124ab9190614ffc565b602081106124bc576124bb614683565b5b1a60f81b1660f81c60ff16815181106124d8576124d7614683565b5b602001015160f81c60f81b826002836124f19190615030565b60036124fd9190614ffc565b8151811061250e5761250d614683565b5b60200101907effffffffffffffffffffffffffffffffffffffffffffffffffffffffffffff1916908160001a9053508080612548906147e3565b9150506123c8565b50809350505050919050565b612564612b28565b6001600b60006101000a81548160ff0219169083151502179055507f62e78cea01bee320cd4e420270b5ea74000d11b0c9f74754ebdbfc544b05a2586125a8611b49565b6040516125b59190613cf1565b60405180910390a1565b8173ffffffffffffffffffffffffffffffffffffffff168373ffffffffffffffffffffffffffffffffffffffff160361262d576040517f08c379a0000000000000000000000000000000000000000000000000000000008152600401612624906150be565b60405180910390fd5b80600560008573ffffffffffffffffffffffffffffffffffffffff1673ffffffffffffffffffffffffffffffffffffffff16815260200190815260200160002060008473ffffffffffffffffffffffffffffffffffffffff1673ffffffffffffffffffffffffffffffffffffffff16815260200190815260200160002060006101000a81548160ff0219169083151502179055508173ffffffffffffffffffffffffffffffffffffffff168373ffffffffffffffffffffffffffffffffffffffff167f17307eab39ab6107e8899845ad3d59bd9653f200f220920489ca2b5937696c318360405161271e9190613b80565b60405180910390a3505050565b612736848484611c9f565b61274284848484612b72565b612781576040517f08c379a000000000000000000000000000000000000000000000000000000000815260040161277890615150565b60405180910390fd5b50505050565b606061279282611afe565b6000600a600084815260200190815260200160002080546127b29061452e565b80601f01602080910402602001604051908101604052809291908181526020018280546127de9061452e565b801561282b5780601f106128005761010080835404028352916020019161282b565b820191906000526020600020905b81548152906001019060200180831161280e57829003601f168201915b50505050509050600061283c612cf9565b90506000815103612851578192505050612894565b60008251111561288657808260405160200161286e929190615170565b60405160208183030381529060405292505050612894565b61288f84612d10565b925050505b919050565b6128a28261299e565b6128e1576040517f08c379a00000000000000000000000000000000000000000000000000000000081526004016128d890615206565b60405180910390fd5b80600a600084815260200190815260200160002090816129019190614d08565b507ff8e1a15aba9398e019f0b49df1a4fde98ee17ae345cb5f6b5e2c27f5033e8ce7826040516129319190613f05565b60405180910390a15050565b6000634906490660e01b7bffffffffffffffffffffffffffffffffffffffffffffffffffffffff1916827bffffffffffffffffffffffffffffffffffffffffffffffffffffffff19161480612997575061299682612d78565b5b9050919050565b60008073ffffffffffffffffffffffffffffffffffffffff166129c0836121d2565b73ffffffffffffffffffffffffffffffffffffffff1614159050919050565b6129e7612b28565b6129f384848484612df2565b50505050565b50505050565b612a098282611566565b612a8057612a1681612e4c565b612a248360001c6020612e79565b604051602001612a359291906152be565b6040516020818303038152906040526040517f08c379a0000000000000000000000000000000000000000000000000000000008152600401612a779190613c2b565b60405180910390fd5b5050565b612a8c6110fb565b612acb576040517f08c379a0000000000000000000000000000000000000000000000000000000008152600401612ac290615344565b60405180910390fd5b565b612ad783836130b5565b612ae46000848484612b72565b612b23576040517f08c379a0000000000000000000000000000000000000000000000000000000008152600401612b1a90615150565b60405180910390fd5b505050565b612b306110fb565b15612b70576040517f08c379a0000000000000000000000000000000000000000000000000000000008152600401612b67906153b0565b60405180910390fd5b565b6000612b938473ffffffffffffffffffffffffffffffffffffffff166132d2565b15612cec578373ffffffffffffffffffffffffffffffffffffffff1663150b7a02612bbc611b49565b8786866040518563ffffffff1660e01b8152600401612bde9493929190615425565b6020604051808303816000875af1925050508015612c1a57506040513d601f19601f82011682018060405250810190612c179190615486565b60015b612c9c573d8060008114612c4a576040519150601f19603f3d011682016040523d82523d6000602084013e612c4f565b606091505b506000815103612c94576040517f08c379a0000000000000000000000000000000000000000000000000000000008152600401612c8b90615150565b60405180910390fd5b805181602001fd5b63150b7a0260e01b7bffffffffffffffffffffffffffffffffffffffffffffffffffffffff1916817bffffffffffffffffffffffffffffffffffffffffffffffffffffffff191614915050612cf1565b600190505b949350505050565b606060405180602001604052806000815250905090565b6060612d1b82611afe565b6000612d25612cf9565b90506000815111612d455760405180602001604052806000815250612d70565b80612d4f846132f5565b604051602001612d60929190615170565b6040516020818303038152906040525b915050919050565b60007f780e9d63000000000000000000000000000000000000000000000000000000007bffffffffffffffffffffffffffffffffffffffffffffffffffffffff1916827bffffffffffffffffffffffffffffffffffffffffffffffffffffffff19161480612deb5750612dea826133c3565b5b9050919050565b612dfe848484846134a5565b612e066110fb565b15612e46576040517f08c379a0000000000000000000000000000000000000000000000000000000008152600401612e3d90615525565b60405180910390fd5b50505050565b6060612e728273ffffffffffffffffffffffffffffffffffffffff16601460ff16612e79565b9050919050565b606060006002836002612e8c9190615030565b612e969190614ffc565b67ffffffffffffffff811115612eaf57612eae613d82565b5b6040519080825280601f01601f191660200182016040528015612ee15781602001600182028036833780820191505090505b5090507f300000000000000000000000000000000000000000000000000000000000000081600081518110612f1957612f18614683565b5b60200101907effffffffffffffffffffffffffffffffffffffffffffffffffffffffffffff1916908160001a9053507f780000000000000000000000000000000000000000000000000000000000000081600181518110612f7d57612f7c614683565b5b60200101907effffffffffffffffffffffffffffffffffffffffffffffffffffffffffffff1916908160001a90535060006001846002612fbd9190615030565b612fc79190614ffc565b90505b6001811115613067577f3031323334353637383961626364656600000000000000000000000000000000600f86166010811061300957613008614683565b5b1a60f81b8282815181106130205761301f614683565b5b60200101907effffffffffffffffffffffffffffffffffffffffffffffffffffffffffffff1916908160001a905350600485901c94508061306090615545565b9050612fca565b50600084146130ab576040517f08c379a00000000000000000000000000000000000000000000000000000000081526004016130a2906155ba565b60405180910390fd5b8091505092915050565b600073ffffffffffffffffffffffffffffffffffffffff168273ffffffffffffffffffffffffffffffffffffffff1603613124576040517f08c379a000000000000000000000000000000000000000000000000000000000815260040161311b90615626565b60405180910390fd5b61312d8161299e565b1561316d576040517f08c379a000000000000000000000000000000000000000000000000000000000815260040161316490615692565b60405180910390fd5b61317b6000838360016129df565b6131848161299e565b156131c4576040517f08c379a00000000000000000000000000000000000000000000000000000000081526004016131bb90615692565b60405180910390fd5b6001600360008473ffffffffffffffffffffffffffffffffffffffff1673ffffffffffffffffffffffffffffffffffffffff16815260200190815260200160002060008282540192505081905550816002600083815260200190815260200160002060006101000a81548173ffffffffffffffffffffffffffffffffffffffff021916908373ffffffffffffffffffffffffffffffffffffffff160217905550808273ffffffffffffffffffffffffffffffffffffffff16600073ffffffffffffffffffffffffffffffffffffffff167fddf252ad1be2c89b69c2b068fc378daa952ba7f163c4a11628f55a4df523b3ef60405160405180910390a46132ce6000838360016129f9565b5050565b6000808273ffffffffffffffffffffffffffffffffffffffff163b119050919050565b60606000600161330484613603565b01905060008167ffffffffffffffff81111561332357613322613d82565b5b6040519080825280601f01601f1916602001820160405280156133555781602001600182028036833780820191505090505b509050600082602001820190505b6001156133b8578080600190039150507f3031323334353637383961626364656600000000000000000000000000000000600a86061a8153600a85816133ac576133ab6156b2565b5b04945060008503613363575b819350505050919050565b60007f80ac58cd000000000000000000000000000000000000000000000000000000007bffffffffffffffffffffffffffffffffffffffffffffffffffffffff1916827bffffffffffffffffffffffffffffffffffffffffffffffffffffffff1916148061348e57507f5b5e139f000000000000000000000000000000000000000000000000000000007bffffffffffffffffffffffffffffffffffffffffffffffffffffffff1916827bffffffffffffffffffffffffffffffffffffffffffffffffffffffff1916145b8061349e575061349d82613756565b5b9050919050565b6134b1848484846137c0565b60018111156134f5576040517f08c379a00000000000000000000000000000000000000000000000000000000081526004016134ec90615753565b60405180910390fd5b6000829050600073ffffffffffffffffffffffffffffffffffffffff168573ffffffffffffffffffffffffffffffffffffffff160361353c57613537816137c6565b61357b565b8373ffffffffffffffffffffffffffffffffffffffff168573ffffffffffffffffffffffffffffffffffffffff161461357a57613579858261380f565b5b5b600073ffffffffffffffffffffffffffffffffffffffff168473ffffffffffffffffffffffffffffffffffffffff16036135bd576135b88161397c565b6135fc565b8473ffffffffffffffffffffffffffffffffffffffff168473ffffffffffffffffffffffffffffffffffffffff16146135fb576135fa8482613a4d565b5b5b5050505050565b600080600090507a184f03e93ff9f4daa797ed6e38ed64bf6a1f0100000000000000008310613661577a184f03e93ff9f4daa797ed6e38ed64bf6a1f0100000000000000008381613657576136566156b2565b5b0492506040810190505b6d04ee2d6d415b85acef8100000000831061369e576d04ee2d6d415b85acef81000000008381613694576136936156b2565b5b0492506020810190505b662386f26fc1000083106136cd57662386f26fc1000083816136c3576136c26156b2565b5b0492506010810190505b6305f5e10083106136f6576305f5e10083816136ec576136eb6156b2565b5b0492506008810190505b612710831061371b576127108381613711576137106156b2565b5b0492506004810190505b6064831061373e5760648381613734576137336156b2565b5b0492506002810190505b600a831061374d576001810190505b80915050919050565b60007f01ffc9a7000000000000000000000000000000000000000000000000000000007bffffffffffffffffffffffffffffffffffffffffffffffffffffffff1916827bffffffffffffffffffffffffffffffffffffffffffffffffffffffff1916149050919050565b50505050565b6008805490506009600083815260200190815260200160002081905550600881908060018154018082558091505060019003906000526020600020016000909190919091505550565b6000600161381c8461124c565b6138269190615773565b905060006007600084815260200190815260200160002054905081811461390b576000600660008673ffffffffffffffffffffffffffffffffffffffff1673ffffffffffffffffffffffffffffffffffffffff168152602001908152602001600020600084815260200190815260200160002054905080600660008773ffffffffffffffffffffffffffffffffffffffff1673ffffffffffffffffffffffffffffffffffffffff168152602001908152602001600020600084815260200190815260200160002081905550816007600083815260200190815260200160002081905550505b6007600084815260200190815260200160002060009055600660008573ffffffffffffffffffffffffffffffffffffffff1673ffffffffffffffffffffffffffffffffffffffff16815260200190815260200160002060008381526020019081526020016000206000905550505050565b600060016008805490506139909190615773565b90506000600960008481526020019081526020016000205490506000600883815481106139c0576139bf614683565b5b9060005260206000200154905080600883815481106139e2576139e1614683565b5b906000526020600020018190555081600960008381526020019081526020016000208190555060096000858152602001908152602001600020600090556008805480613a3157613a306157a7565b5b6001900381819060005260206000200160009055905550505050565b6000613a588361124c565b905081600660008573ffffffffffffffffffffffffffffffffffffffff1673ffffffffffffffffffffffffffffffffffffffff168152602001908152602001600020600083815260200190815260200160002081905550806007600084815260200190815260200160002081905550505050565b6000604051905090565b600080fd5b600080fd5b60007fffffffff0000000000000000000000000000000000000000000000000000000082169050919050565b613b1581613ae0565b8114613b2057600080fd5b50565b600081359050613b3281613b0c565b92915050565b600060208284031215613b4e57613b4d613ad6565b5b6000613b5c84828501613b23565b91505092915050565b60008115159050919050565b613b7a81613b65565b82525050565b6000602082019050613b956000830184613b71565b92915050565b600081519050919050565b600082825260208201905092915050565b60005b83811015613bd5578082015181840152602081019050613bba565b60008484015250505050565b6000601f19601f8301169050919050565b6000613bfd82613b9b565b613c078185613ba6565b9350613c17818560208601613bb7565b613c2081613be1565b840191505092915050565b60006020820190508181036000830152613c458184613bf2565b905092915050565b6000819050919050565b613c6081613c4d565b8114613c6b57600080fd5b50565b600081359050613c7d81613c57565b92915050565b600060208284031215613c9957613c98613ad6565b5b6000613ca784828501613c6e565b91505092915050565b600073ffffffffffffffffffffffffffffffffffffffff82169050919050565b6000613cdb82613cb0565b9050919050565b613ceb81613cd0565b82525050565b6000602082019050613d066000830184613ce2565b92915050565b613d1581613cd0565b8114613d2057600080fd5b50565b600081359050613d3281613d0c565b92915050565b60008060408385031215613d4f57613d4e613ad6565b5b6000613d5d85828601613d23565b9250506020613d6e85828601613c6e565b9150509250929050565b600080fd5b600080fd5b7f4e487b7100000000000000000000000000000000000000000000000000000000600052604160045260246000fd5b613dba82613be1565b810181811067ffffffffffffffff82111715613dd957613dd8613d82565b5b80604052505050565b6000613dec613acc565b9050613df88282613db1565b919050565b600067ffffffffffffffff821115613e1857613e17613d82565b5b613e2182613be1565b9050602081019050919050565b82818337600083830152505050565b6000613e50613e4b84613dfd565b613de2565b905082815260208101848484011115613e6c57613e6b613d7d565b5b613e77848285613e2e565b509392505050565b600082601f830112613e9457613e93613d78565b5b8135613ea4848260208601613e3d565b91505092915050565b600060208284031215613ec357613ec2613ad6565b5b600082013567ffffffffffffffff811115613ee157613ee0613adb565b5b613eed84828501613e7f565b91505092915050565b613eff81613c4d565b82525050565b6000602082019050613f1a6000830184613ef6565b92915050565b600080600060608486031215613f3957613f38613ad6565b5b6000613f4786828701613d23565b9350506020613f5886828701613d23565b9250506040613f6986828701613c6e565b9150509250925092565b6000819050919050565b613f8681613f73565b8114613f9157600080fd5b50565b600081359050613fa381613f7d565b92915050565b600060208284031215613fbf57613fbe613ad6565b5b6000613fcd84828501613f94565b91505092915050565b613fdf81613f73565b82525050565b6000602082019050613ffa6000830184613fd6565b92915050565b6000806040838503121561401757614016613ad6565b5b600061402585828601613f94565b925050602061403685828601613d23565b9150509250929050565b600081519050919050565b600082825260208201905092915050565b6000819050602082019050919050565b61407581613c4d565b82525050565b600082825260208201905092915050565b600061409782613b9b565b6140a1818561407b565b93506140b1818560208601613bb7565b6140ba81613be1565b840191505092915050565b60006080830160008301516140dd600086018261406c565b50602083015184820360208601526140f5828261408c565b9150506040830151848203604086015261410f828261408c565b91505060608301518482036060860152614129828261408c565b9150508091505092915050565b600061414283836140c5565b905092915050565b6000602082019050919050565b600061416282614040565b61416c818561404b565b93508360208202850161417e8561405c565b8060005b858110156141ba578484038952815161419b8582614136565b94506141a68361414a565b925060208a01995050600181019050614182565b50829750879550505050505092915050565b600060208201905081810360008301526141e68184614157565b905092915050565b60006020828403121561420457614203613ad6565b5b600061421284828501613d23565b91505092915050565b6000806040838503121561423257614231613ad6565b5b600083013567ffffffffffffffff8111156142505761424f613adb565b5b61425c85828601613e7f565b925050602083013567ffffffffffffffff81111561427d5761427c613adb565b5b61428985828601613e7f565b9150509250929050565b61429c81613b65565b81146142a757600080fd5b50565b6000813590506142b981614293565b92915050565b600080604083850312156142d6576142d5613ad6565b5b60006142e485828601613d23565b92505060206142f5858286016142aa565b9150509250929050565b600067ffffffffffffffff82111561431a57614319613d82565b5b61432382613be1565b9050602081019050919050565b600061434361433e846142ff565b613de2565b90508281526020810184848401111561435f5761435e613d7d565b5b61436a848285613e2e565b509392505050565b600082601f83011261438757614386613d78565b5b8135614397848260208601614330565b91505092915050565b600080600080608085870312156143ba576143b9613ad6565b5b60006143c887828801613d23565b94505060206143d987828801613d23565b93505060406143ea87828801613c6e565b925050606085013567ffffffffffffffff81111561440b5761440a613adb565b5b61441787828801614372565b91505092959194509250565b6000806040838503121561443a57614439613ad6565b5b600061444885828601613d23565b925050602083013567ffffffffffffffff81111561446957614468613adb565b5b61447585828601613e7f565b9150509250929050565b6000806040838503121561449657614495613ad6565b5b60006144a485828601613d23565b92505060206144b585828601613d23565b9150509250929050565b600080604083850312156144d6576144d5613ad6565b5b60006144e485828601613c6e565b92505060206144f585828601613d23565b9150509250929050565b7f4e487b7100000000000000000000000000000000000000000000000000000000600052602260045260246000fd5b6000600282049050600182168061454657607f821691505b602082108103614559576145586144ff565b5b50919050565b7f4552433732313a20617070726f76616c20746f2063757272656e74206f776e6560008201527f7200000000000000000000000000000000000000000000000000000000000000602082015250565b60006145bb602183613ba6565b91506145c68261455f565b604082019050919050565b600060208201905081810360008301526145ea816145ae565b9050919050565b7f4552433732313a20617070726f76652063616c6c6572206973206e6f7420746f60008201527f6b656e206f776e6572206f7220617070726f76656420666f7220616c6c000000602082015250565b600061464d603d83613ba6565b9150614658826145f1565b604082019050919050565b6000602082019050818103600083015261467c81614640565b9050919050565b7f4e487b7100000000000000000000000000000000000000000000000000000000600052603260045260246000fd5b600081905092915050565b60008190508160005260206000209050919050565b600081546146df8161452e565b6146e981866146b2565b9450600182166000811461470457600181146147195761474c565b60ff198316865281151582028601935061474c565b614722856146bd565b60005b8381101561474457815481890152600182019150602081019050614725565b838801955050505b50505092915050565b600061476182846146d2565b915081905092915050565b600061477782613b9b565b61478181856146b2565b9350614791818560208601613bb7565b80840191505092915050565b60006147a9828461476c565b915081905092915050565b7f4e487b7100000000000000000000000000000000000000000000000000000000600052601160045260246000fd5b60006147ee82613c4d565b91507fffffffffffffffffffffffffffffffffffffffffffffffffffffffffffffffff82036148205761481f6147b4565b5b600182019050919050565b7f4552433732313a2063616c6c6572206973206e6f7420746f6b656e206f776e6560008201527f72206f7220617070726f76656400000000000000000000000000000000000000602082015250565b6000614887602d83613ba6565b91506148928261482b565b604082019050919050565b600060208201905081810360008301526148b68161487a565b9050919050565b7f455243373231456e756d657261626c653a206f776e657220696e646578206f7560008201527f74206f6620626f756e6473000000000000000000000000000000000000000000602082015250565b6000614919602b83613ba6565b9150614924826148bd565b604082019050919050565b600060208201905081810360008301526149488161490c565b9050919050565b7f416363657373436f6e74726f6c3a2063616e206f6e6c792072656e6f756e636560008201527f20726f6c657320666f722073656c660000000000000000000000000000000000602082015250565b60006149ab602f83613ba6565b91506149b68261494f565b604082019050919050565b600060208201905081810360008301526149da8161499e565b9050919050565b7f455243373231456e756d657261626c653a20676c6f62616c20696e646578206f60008201527f7574206f6620626f756e64730000000000000000000000000000000000000000602082015250565b6000614a3d602c83613ba6565b9150614a48826149e1565b604082019050919050565b60006020820190508181036000830152614a6c81614a30565b9050919050565b7f4552433732313a20696e76616c696420746f6b656e2049440000000000000000600082015250565b6000614aa9601883613ba6565b9150614ab482614a73565b602082019050919050565b60006020820190508181036000830152614ad881614a9c565b9050919050565b7f4552433732313a2061646472657373207a65726f206973206e6f74206120766160008201527f6c6964206f776e65720000000000000000000000000000000000000000000000602082015250565b6000614b3b602983613ba6565b9150614b4682614adf565b604082019050919050565b60006020820190508181036000830152614b6a81614b2e565b9050919050565b60006020601f8301049050919050565b600082821b905092915050565b600060088302614bbe7fffffffffffffffffffffffffffffffffffffffffffffffffffffffffffffffff82614b81565b614bc88683614b81565b95508019841693508086168417925050509392505050565b6000819050919050565b6000614c05614c00614bfb84613c4d565b614be0565b613c4d565b9050919050565b6000819050919050565b614c1f83614bea565b614c33614c2b82614c0c565b848454614b8e565b825550505050565b600090565b614c48614c3b565b614c53818484614c16565b505050565b5b81811015614c7757614c6c600082614c40565b600181019050614c59565b5050565b601f821115614cbc57614c8d816146bd565b614c9684614b71565b81016020851015614ca5578190505b614cb9614cb185614b71565b830182614c58565b50505b505050565b600082821c905092915050565b6000614cdf60001984600802614cc1565b1980831691505092915050565b6000614cf88383614cce565b9150826002028217905092915050565b614d1182613b9b565b67ffffffffffffffff811115614d2a57614d29613d82565b5b614d34825461452e565b614d3f828285614c7b565b600060209050601f831160018114614d725760008415614d60578287015190505b614d6a8582614cec565b865550614dd2565b601f198416614d80866146bd565b60005b82811015614da857848901518255600182019150602085019450602081019050614d83565b86831015614dc55784890151614dc1601f891682614cce565b8355505b6001600288020188555050505b505050505050565b7f496e76616c696420746f6b656e49640000000000000000000000000000000000600082015250565b6000614e10600f83613ba6565b9150614e1b82614dda565b602082019050919050565b60006020820190508181036000830152614e3f81614e03565b9050919050565b7f43616c6c6572206973206e6f7420746865206f776e6572206f7220617070726f60008201527f7665640000000000000000000000000000000000000000000000000000000000602082015250565b6000614ea2602383613ba6565b9150614ead82614e46565b604082019050919050565b60006020820190508181036000830152614ed181614e95565b9050919050565b7f4552433732313a207472616e736665722066726f6d20696e636f72726563742060008201527f6f776e6572000000000000000000000000000000000000000000000000000000602082015250565b6000614f34602583613ba6565b9150614f3f82614ed8565b604082019050919050565b60006020820190508181036000830152614f6381614f27565b9050919050565b7f4552433732313a207472616e7366657220746f20746865207a65726f2061646460008201527f7265737300000000000000000000000000000000000000000000000000000000602082015250565b6000614fc6602483613ba6565b9150614fd182614f6a565b604082019050919050565b60006020820190508181036000830152614ff581614fb9565b9050919050565b600061500782613c4d565b915061501283613c4d565b925082820190508082111561502a576150296147b4565b5b92915050565b600061503b82613c4d565b915061504683613c4d565b925082820261505481613c4d565b9150828204841483151761506b5761506a6147b4565b5b5092915050565b7f4552433732313a20617070726f766520746f2063616c6c657200000000000000600082015250565b60006150a8601983613ba6565b91506150b382615072565b602082019050919050565b600060208201905081810360008301526150d78161509b565b9050919050565b7f4552433732313a207472616e7366657220746f206e6f6e20455243373231526560008201527f63656976657220696d706c656d656e7465720000000000000000000000000000602082015250565b600061513a603283613ba6565b9150615145826150de565b604082019050919050565b600060208201905081810360008301526151698161512d565b9050919050565b600061517c828561476c565b9150615188828461476c565b91508190509392505050565b7f45524337323155524953746f726167653a2055524920736574206f66206e6f6e60008201527f6578697374656e7420746f6b656e000000000000000000000000000000000000602082015250565b60006151f0602e83613ba6565b91506151fb82615194565b604082019050919050565b6000602082019050818103600083015261521f816151e3565b9050919050565b7f416363657373436f6e74726f6c3a206163636f756e7420000000000000000000600082015250565b600061525c6017836146b2565b915061526782615226565b601782019050919050565b7f206973206d697373696e6720726f6c6520000000000000000000000000000000600082015250565b60006152a86011836146b2565b91506152b382615272565b601182019050919050565b60006152c98261524f565b91506152d5828561476c565b91506152e08261529b565b91506152ec828461476c565b91508190509392505050565b7f5061757361626c653a206e6f7420706175736564000000000000000000000000600082015250565b600061532e601483613ba6565b9150615339826152f8565b602082019050919050565b6000602082019050818103600083015261535d81615321565b9050919050565b7f5061757361626c653a2070617573656400000000000000000000000000000000600082015250565b600061539a601083613ba6565b91506153a582615364565b602082019050919050565b600060208201905081810360008301526153c98161538d565b9050919050565b600081519050919050565b600082825260208201905092915050565b60006153f7826153d0565b61540181856153db565b9350615411818560208601613bb7565b61541a81613be1565b840191505092915050565b600060808201905061543a6000830187613ce2565b6154476020830186613ce2565b6154546040830185613ef6565b818103606083015261546681846153ec565b905095945050505050565b60008151905061548081613b0c565b92915050565b60006020828403121561549c5761549b613ad6565b5b60006154aa84828501615471565b91505092915050565b7f4552433732315061757361626c653a20746f6b656e207472616e73666572207760008201527f68696c6520706175736564000000000000000000000000000000000000000000602082015250565b600061550f602b83613ba6565b915061551a826154b3565b604082019050919050565b6000602082019050818103600083015261553e81615502565b9050919050565b600061555082613c4d565b915060008203615563576155626147b4565b5b600182039050919050565b7f537472696e67733a20686578206c656e67746820696e73756666696369656e74600082015250565b60006155a4602083613ba6565b91506155af8261556e565b602082019050919050565b600060208201905081810360008301526155d381615597565b9050919050565b7f4552433732313a206d696e7420746f20746865207a65726f2061646472657373600082015250565b6000615610602083613ba6565b915061561b826155da565b602082019050919050565b6000602082019050818103600083015261563f81615603565b9050919050565b7f4552433732313a20746f6b656e20616c7265616479206d696e74656400000000600082015250565b600061567c601c83613ba6565b915061568782615646565b602082019050919050565b600060208201905081810360008301526156ab8161566f565b9050919050565b7f4e487b7100000000000000000000000000000000000000000000000000000000600052601260045260246000fd5b7f455243373231456e756d657261626c653a20636f6e736563757469766520747260008201527f616e7366657273206e6f7420737570706f727465640000000000000000000000602082015250565b600061573d603583613ba6565b9150615748826156e1565b604082019050919050565b6000602082019050818103600083015261576c81615730565b9050919050565b600061577e82613c4d565b915061578983613c4d565b92508282039050818111156157a1576157a06147b4565b5b92915050565b7f4e487b7100000000000000000000000000000000000000000000000000000000600052603160045260246000fdfea26469706673582212208a6f6e1da2997be24a84f219c9fb00ad1eaf32031e7cb1aaa7e7795ca416f53264736f6c63430008140033",
  "linkReferences": {},
  "deployedLinkReferences": {}
}